{
  "address": "0x7b581185b7912E45F882aE0B1512C32B8a96Dd3d",
  "abi": [
    {
      "anonymous": false,
      "inputs": [
        {
          "indexed": true,
          "internalType": "address",
          "name": "adapterAddress",
          "type": "address"
        },
        {
          "indexed": true,
          "internalType": "address",
          "name": "ownableTargetAddress",
          "type": "address"
        }
      ],
      "name": "NewOwnableToAccessControlAdapterDeployed",
      "type": "event"
    },
    {
      "inputs": [
        {
          "internalType": "address",
          "name": "targetAddress",
          "type": "address"
        }
      ],
      "name": "deployNewOwnableToAccessControlAdapter",
      "outputs": [
        {
          "internalType": "address",
          "name": "",
          "type": "address"
        }
      ],
      "stateMutability": "nonpayable",
      "type": "function"
    }
  ],
  "transactionHash": "0x0632ff416ab98e2dd6af21d26f9e28c5b21d187557d8ec594d8734f3a7620a5f",
  "args": [],
  "numDeployments": 1,
  "solcInputHash": "9f8f20c7b4fd0796d45c56d37e790191",
  "bytecode": "0x608060405234801561001057600080fd5b50610dd2806100206000396000f3fe608060405234801561001057600080fd5b506004361061002b5760003560e01c80635020380814610030575b600080fd5b61004361003e3660046101c9565b61005f565b6040516001600160a01b03909116815260200160405180910390f35b6000336001600160a01b0316826001600160a01b0316638da5cb5b6040518163ffffffff1660e01b81526004016020604051808303816000875af11580156100ab573d6000803e3d6000fd5b505050506040513d601f19601f820116820180604052508101906100cf91906101ed565b6001600160a01b0316146101185760405162461bcd60e51b815260206004820152600c60248201526b3737ba1030b71037bbb732b960a11b604482015260640160405180910390fd5b60008233604051610128906101a4565b6001600160a01b03928316815291166020820152604001604051809103906000f08015801561015b573d6000803e3d6000fd5b509050826001600160a01b0316816001600160a01b03167f480c2ac1e89311d31b5f348c0934382be45d3bb75dfe35f2f209652fed1505b360405160405180910390a392915050565b610b928061020b83390190565b6001600160a01b03811681146101c657600080fd5b50565b6000602082840312156101db57600080fd5b81356101e6816101b1565b9392505050565b6000602082840312156101ff57600080fd5b81516101e6816101b156fe608060405234801561001057600080fd5b50604051610b92380380610b9283398101604081905261002f91610121565b8061003d81600019806100ad565b506001600160a01b0382166100875760405162461bcd60e51b815260206004820152600c60248201526b7a65726f206164647265737360a01b604482015260640160405180910390fd5b50600180546001600160a01b0319166001600160a01b0392909216919091179055610154565b6001600160a01b0383166000818152602081815260409182902084905581518581529081018490527fe9be537308880e0f56b7d7cfd7abf85f14c4934486d138f848b92a0cbaf659b4910160405180910390a2505050565b80516001600160a01b038116811461011c57600080fd5b919050565b6000806040838503121561013457600080fd5b61013d83610105565b915061014b60208401610105565b90509250929050565b610a2f806101636000396000f3fe6080604052600436106100ec5760003560e01c8063725f36261161008a578063d4b8399211610059578063d4b83992146102e7578063d5bb7f671461031f578063f822d5aa1461033f578063fcc2c0781461035f5761010b565b8063725f36261461025f578063ae5b102e1461028f578063ae682e2e146102af578063c688d693146102c75761010b565b806334e48c9e116100c657806334e48c9e146101d157806344276733146101e9578063491d26111461021f5780635defb40d1461023f5761010b565b806309c5eabe1461014b5780630e82fe25146101745780632b521416146101af5761010b565b3661010b576101096040518060200160405280600081525061037f565b005b6101096000368080601f01602080910402602001604051908101604052809392919081815260200183838082843760009201919091525061037f92505050565b61015e61015936600461076f565b61037f565b60405161016b9190610810565b60405180910390f35b34801561018057600080fd5b506101a161018f366004610840565b60026020526000908152604090205481565b60405190815260200161016b565b3480156101bb57600080fd5b50306000908152602081905260409020546101a1565b3480156101dd57600080fd5b506101a1600160fd1b81565b3480156101f557600080fd5b506101a1610204366004610872565b6001600160a01b031660009081526020819052604090205490565b34801561022b57600080fd5b5061010961023a36600461088d565b610509565b34801561024b57600080fd5b5061010961025a3660046108b7565b61058b565b34801561026b57600080fd5b5061027f61027a366004610910565b6105a0565b604051901515815260200161016b565b34801561029b57600080fd5b506101096102aa366004610929565b6105c2565b3480156102bb57600080fd5b506101a1600160ff1b81565b3480156102d357600080fd5b5061027f6102e2366004610929565b61061e565b3480156102f357600080fd5b50600154610307906001600160a01b031681565b6040516001600160a01b03909116815260200161016b565b34801561032b57600080fd5b5061010961033a366004610910565b610647565b34801561034b57600080fd5b506101a161035a366004610945565b610654565b34801561036b57600080fd5b5061027f61037a366004610910565b61067f565b60208101518151606091901561041b576001600160e01b03198116600090815260026020526040812054908190036103f45760405162461bcd60e51b81526020600482015260136024820152721858d8d95cdcc81c9bdb19481b9bdd081cd95d606a1b60448201526064015b60405180910390fd5b6103fd8161067f565b6104195760405162461bcd60e51b81526004016103eb90610978565b505b60015460405160009182916001600160a01b0390911690349061043f90889061099f565b60006040518083038185875af1925050503d806000811461047c576040519150601f19603f3d011682016040523d82523d6000602084013e610481565b606091505b5091509150816104c65760405162461bcd60e51b815260206004820152601060248201526f195e1958dd5d1a5bdb8819985a5b195960821b60448201526064016103eb565b7f57a62eca76fc623c92f161d2a4b851851ece707135ce2af1eec256d660571b6d8386836040516104f9939291906109bb565b60405180910390a1949350505050565b610516600160fd1b61067f565b6105325760405162461bcd60e51b81526004016103eb90610978565b6001600160e01b03198216600081815260026020908152604091829020849055815192835282018390527fdb8ed917742b49e83acd1322bcaa8f18b1e5f78a70784c43ea14db7ab50e628d910160405180910390a15050565b61059c828051906020012082610509565b5050565b306000908152602081905260408120546105bc905b8316831490565b92915050565b6105cf600160ff1b61067f565b6105eb5760405162461bcd60e51b81526004016103eb90610978565b61059c828261061933610613876001600160a01b031660009081526020819052604090205490565b86610654565b61068b565b6001600160a01b038216600090815260208190526040812054610640906105b5565b9392505050565b61065130826105c2565b50565b6001600160a01b03929092166000908152602081905260409020546000198084188216189216171690565b60006105bc338361061e565b6001600160a01b0383166000818152602081815260409182902084905581518581529081018490527fe9be537308880e0f56b7d7cfd7abf85f14c4934486d138f848b92a0cbaf659b4910160405180910390a2505050565b634e487b7160e01b600052604160045260246000fd5b600067ffffffffffffffff80841115610714576107146106e3565b604051601f8501601f19908116603f0116810190828211818310171561073c5761073c6106e3565b8160405280935085815286868601111561075557600080fd5b858560208301376000602087830101525050509392505050565b60006020828403121561078157600080fd5b813567ffffffffffffffff81111561079857600080fd5b8201601f810184136107a957600080fd5b6107b8848235602084016106f9565b949350505050565b60005b838110156107db5781810151838201526020016107c3565b50506000910152565b600081518084526107fc8160208601602086016107c0565b601f01601f19169290920160200192915050565b60208152600061064060208301846107e4565b80356001600160e01b03198116811461083b57600080fd5b919050565b60006020828403121561085257600080fd5b61064082610823565b80356001600160a01b038116811461083b57600080fd5b60006020828403121561088457600080fd5b6106408261085b565b600080604083850312156108a057600080fd5b6108a983610823565b946020939093013593505050565b600080604083850312156108ca57600080fd5b823567ffffffffffffffff8111156108e157600080fd5b8301601f810185136108f257600080fd5b610901858235602084016106f9565b95602094909401359450505050565b60006020828403121561092257600080fd5b5035919050565b6000806040838503121561093c57600080fd5b6108a98361085b565b60008060006060848603121561095a57600080fd5b6109638461085b565b95602085013595506040909401359392505050565b6020808252600d908201526c1858d8d95cdcc819195b9a5959609a1b604082015260600190565b600082516109b18184602087016107c0565b9190910192915050565b63ffffffff60e01b841681526060602082015260006109dd60608301856107e4565b82810360408401526109ef81856107e4565b969550505050505056fea2646970667358221220299ccaa4a1349ebdda3d33b786bcdfc785617f69bfe78156209634c81486f30f64736f6c63430008150033a2646970667358221220dfafe7db0eec338f1238afc48c957b42ed075e71ad1fe22330cb21864d2b74e564736f6c63430008150033",
  "devdoc": {
    "author": "Basil Gorin",
    "events": {
      "NewOwnableToAccessControlAdapterDeployed(address,address)": {
        "details": "Fired in deployNewOwnableToAccessControlAdapter",
        "params": {
          "adapterAddress": "newly deployed OwnableToAccessControlAdapter address",
          "ownableTargetAddress": "OZ Ownable target contract address"
        }
      }
    },
    "kind": "dev",
    "methods": {
      "deployNewOwnableToAccessControlAdapter(address)": {
        "params": {
          "targetAddress": "OZ Ownable target address to bind OwnableToAccessControlAdapter to"
        },
        "returns": {
          "_0": "address of the newly deployed OwnableToAccessControlAdapter contract"
        }
      }
    },
    "title": "Adapter Factory",
    "version": 1
  },
  "userdoc": {
    "kind": "user",
    "methods": {
      "deployNewOwnableToAccessControlAdapter(address)": {
        "notice": "Deploys new OwnableToAccessControlAdapter bound to the OZ Ownable contract specified.      Can be executed only by the OZ Ownable target owner. This owner is expected to transfer      the ownership to the newly deployed OwnableToAccessControlAdapter contract address."
      }
    },
    "notice": "Helper contract simplifying the deployment of the OwnableToAccessControlAdapter",
    "version": 1
  },
  "storageLayout": {
    "storage": [],
    "types": null
  }
}