{
  "address": "0xf6d284312D2533B4BB302cEAc092366580Ea26E8",
  "abi": [
    {
      "anonymous": false,
      "inputs": [
        {
          "indexed": false,
          "internalType": "address",
          "name": "previousAdmin",
          "type": "address"
        },
        {
          "indexed": false,
          "internalType": "address",
          "name": "newAdmin",
          "type": "address"
        }
      ],
      "name": "AdminChanged",
      "type": "event"
    },
    {
      "anonymous": false,
      "inputs": [
        {
          "indexed": true,
          "internalType": "address",
          "name": "owner",
          "type": "address"
        },
        {
          "indexed": true,
          "internalType": "address",
          "name": "approved",
          "type": "address"
        },
        {
          "indexed": true,
          "internalType": "uint256",
          "name": "tokenId",
          "type": "uint256"
        }
      ],
      "name": "Approval",
      "type": "event"
    },
    {
      "anonymous": false,
      "inputs": [
        {
          "indexed": true,
          "internalType": "address",
          "name": "owner",
          "type": "address"
        },
        {
          "indexed": true,
          "internalType": "address",
          "name": "operator",
          "type": "address"
        },
        {
          "indexed": false,
          "internalType": "bool",
          "name": "approved",
          "type": "bool"
        }
      ],
      "name": "ApprovalForAll",
      "type": "event"
    },
    {
      "anonymous": false,
      "inputs": [
        {
          "indexed": true,
          "internalType": "address",
          "name": "_by",
          "type": "address"
        },
        {
          "indexed": false,
          "internalType": "string",
          "name": "oldVal",
          "type": "string"
        },
        {
          "indexed": false,
          "internalType": "string",
          "name": "newVal",
          "type": "string"
        }
      ],
      "name": "BaseURIUpdated",
      "type": "event"
    },
    {
      "anonymous": false,
      "inputs": [
        {
          "indexed": true,
          "internalType": "address",
          "name": "beacon",
          "type": "address"
        }
      ],
      "name": "BeaconUpgraded",
      "type": "event"
    },
    {
      "anonymous": false,
      "inputs": [
        {
          "indexed": true,
          "internalType": "address",
          "name": "_by",
          "type": "address"
        },
        {
          "indexed": true,
          "internalType": "address",
          "name": "_to",
          "type": "address"
        },
        {
          "indexed": false,
          "internalType": "uint256",
          "name": "_requested",
          "type": "uint256"
        },
        {
          "indexed": false,
          "internalType": "uint256",
          "name": "_actual",
          "type": "uint256"
        }
      ],
      "name": "RoleUpdated",
      "type": "event"
    },
    {
      "anonymous": false,
      "inputs": [
        {
          "indexed": true,
          "internalType": "address",
          "name": "_by",
          "type": "address"
        },
        {
          "indexed": false,
          "internalType": "uint256",
          "name": "tokenId",
          "type": "uint256"
        },
        {
          "indexed": false,
          "internalType": "string",
          "name": "oldVal",
          "type": "string"
        },
        {
          "indexed": false,
          "internalType": "string",
          "name": "newVal",
          "type": "string"
        }
      ],
      "name": "TokenURIUpdated",
      "type": "event"
    },
    {
      "anonymous": false,
      "inputs": [
        {
          "indexed": true,
          "internalType": "address",
          "name": "from",
          "type": "address"
        },
        {
          "indexed": true,
          "internalType": "address",
          "name": "to",
          "type": "address"
        },
        {
          "indexed": true,
          "internalType": "uint256",
          "name": "tokenId",
          "type": "uint256"
        }
      ],
      "name": "Transfer",
      "type": "event"
    },
    {
      "anonymous": false,
      "inputs": [
        {
          "indexed": true,
          "internalType": "address",
          "name": "implementation",
          "type": "address"
        }
      ],
      "name": "Upgraded",
      "type": "event"
    },
    {
      "inputs": [],
      "name": "FEATURE_BURNS_ON_BEHALF",
      "outputs": [
        {
          "internalType": "uint32",
          "name": "",
          "type": "uint32"
        }
      ],
      "stateMutability": "view",
      "type": "function"
    },
    {
      "inputs": [],
      "name": "FEATURE_OWN_BURNS",
      "outputs": [
        {
          "internalType": "uint32",
          "name": "",
          "type": "uint32"
        }
      ],
      "stateMutability": "view",
      "type": "function"
    },
    {
      "inputs": [],
      "name": "FEATURE_TRANSFERS",
      "outputs": [
        {
          "internalType": "uint32",
          "name": "",
          "type": "uint32"
        }
      ],
      "stateMutability": "view",
      "type": "function"
    },
    {
      "inputs": [],
      "name": "FEATURE_TRANSFERS_ON_BEHALF",
      "outputs": [
        {
          "internalType": "uint32",
          "name": "",
          "type": "uint32"
        }
      ],
      "stateMutability": "view",
      "type": "function"
    },
    {
      "inputs": [],
      "name": "ROLE_ACCESS_MANAGER",
      "outputs": [
        {
          "internalType": "uint256",
          "name": "",
          "type": "uint256"
        }
      ],
      "stateMutability": "view",
      "type": "function"
    },
    {
      "inputs": [],
      "name": "ROLE_RESCUE_MANAGER",
      "outputs": [
        {
          "internalType": "uint32",
          "name": "",
          "type": "uint32"
        }
      ],
      "stateMutability": "view",
      "type": "function"
    },
    {
      "inputs": [],
      "name": "ROLE_TOKEN_CREATOR",
      "outputs": [
        {
          "internalType": "uint32",
          "name": "",
          "type": "uint32"
        }
      ],
      "stateMutability": "view",
      "type": "function"
    },
    {
      "inputs": [],
      "name": "ROLE_TOKEN_DESTROYER",
      "outputs": [
        {
          "internalType": "uint32",
          "name": "",
          "type": "uint32"
        }
      ],
      "stateMutability": "view",
      "type": "function"
    },
    {
      "inputs": [],
      "name": "ROLE_UPGRADE_MANAGER",
      "outputs": [
        {
          "internalType": "uint256",
          "name": "",
          "type": "uint256"
        }
      ],
      "stateMutability": "view",
      "type": "function"
    },
    {
      "inputs": [],
      "name": "ROLE_URI_MANAGER",
      "outputs": [
        {
          "internalType": "uint32",
          "name": "",
          "type": "uint32"
        }
      ],
      "stateMutability": "view",
      "type": "function"
    },
    {
      "inputs": [
        {
          "internalType": "address",
          "name": "to",
          "type": "address"
        },
        {
          "internalType": "uint256",
          "name": "tokenId",
          "type": "uint256"
        }
      ],
      "name": "approve",
      "outputs": [],
      "stateMutability": "nonpayable",
      "type": "function"
    },
    {
      "inputs": [
        {
          "internalType": "address",
          "name": "owner",
          "type": "address"
        }
      ],
      "name": "balanceOf",
      "outputs": [
        {
          "internalType": "uint256",
          "name": "",
          "type": "uint256"
        }
      ],
      "stateMutability": "view",
      "type": "function"
    },
    {
      "inputs": [],
      "name": "baseURI",
      "outputs": [
        {
          "internalType": "string",
          "name": "",
          "type": "string"
        }
      ],
      "stateMutability": "view",
      "type": "function"
    },
    {
      "inputs": [
        {
          "internalType": "uint256",
          "name": "_tokenId",
          "type": "uint256"
        }
      ],
      "name": "burn",
      "outputs": [],
      "stateMutability": "nonpayable",
      "type": "function"
    },
    {
      "inputs": [
        {
          "internalType": "address",
          "name": "operator",
          "type": "address"
        },
        {
          "internalType": "uint256",
          "name": "target",
          "type": "uint256"
        },
        {
          "internalType": "uint256",
          "name": "desired",
          "type": "uint256"
        }
      ],
      "name": "evaluateBy",
      "outputs": [
        {
          "internalType": "uint256",
          "name": "",
          "type": "uint256"
        }
      ],
      "stateMutability": "view",
      "type": "function"
    },
    {
      "inputs": [
        {
          "internalType": "uint256",
          "name": "_tokenId",
          "type": "uint256"
        }
      ],
      "name": "exists",
      "outputs": [
        {
          "internalType": "bool",
          "name": "",
          "type": "bool"
        }
      ],
      "stateMutability": "view",
      "type": "function"
    },
    {
      "inputs": [],
      "name": "features",
      "outputs": [
        {
          "internalType": "uint256",
          "name": "",
          "type": "uint256"
        }
      ],
      "stateMutability": "view",
      "type": "function"
    },
    {
      "inputs": [
        {
          "internalType": "uint256",
          "name": "tokenId",
          "type": "uint256"
        }
      ],
      "name": "getApproved",
      "outputs": [
        {
          "internalType": "address",
          "name": "",
          "type": "address"
        }
      ],
      "stateMutability": "view",
      "type": "function"
    },
    {
      "inputs": [],
      "name": "getImplementation",
      "outputs": [
        {
          "internalType": "address",
          "name": "",
          "type": "address"
        }
      ],
      "stateMutability": "view",
      "type": "function"
    },
    {
      "inputs": [
        {
          "internalType": "address",
          "name": "owner",
          "type": "address"
        },
        {
          "internalType": "address",
          "name": "operator",
          "type": "address"
        }
      ],
      "name": "isApprovedForAll",
      "outputs": [
        {
          "internalType": "bool",
          "name": "",
          "type": "bool"
        }
      ],
      "stateMutability": "view",
      "type": "function"
    },
    {
      "inputs": [
        {
          "internalType": "uint256",
          "name": "required",
          "type": "uint256"
        }
      ],
      "name": "isFeatureEnabled",
      "outputs": [
        {
          "internalType": "bool",
          "name": "",
          "type": "bool"
        }
      ],
      "stateMutability": "view",
      "type": "function"
    },
    {
      "inputs": [
        {
          "internalType": "address",
          "name": "operator",
          "type": "address"
        },
        {
          "internalType": "uint256",
          "name": "required",
          "type": "uint256"
        }
      ],
      "name": "isOperatorInRole",
      "outputs": [
        {
          "internalType": "bool",
          "name": "",
          "type": "bool"
        }
      ],
      "stateMutability": "view",
      "type": "function"
    },
    {
      "inputs": [
        {
          "internalType": "uint256",
          "name": "required",
          "type": "uint256"
        }
      ],
      "name": "isSenderInRole",
      "outputs": [
        {
          "internalType": "bool",
          "name": "",
          "type": "bool"
        }
      ],
      "stateMutability": "view",
      "type": "function"
    },
    {
      "inputs": [
        {
          "internalType": "address",
          "name": "_to",
          "type": "address"
        },
        {
          "internalType": "uint256",
          "name": "_tokenId",
          "type": "uint256"
        }
      ],
      "name": "mint",
      "outputs": [],
      "stateMutability": "nonpayable",
      "type": "function"
    },
    {
      "inputs": [],
      "name": "name",
      "outputs": [
        {
          "internalType": "string",
          "name": "",
          "type": "string"
        }
      ],
      "stateMutability": "view",
      "type": "function"
    },
    {
      "inputs": [
        {
          "internalType": "uint256",
          "name": "tokenId",
          "type": "uint256"
        }
      ],
      "name": "ownerOf",
      "outputs": [
        {
          "internalType": "address",
          "name": "",
          "type": "address"
        }
      ],
      "stateMutability": "view",
      "type": "function"
    },
    {
      "inputs": [
        {
          "internalType": "string",
          "name": "_name",
          "type": "string"
        },
        {
          "internalType": "string",
          "name": "_symbol",
          "type": "string"
        }
      ],
      "name": "postConstruct",
      "outputs": [],
      "stateMutability": "nonpayable",
      "type": "function"
    },
    {
      "inputs": [
        {
          "internalType": "address",
          "name": "_contract",
          "type": "address"
        },
        {
          "internalType": "address",
          "name": "_to",
          "type": "address"
        },
        {
          "internalType": "uint256",
          "name": "_value",
          "type": "uint256"
        }
      ],
      "name": "rescueErc20",
      "outputs": [],
      "stateMutability": "nonpayable",
      "type": "function"
    },
    {
      "inputs": [
        {
          "internalType": "address",
          "name": "_to",
          "type": "address"
        },
        {
          "internalType": "uint256",
          "name": "_tokenId",
          "type": "uint256"
        },
        {
          "internalType": "bytes",
          "name": "_data",
          "type": "bytes"
        }
      ],
      "name": "safeMint",
      "outputs": [],
      "stateMutability": "nonpayable",
      "type": "function"
    },
    {
      "inputs": [
        {
          "internalType": "address",
          "name": "_to",
          "type": "address"
        },
        {
          "internalType": "uint256",
          "name": "_tokenId",
          "type": "uint256"
        }
      ],
      "name": "safeMint",
      "outputs": [],
      "stateMutability": "nonpayable",
      "type": "function"
    },
    {
      "inputs": [
        {
          "internalType": "address",
          "name": "from",
          "type": "address"
        },
        {
          "internalType": "address",
          "name": "to",
          "type": "address"
        },
        {
          "internalType": "uint256",
          "name": "tokenId",
          "type": "uint256"
        }
      ],
      "name": "safeTransferFrom",
      "outputs": [],
      "stateMutability": "nonpayable",
      "type": "function"
    },
    {
      "inputs": [
        {
          "internalType": "address",
          "name": "from",
          "type": "address"
        },
        {
          "internalType": "address",
          "name": "to",
          "type": "address"
        },
        {
          "internalType": "uint256",
          "name": "tokenId",
          "type": "uint256"
        },
        {
          "internalType": "bytes",
          "name": "_data",
          "type": "bytes"
        }
      ],
      "name": "safeTransferFrom",
      "outputs": [],
      "stateMutability": "nonpayable",
      "type": "function"
    },
    {
      "inputs": [
        {
          "internalType": "address",
          "name": "operator",
          "type": "address"
        },
        {
          "internalType": "bool",
          "name": "approved",
          "type": "bool"
        }
      ],
      "name": "setApprovalForAll",
      "outputs": [],
      "stateMutability": "nonpayable",
      "type": "function"
    },
    {
      "inputs": [
        {
          "internalType": "string",
          "name": "__baseURI",
          "type": "string"
        }
      ],
      "name": "setBaseURI",
      "outputs": [],
      "stateMutability": "nonpayable",
      "type": "function"
    },
    {
      "inputs": [
        {
          "internalType": "uint256",
          "name": "_tokenId",
          "type": "uint256"
        },
        {
          "internalType": "string",
          "name": "_tokenURI",
          "type": "string"
        }
      ],
      "name": "setTokenURI",
      "outputs": [],
      "stateMutability": "nonpayable",
      "type": "function"
    },
    {
      "inputs": [
        {
          "internalType": "bytes4",
          "name": "interfaceId",
          "type": "bytes4"
        }
      ],
      "name": "supportsInterface",
      "outputs": [
        {
          "internalType": "bool",
          "name": "",
          "type": "bool"
        }
      ],
      "stateMutability": "view",
      "type": "function"
    },
    {
      "inputs": [],
      "name": "symbol",
      "outputs": [
        {
          "internalType": "string",
          "name": "",
          "type": "string"
        }
      ],
      "stateMutability": "view",
      "type": "function"
    },
    {
      "inputs": [
        {
          "internalType": "uint256",
          "name": "index",
          "type": "uint256"
        }
      ],
      "name": "tokenByIndex",
      "outputs": [
        {
          "internalType": "uint256",
          "name": "",
          "type": "uint256"
        }
      ],
      "stateMutability": "view",
      "type": "function"
    },
    {
      "inputs": [
        {
          "internalType": "address",
          "name": "owner",
          "type": "address"
        },
        {
          "internalType": "uint256",
          "name": "index",
          "type": "uint256"
        }
      ],
      "name": "tokenOfOwnerByIndex",
      "outputs": [
        {
          "internalType": "uint256",
          "name": "",
          "type": "uint256"
        }
      ],
      "stateMutability": "view",
      "type": "function"
    },
    {
      "inputs": [
        {
          "internalType": "uint256",
          "name": "_tokenId",
          "type": "uint256"
        }
      ],
      "name": "tokenURI",
      "outputs": [
        {
          "internalType": "string",
          "name": "",
          "type": "string"
        }
      ],
      "stateMutability": "view",
      "type": "function"
    },
    {
      "inputs": [],
      "name": "totalSupply",
      "outputs": [
        {
          "internalType": "uint256",
          "name": "",
          "type": "uint256"
        }
      ],
      "stateMutability": "view",
      "type": "function"
    },
    {
      "inputs": [
        {
          "internalType": "address",
          "name": "from",
          "type": "address"
        },
        {
          "internalType": "address",
          "name": "to",
          "type": "address"
        },
        {
          "internalType": "uint256",
          "name": "tokenId",
          "type": "uint256"
        }
      ],
      "name": "transferFrom",
      "outputs": [],
      "stateMutability": "nonpayable",
      "type": "function"
    },
    {
      "inputs": [
        {
          "internalType": "uint256",
          "name": "_mask",
          "type": "uint256"
        }
      ],
      "name": "updateFeatures",
      "outputs": [],
      "stateMutability": "nonpayable",
      "type": "function"
    },
    {
      "inputs": [
        {
          "internalType": "address",
          "name": "operator",
          "type": "address"
        },
        {
          "internalType": "uint256",
          "name": "role",
          "type": "uint256"
        }
      ],
      "name": "updateRole",
      "outputs": [],
      "stateMutability": "nonpayable",
      "type": "function"
    },
    {
      "inputs": [
        {
          "internalType": "address",
          "name": "newImplementation",
          "type": "address"
        }
      ],
      "name": "upgradeTo",
      "outputs": [],
      "stateMutability": "nonpayable",
      "type": "function"
    },
    {
      "inputs": [
        {
          "internalType": "address",
          "name": "newImplementation",
          "type": "address"
        },
        {
          "internalType": "bytes",
          "name": "data",
          "type": "bytes"
        }
      ],
      "name": "upgradeToAndCall",
      "outputs": [],
      "stateMutability": "payable",
      "type": "function"
    },
    {
      "inputs": [
        {
          "internalType": "address",
          "name": "",
          "type": "address"
        }
      ],
      "name": "userRoles",
      "outputs": [
        {
          "internalType": "uint256",
          "name": "",
          "type": "uint256"
        }
      ],
      "stateMutability": "view",
      "type": "function"
    }
  ],
  "transactionHash": "0x3575f91758301a5d06acf81e7598991c8d00e52602011a31c2aa55634722e9fe",
  "args": [],
  "numDeployments": 1,
  "solcInputHash": "83a8c8bc4b72f86fe9be8bd88dcc5e23",
  "bytecode": "0x60a06040523060805234801561001457600080fd5b5060805161342e61004560003960008181610cdb01528181610d1b01528181610dd20152610e12015261342e6000f3fe6080604052600436106102885760003560e01c806370a082311161015a578063ae60bda4116100c1578063d5bb7f671161007a578063d5bb7f6714610789578063e62cac76146107a9578063e985e9c5146107c0578063f63c2f82146107e0578063f822d5aa146107f5578063fcc2c0781461081557600080fd5b8063ae60bda4146106e4578063ae682e2e146106fc578063b88d4fde14610714578063c0d6568d14610734578063c688d69314610749578063c87b56dd1461076957600080fd5b80638f6fba8c116101135780638f6fba8c1461064557806395d89b411461065a578063a14481941461066f578063a22cb4651461068f578063aaf10f42146106af578063ae5b102e146106c457600080fd5b806370a0823114610580578063725f3626146105a057806374d5e100146105c05780638832e6e3146105ee5780638a2b96081461060e5780638d4e57e61461062e57600080fd5b80632d17f8bc116101fe5780634f1ef286116101b75780634f1ef286146104d85780634f558e79146104eb5780634f6ccce71461050b57806355f804b31461052b5780636352211e1461054b5780636c0360eb1461056b57600080fd5b80632d17f8bc146104215780632f745c59146104385780633659cfe61461045857806340c10f191461047857806342842e0e1461049857806342966c68146104b857600080fd5b8063162094c411610250578063162094c41461036a57806318160ddd1461038a5780631a0b04ea146103a957806323b872dd146103be578063243feb99146103de5780632b521416146103fe57600080fd5b806301ffc9a71461028d57806306fdde03146102c2578063081812fc146102e4578063095ea7b31461031c57806314b7b4e11461033e575b600080fd5b34801561029957600080fd5b506102ad6102a8366004612acb565b610835565b60405190151581526020015b60405180910390f35b3480156102ce57600080fd5b506102d761087c565b6040516102b99190612b40565b3480156102f057600080fd5b506103046102ff366004612b53565b61090e565b6040516001600160a01b0390911681526020016102b9565b34801561032857600080fd5b5061033c610337366004612b88565b61099b565b005b34801561034a57600080fd5b506103556204000081565b60405163ffffffff90911681526020016102b9565b34801561037657600080fd5b5061033c610385366004612c55565b610ab1565b34801561039657600080fd5b506099545b6040519081526020016102b9565b3480156103b557600080fd5b50610355600881565b3480156103ca57600080fd5b5061033c6103d9366004612c9c565b610b2a565b3480156103ea57600080fd5b5061033c6103f9366004612c9c565b610b5b565b34801561040a57600080fd5b5030600090815261015f602052604090205461039b565b34801561042d57600080fd5b506103556208000081565b34801561044457600080fd5b5061039b610453366004612b88565b610c3a565b34801561046457600080fd5b5061033c610473366004612cd8565b610cd0565b34801561048457600080fd5b5061033c610493366004612b88565b610d99565b3480156104a457600080fd5b5061033c6104b3366004612c9c565b610da3565b3480156104c457600080fd5b5061033c6104d3366004612b53565b610dbe565b61033c6104e6366004612cf3565b610dc7565b3480156104f757600080fd5b506102ad610506366004612b53565b610e7d565b34801561051757600080fd5b5061039b610526366004612b53565b610e88565b34801561053757600080fd5b5061033c610546366004612d2b565b610f1b565b34801561055757600080fd5b50610304610566366004612b53565b610f9c565b34801561057757600080fd5b506102d7611013565b34801561058c57600080fd5b5061039b61059b366004612cd8565b6110a2565b3480156105ac57600080fd5b506102ad6105bb366004612b53565b611129565b3480156105cc57600080fd5b5061039b6105db366004612cd8565b61015f6020526000908152604090205481565b3480156105fa57600080fd5b5061033c610609366004612d60565b611143565b34801561061a57600080fd5b5061033c610629366004612db7565b61114e565b34801561063a57600080fd5b506103556201000081565b34801561065157600080fd5b50610355600281565b34801561066657600080fd5b506102d76111cc565b34801561067b57600080fd5b5061033c61068a366004612b88565b6111db565b34801561069b57600080fd5b5061033c6106aa366004612e1f565b6111e5565b3480156106bb57600080fd5b506103046111f0565b3480156106d057600080fd5b5061033c6106df366004612b88565b6111ff565b3480156106f057600080fd5b5061039b600160fe1b81565b34801561070857600080fd5b5061039b600160ff1b81565b34801561072057600080fd5b5061033c61072f366004612e56565b6112b4565b34801561074057600080fd5b50610355600181565b34801561075557600080fd5b506102ad610764366004612b88565b6112ec565b34801561077557600080fd5b506102d7610784366004612b53565b611312565b34801561079557600080fd5b5061033c6107a4366004612b53565b61131d565b3480156107b557600080fd5b506103556202000081565b3480156107cc57600080fd5b506102ad6107db366004612ebe565b611327565b3480156107ec57600080fd5b50610355601081565b34801561080157600080fd5b5061039b610810366004612ef1565b611355565b34801561082157600080fd5b506102ad610830366004612b53565b611381565b60006108408261138d565b8061085b57506001600160e01b031982166326e2e61760e01b145b8061087657506001600160e01b03198216630852cd8d60e31b145b92915050565b60606065805461088b90612f24565b80601f01602080910402602001604051908101604052809291908181526020018280546108b790612f24565b80156109045780601f106108d957610100808354040283529160200191610904565b820191906000526020600020905b8154815290600101906020018083116108e757829003601f168201915b5050505050905090565b6000610919826113b2565b61097f5760405162461bcd60e51b815260206004820152602c60248201527f4552433732313a20617070726f76656420717565727920666f72206e6f6e657860448201526b34b9ba32b73a103a37b5b2b760a11b60648201526084015b60405180910390fd5b506000908152606960205260409020546001600160a01b031690565b60006109a682610f9c565b9050806001600160a01b0316836001600160a01b03161415610a145760405162461bcd60e51b815260206004820152602160248201527f4552433732313a20617070726f76616c20746f2063757272656e74206f776e656044820152603960f91b6064820152608401610976565b336001600160a01b0382161480610a305750610a308133611327565b610aa25760405162461bcd60e51b815260206004820152603860248201527f4552433732313a20617070726f76652063616c6c6572206973206e6f74206f7760448201527f6e6572206e6f7220617070726f76656420666f7220616c6c00000000000000006064820152608401610976565b610aac83836113cf565b505050565b610abd62040000611381565b610ad95760405162461bcd60e51b815260040161097690612f5f565b336001600160a01b03167f7989fff0ffb34805e8b3574b890ed6157f85a384c69b9a0c04991b24cabb82598383604051610b14929190612f86565b60405180910390a2610b26828261143d565b5050565b610b343382611447565b610b505760405162461bcd60e51b815260040161097690612fbe565b610aac838383611511565b610b6762080000611381565b610b835760405162461bcd60e51b815260040161097690612f5f565b60405163a9059cbb60e01b81526001600160a01b0383811660048301526024820183905284169063a9059cbb906044016020604051808303816000875af1158015610bd2573d6000803e3d6000fd5b505050506040513d601f19601f82011682018060405250810190610bf6919061300f565b610aac5760405162461bcd60e51b8152602060048201526015602482015274115490cc8c081d1c985b9cd9995c8819985a5b1959605a1b6044820152606401610976565b6000610c45836110a2565b8210610ca75760405162461bcd60e51b815260206004820152602b60248201527f455243373231456e756d657261626c653a206f776e657220696e646578206f7560448201526a74206f6620626f756e647360a81b6064820152608401610976565b506001600160a01b03919091166000908152609760209081526040808320938352929052205490565b306001600160a01b037f0000000000000000000000000000000000000000000000000000000000000000161415610d195760405162461bcd60e51b81526004016109769061302c565b7f00000000000000000000000000000000000000000000000000000000000000006001600160a01b0316610d4b6116bc565b6001600160a01b031614610d715760405162461bcd60e51b815260040161097690613078565b610d7a816116ea565b60408051600080825260208201909252610d9691839190611713565b50565b610b26828261185e565b610aac838383604051806020016040528060008152506112b4565b610d9681611890565b306001600160a01b037f0000000000000000000000000000000000000000000000000000000000000000161415610e105760405162461bcd60e51b81526004016109769061302c565b7f00000000000000000000000000000000000000000000000000000000000000006001600160a01b0316610e426116bc565b6001600160a01b031614610e685760405162461bcd60e51b815260040161097690613078565b610e71826116ea565b610b2682826001611713565b6000610876826113b2565b6000610e9360995490565b8210610ef65760405162461bcd60e51b815260206004820152602c60248201527f455243373231456e756d657261626c653a20676c6f62616c20696e646578206f60448201526b7574206f6620626f756e647360a01b6064820152608401610976565b60998281548110610f0957610f096130c4565b90600052602060002001549050919050565b610f2762040000611381565b610f435760405162461bcd60e51b815260040161097690612f5f565b336001600160a01b03167fac455070f26733cc10c09e4389a74bf73bdb676d730ee31215c31d20daa8800561019183604051610f809291906130da565b60405180910390a28051610b26906101919060208401906129e6565b6000818152606760205260408120546001600160a01b0316806108765760405162461bcd60e51b815260206004820152602960248201527f4552433732313a206f776e657220717565727920666f72206e6f6e657869737460448201526832b73a103a37b5b2b760b91b6064820152608401610976565b610191805461102190612f24565b80601f016020809104026020016040519081016040528092919081815260200182805461104d90612f24565b801561109a5780601f1061106f5761010080835404028352916020019161109a565b820191906000526020600020905b81548152906001019060200180831161107d57829003601f168201915b505050505081565b60006001600160a01b03821661110d5760405162461bcd60e51b815260206004820152602a60248201527f4552433732313a2062616c616e636520717565727920666f7220746865207a65604482015269726f206164647265737360b01b6064820152608401610976565b506001600160a01b031660009081526068602052604090205490565b30600090815261015f602052604081205482168214610876565b610aac8383836119e9565b600054610100900460ff166111695760005460ff161561116d565b303b155b6111895760405162461bcd60e51b81526004016109769061318d565b600054610100900460ff161580156111ab576000805461ffff19166101011790555b6111b6838333611a1c565b8015610aac576000805461ff0019169055505050565b60606066805461088b90612f24565b610b268282611ab3565b610b26338383611acd565b60006111fa6116bc565b905090565b61120c600160ff1b611381565b6112285760405162461bcd60e51b815260040161097690612f5f565b6001600160a01b038216600090815261015f602052604090205461124e90339083611355565b6001600160a01b038316600081815261015f60205260409081902083905551909133917f5a10526456f5116c0b7b80582c217d666243fd51b6a2d92c8011e601c2462e5f916112a891869190918252602082015260400190565b60405180910390a35050565b6112be3383611447565b6112da5760405162461bcd60e51b815260040161097690612fbe565b6112e684848484611b9c565b50505050565b6001600160a01b038216600090815261015f6020526040812054821682145b9392505050565b606061087682611bcf565b610d9630826111ff565b6001600160a01b039182166000908152606a6020908152604080832093909416825291909152205460ff1690565b6001600160a01b0392909216600090815261015f60205260409020546000198084188216189216171690565b600061087633836112ec565b60006001600160e01b0319821663780e9d6360e01b1480610876575061087682611d31565b6000908152606760205260409020546001600160a01b0316151590565b600081815260696020526040902080546001600160a01b0319166001600160a01b038416908117909155819061140482610f9c565b6001600160a01b03167f8c5be1e5ebec7d5bd14f71427d1e84f3dd0314c0f7b2291e5b200ac8c7c3b92560405160405180910390a45050565b610b268282611d81565b6000611452826113b2565b6114b35760405162461bcd60e51b815260206004820152602c60248201527f4552433732313a206f70657261746f7220717565727920666f72206e6f6e657860448201526b34b9ba32b73a103a37b5b2b760a11b6064820152608401610976565b60006114be83610f9c565b9050806001600160a01b0316846001600160a01b031614806114f95750836001600160a01b03166114ee8461090e565b6001600160a01b0316145b8061150957506115098185611327565b949350505050565b826001600160a01b031661152482610f9c565b6001600160a01b03161461158c5760405162461bcd60e51b815260206004820152602960248201527f4552433732313a207472616e73666572206f6620746f6b656e2074686174206960448201526839903737ba1037bbb760b91b6064820152608401610976565b6001600160a01b0382166115ee5760405162461bcd60e51b8152602060048201526024808201527f4552433732313a207472616e7366657220746f20746865207a65726f206164646044820152637265737360e01b6064820152608401610976565b6115f9838383611e0c565b6116046000826113cf565b6001600160a01b038316600090815260686020526040812080546001929061162d9084906131f1565b90915550506001600160a01b038216600090815260686020526040812080546001929061165b908490613208565b909155505060008181526067602052604080822080546001600160a01b0319166001600160a01b0386811691821790925591518493918716917fddf252ad1be2c89b69c2b068fc378daa952ba7f163c4a11628f55a4df523b3ef91a4505050565b7f360894a13ba1a3210667c828492db98dca3e2076cc3735a920a3ca505d382bbc546001600160a01b031690565b6116f7600160fe1b611381565b610d965760405162461bcd60e51b815260040161097690612f5f565b600061171d6116bc565b905061172884611f15565b6000835111806117355750815b15611746576117448484611fba565b505b7f4910fdfa16fed3260ed0e7147f7cc6da11a60208b5b9406d12a635614ffd9143805460ff1661185757805460ff191660011781556040516001600160a01b03831660248201526117c590869060440160408051601f198184030181529190526020810180516001600160e01b0316631b2ce7f360e11b179052611fba565b50805460ff191681556117d66116bc565b6001600160a01b0316826001600160a01b03161461184e5760405162461bcd60e51b815260206004820152602f60248201527f45524331393637557067726164653a207570677261646520627265616b73206660448201526e75727468657220757067726164657360881b6064820152608401610976565b611857856120a5565b5050505050565b61186a62010000611381565b6118865760405162461bcd60e51b815260040161097690612f5f565b610b2682826120e5565b600061189b82610f9c565b90506118a962020000611381565b6119e0576001600160a01b038116331480156118ca57506118ca6008611129565b806118ee57506001600160a01b03811633148015906118ee57506118ee6010611129565b6001600160a01b0382163314611939576040518060400160405280601c81526020017f6275726e73206f6e20626568616c66206172652064697361626c656400000000815250611965565b60405180604001604052806012815260200171189d5c9b9cc8185c9948191a5cd8589b195960721b8152505b906119835760405162461bcd60e51b81526004016109769190612b40565b50336001600160a01b03821614806119b4575061199f8261090e565b6001600160a01b0316336001600160a01b0316145b806119c457506119c48133611327565b6119e05760405162461bcd60e51b815260040161097690612f5f565b610b2682612224565b6119f3838361185e565b611a006000848484612264565b610aac5760405162461bcd60e51b815260040161097690613220565b600054610100900460ff16611a375760005460ff1615611a3b565b303b155b611a575760405162461bcd60e51b81526004016109769061318d565b600054610100900460ff16158015611a79576000805461ffff19166101011790555b611a838484612362565b611a8b6123a3565b611a936123a3565b611a9c826123cc565b80156112e6576000805461ff001916905550505050565b610b268282604051806020016040528060008152506119e9565b816001600160a01b0316836001600160a01b03161415611b2f5760405162461bcd60e51b815260206004820152601960248201527f4552433732313a20617070726f766520746f2063616c6c6572000000000000006044820152606401610976565b6001600160a01b038381166000818152606a6020908152604080832094871680845294825291829020805460ff191686151590811790915591519182527f17307eab39ab6107e8899845ad3d59bd9653f200f220920489ca2b5937696c31910160405180910390a3505050565b611ba7848484611511565b611bb384848484612264565b6112e65760405162461bcd60e51b815260040161097690613220565b6060611bda826113b2565b611c405760405162461bcd60e51b815260206004820152603160248201527f45524337323155524953746f726167653a2055524920717565727920666f72206044820152703737b732bc34b9ba32b73a103a37b5b2b760791b6064820152608401610976565b600082815260c9602052604081208054611c5990612f24565b80601f0160208091040260200160405190810160405280929190818152602001828054611c8590612f24565b8015611cd25780601f10611ca757610100808354040283529160200191611cd2565b820191906000526020600020905b815481529060010190602001808311611cb557829003601f168201915b505050505090506000611ce3612498565b9050805160001415611cf6575092915050565b815115611d28578082604051602001611d10929190613272565b60405160208183030381529060405292505050919050565b611509846124a8565b60006001600160e01b031982166380ac58cd60e01b1480611d6257506001600160e01b03198216635b5e139f60e01b145b8061087657506301ffc9a760e01b6001600160e01b0319831614610876565b611d8a826113b2565b611ded5760405162461bcd60e51b815260206004820152602e60248201527f45524337323155524953746f726167653a2055524920736574206f66206e6f6e60448201526d32bc34b9ba32b73a103a37b5b2b760911b6064820152608401610976565b600082815260c9602090815260409091208251610aac928401906129e6565b6001600160a01b0383161580611e2957506001600160a01b038216155b80611e4c57506001600160a01b03831633148015611e4c5750611e4c6001611129565b80611e7057506001600160a01b0383163314801590611e705750611e706002611129565b6001600160a01b0384163314611ebb576040518060400160405280602081526020017f7472616e7366657273206f6e20626568616c66206172652064697361626c6564815250611eeb565b604051806040016040528060168152602001751d1c985b9cd9995c9cc8185c9948191a5cd8589b195960521b8152505b90611f095760405162461bcd60e51b81526004016109769190612b40565b50610aac838383612572565b803b611f795760405162461bcd60e51b815260206004820152602d60248201527f455243313936373a206e657720696d706c656d656e746174696f6e206973206e60448201526c1bdd08184818dbdb9d1c9858dd609a1b6064820152608401610976565b7f360894a13ba1a3210667c828492db98dca3e2076cc3735a920a3ca505d382bbc80546001600160a01b0319166001600160a01b0392909216919091179055565b6060823b6120195760405162461bcd60e51b815260206004820152602660248201527f416464726573733a2064656c65676174652063616c6c20746f206e6f6e2d636f6044820152651b9d1c9858dd60d21b6064820152608401610976565b600080846001600160a01b03168460405161203491906132a1565b600060405180830381855af49150503d806000811461206f576040519150601f19603f3d011682016040523d82523d6000602084013e612074565b606091505b509150915061209c82826040518060600160405280602781526020016133d26027913961262a565b95945050505050565b6120ae81611f15565b6040516001600160a01b038216907fbc7cd75a20ee27fd9adebab32041f755214dbc6bffa90cc0225b39da2e5c2d3b90600090a250565b6001600160a01b03821661213b5760405162461bcd60e51b815260206004820181905260248201527f4552433732313a206d696e7420746f20746865207a65726f20616464726573736044820152606401610976565b612144816113b2565b156121915760405162461bcd60e51b815260206004820152601c60248201527f4552433732313a20746f6b656e20616c7265616479206d696e746564000000006044820152606401610976565b61219d60008383611e0c565b6001600160a01b03821660009081526068602052604081208054600192906121c6908490613208565b909155505060008181526067602052604080822080546001600160a01b0319166001600160a01b03861690811790915590518392907fddf252ad1be2c89b69c2b068fc378daa952ba7f163c4a11628f55a4df523b3ef908290a45050565b61222d81612663565b600081815260c960205260409020805461224690612f24565b159050610d9657600081815260c960205260408120610d9691612a6a565b60006001600160a01b0384163b1561235757604051630a85bd0160e11b81526001600160a01b0385169063150b7a02906122a89033908990889088906004016132bd565b6020604051808303816000875af19250505080156122e3575060408051601f3d908101601f191682019092526122e0918101906132fa565b60015b61233d573d808015612311576040519150601f19603f3d011682016040523d82523d6000602084013e612316565b606091505b5080516123355760405162461bcd60e51b815260040161097690613220565b805181602001fd5b6001600160e01b031916630a85bd0160e11b149050611509565b506001949350505050565b600054610100900460ff166123895760405162461bcd60e51b815260040161097690613317565b6123916123a3565b6123996123a3565b610b26828261270a565b600054610100900460ff166123ca5760405162461bcd60e51b815260040161097690613317565b565b600054610100900460ff166123e75760005460ff16156123eb565b303b155b6124075760405162461bcd60e51b81526004016109769061318d565b600054610100900460ff16158015612429576000805461ffff19166101011790555b6001600160a01b038216600081815261015f60209081526040918290206000199081905582518181529182015233917f5a10526456f5116c0b7b80582c217d666243fd51b6a2d92c8011e601c2462e5f910160405180910390a38015610b26576000805461ff00191690555050565b6060610191805461088b90612f24565b60606124b3826113b2565b6125175760405162461bcd60e51b815260206004820152602f60248201527f4552433732314d657461646174613a2055524920717565727920666f72206e6f60448201526e3732bc34b9ba32b73a103a37b5b2b760891b6064820152608401610976565b6000612521612498565b90506000815111612541576040518060200160405280600081525061130b565b8061254b84612758565b60405160200161255c929190613272565b6040516020818303038152906040529392505050565b6001600160a01b0383166125cd576125c881609980546000838152609a60205260408120829055600182018355919091527f72a152ddfb8e864297c917af52ea6c1c68aead0fee1a62673fcc7e0c94979d000155565b6125f0565b816001600160a01b0316836001600160a01b0316146125f0576125f08382612856565b6001600160a01b03821661260757610aac816128f3565b826001600160a01b0316826001600160a01b031614610aac57610aac82826129a2565b6060831561263957508161130b565b8251156126495782518084602001fd5b8160405162461bcd60e51b81526004016109769190612b40565b600061266e82610f9c565b905061267c81600084611e0c565b6126876000836113cf565b6001600160a01b03811660009081526068602052604081208054600192906126b09084906131f1565b909155505060008281526067602052604080822080546001600160a01b0319169055518391906001600160a01b038416907fddf252ad1be2c89b69c2b068fc378daa952ba7f163c4a11628f55a4df523b3ef908390a45050565b600054610100900460ff166127315760405162461bcd60e51b815260040161097690613317565b81516127449060659060208501906129e6565b508051610aac9060669060208401906129e6565b60608161277c5750506040805180820190915260018152600360fc1b602082015290565b8160005b81156127a6578061279081613362565b915061279f9050600a83613393565b9150612780565b60008167ffffffffffffffff8111156127c1576127c1612bb2565b6040519080825280601f01601f1916602001820160405280156127eb576020820181803683370190505b5090505b8415611509576128006001836131f1565b915061280d600a866133a7565b612818906030613208565b60f81b81838151811061282d5761282d6130c4565b60200101906001600160f81b031916908160001a90535061284f600a86613393565b94506127ef565b60006001612863846110a2565b61286d91906131f1565b6000838152609860205260409020549091508082146128c0576001600160a01b03841660009081526097602090815260408083208584528252808320548484528184208190558352609890915290208190555b5060009182526098602090815260408084208490556001600160a01b039094168352609781528383209183525290812055565b609954600090612905906001906131f1565b6000838152609a60205260408120546099805493945090928490811061292d5761292d6130c4565b90600052602060002001549050806099838154811061294e5761294e6130c4565b6000918252602080832090910192909255828152609a90915260408082208490558582528120556099805480612986576129866133bb565b6001900381819060005260206000200160009055905550505050565b60006129ad836110a2565b6001600160a01b039093166000908152609760209081526040808320868452825280832085905593825260989052919091209190915550565b8280546129f290612f24565b90600052602060002090601f016020900481019282612a145760008555612a5a565b82601f10612a2d57805160ff1916838001178555612a5a565b82800160010185558215612a5a579182015b82811115612a5a578251825591602001919060010190612a3f565b50612a66929150612aa0565b5090565b508054612a7690612f24565b6000825580601f10612a86575050565b601f016020900490600052602060002090810190610d9691905b5b80821115612a665760008155600101612aa1565b6001600160e01b031981168114610d9657600080fd5b600060208284031215612add57600080fd5b813561130b81612ab5565b60005b83811015612b03578181015183820152602001612aeb565b838111156112e65750506000910152565b60008151808452612b2c816020860160208601612ae8565b601f01601f19169290920160200192915050565b60208152600061130b6020830184612b14565b600060208284031215612b6557600080fd5b5035919050565b80356001600160a01b0381168114612b8357600080fd5b919050565b60008060408385031215612b9b57600080fd5b612ba483612b6c565b946020939093013593505050565b634e487b7160e01b600052604160045260246000fd5b600082601f830112612bd957600080fd5b813567ffffffffffffffff80821115612bf457612bf4612bb2565b604051601f8301601f19908116603f01168101908282118183101715612c1c57612c1c612bb2565b81604052838152866020858801011115612c3557600080fd5b836020870160208301376000602085830101528094505050505092915050565b60008060408385031215612c6857600080fd5b82359150602083013567ffffffffffffffff811115612c8657600080fd5b612c9285828601612bc8565b9150509250929050565b600080600060608486031215612cb157600080fd5b612cba84612b6c565b9250612cc860208501612b6c565b9150604084013590509250925092565b600060208284031215612cea57600080fd5b61130b82612b6c565b60008060408385031215612d0657600080fd5b612d0f83612b6c565b9150602083013567ffffffffffffffff811115612c8657600080fd5b600060208284031215612d3d57600080fd5b813567ffffffffffffffff811115612d5457600080fd5b61150984828501612bc8565b600080600060608486031215612d7557600080fd5b612d7e84612b6c565b925060208401359150604084013567ffffffffffffffff811115612da157600080fd5b612dad86828701612bc8565b9150509250925092565b60008060408385031215612dca57600080fd5b823567ffffffffffffffff80821115612de257600080fd5b612dee86838701612bc8565b93506020850135915080821115612e0457600080fd5b50612c9285828601612bc8565b8015158114610d9657600080fd5b60008060408385031215612e3257600080fd5b612e3b83612b6c565b91506020830135612e4b81612e11565b809150509250929050565b60008060008060808587031215612e6c57600080fd5b612e7585612b6c565b9350612e8360208601612b6c565b925060408501359150606085013567ffffffffffffffff811115612ea657600080fd5b612eb287828801612bc8565b91505092959194509250565b60008060408385031215612ed157600080fd5b612eda83612b6c565b9150612ee860208401612b6c565b90509250929050565b600080600060608486031215612f0657600080fd5b612f0f84612b6c565b95602085013595506040909401359392505050565b600181811c90821680612f3857607f821691505b60208210811415612f5957634e487b7160e01b600052602260045260246000fd5b50919050565b6020808252600d908201526c1858d8d95cdcc819195b9a5959609a1b604082015260600190565b8281526060602082015260086060820152673d32b83832b634b760c11b608082015260a06040820152600061150960a0830184612b14565b60208082526031908201527f4552433732313a207472616e736665722063616c6c6572206973206e6f74206f6040820152701ddb995c881b9bdc88185c1c1c9bdd9959607a1b606082015260800190565b60006020828403121561302157600080fd5b815161130b81612e11565b6020808252602c908201527f46756e6374696f6e206d7573742062652063616c6c6564207468726f7567682060408201526b19195b1959d85d1958d85b1b60a21b606082015260800190565b6020808252602c908201527f46756e6374696f6e206d7573742062652063616c6c6564207468726f7567682060408201526b6163746976652070726f787960a01b606082015260800190565b634e487b7160e01b600052603260045260246000fd5b60408152600080845481600182811c9150808316806130fa57607f831692505b602080841082141561311a57634e487b7160e01b86526022600452602486fd5b6040880184905260608801828015613139576001811461314a57613175565b60ff19871682528282019750613175565b60008c81526020902060005b8781101561316f57815484820152908601908401613156565b83019850505b505087860381890152505050505061209c8185612b14565b6020808252602e908201527f496e697469616c697a61626c653a20636f6e747261637420697320616c72656160408201526d191e481a5b9a5d1a585b1a5e995960921b606082015260800190565b634e487b7160e01b600052601160045260246000fd5b600082821015613203576132036131db565b500390565b6000821982111561321b5761321b6131db565b500190565b60208082526032908201527f4552433732313a207472616e7366657220746f206e6f6e20455243373231526560408201527131b2b4bb32b91034b6b83632b6b2b73a32b960711b606082015260800190565b60008351613284818460208801612ae8565b835190830190613298818360208801612ae8565b01949350505050565b600082516132b3818460208701612ae8565b9190910192915050565b6001600160a01b03858116825284166020820152604081018390526080606082018190526000906132f090830184612b14565b9695505050505050565b60006020828403121561330c57600080fd5b815161130b81612ab5565b6020808252602b908201527f496e697469616c697a61626c653a20636f6e7472616374206973206e6f74206960408201526a6e697469616c697a696e6760a81b606082015260800190565b6000600019821415613376576133766131db565b5060010190565b634e487b7160e01b600052601260045260246000fd5b6000826133a2576133a261337d565b500490565b6000826133b6576133b661337d565b500690565b634e487b7160e01b600052603160045260246000fdfe416464726573733a206c6f772d6c6576656c2064656c65676174652063616c6c206661696c6564a26469706673582212200a503de395d00d01449bc44764aa04cd59a2af2145bb8f1f4d5173a981de2f7b64736f6c634300080b0033",
  "devdoc": {
    "author": "Basil Gorin",
    "kind": "dev",
    "methods": {
      "approve(address,uint256)": {
        "details": "See {IERC721-approve}."
      },
      "balanceOf(address)": {
        "details": "See {IERC721-balanceOf}."
      },
      "burn(uint256)": {
        "details": "Destroys the token with token ID specifiedRequires executor to have `ROLE_TOKEN_DESTROYER` permission      or FEATURE_OWN_BURNS/FEATURE_BURNS_ON_BEHALF features to be enabledCan be disabled by the contract creator forever by disabling      FEATURE_OWN_BURNS/FEATURE_BURNS_ON_BEHALF features and then revoking      its own roles to burn tokens and to enable burning features",
        "params": {
          "_tokenId": "ID of the token to burn"
        }
      },
      "evaluateBy(address,uint256,uint256)": {
        "details": "Calculated based on:      1) operator's own permission set read from userRoles[operator]      2) target permission set - what is already set on the target      3) desired permission set - what do we want set target toCorner cases:      1) Operator is super admin and its permission set is `FULL_PRIVILEGES_MASK`:        `desired` bitset is returned regardless of the `target` permission set value        (what operator sets is what they get)      2) Operator with no permissions (zero bitset):        `target` bitset is returned regardless of the `desired` value        (operator has no authority and cannot modify anything)Example:      Consider an operator with the permissions bitmask     00001111      is about to modify the target permission set          01010101      Operator wants to set that permission set to          00110011      Based on their role, an operator has the permissions      to update only lowest 4 bits on the target, meaning that      high 4 bits of the target set in this example is left      unchanged and low 4 bits get changed as desired:      01010011",
        "params": {
          "desired": "desired set of permissions operator would like to set",
          "operator": "address of the contract operator which is about to set the permissions",
          "target": "input set of permissions to operator is going to modify"
        },
        "returns": {
          "_0": "resulting set of permissions given operator will set"
        }
      },
      "exists(uint256)": {
        "details": "Returns whether the specified token ID has an ownership      information associated with it",
        "params": {
          "_tokenId": "ID of the token to query existence for"
        },
        "returns": {
          "_0": "whether the token exists (true - exists, false - doesn't exist)"
        }
      },
      "features()": {
        "details": "Effectively reads userRoles role for the contract itself",
        "returns": {
          "_0": "256-bit bitmask of the features enabled"
        }
      },
      "getApproved(uint256)": {
        "details": "See {IERC721-getApproved}."
      },
      "getImplementation()": {
        "returns": {
          "_0": "the current implementation address"
        }
      },
      "isApprovedForAll(address,address)": {
        "details": "See {IERC721-isApprovedForAll}."
      },
      "isFeatureEnabled(uint256)": {
        "params": {
          "required": "set of features to check against"
        },
        "returns": {
          "_0": "true if all the features requested are enabled, false otherwise"
        }
      },
      "isOperatorInRole(address,uint256)": {
        "params": {
          "operator": "address of the user to check role for",
          "required": "set of permissions (role) to check"
        },
        "returns": {
          "_0": "true if all the permissions requested are enabled, false otherwise"
        }
      },
      "isSenderInRole(uint256)": {
        "params": {
          "required": "set of permissions (role) to check against"
        },
        "returns": {
          "_0": "true if all the permissions requested are enabled, false otherwise"
        }
      },
      "mint(address,uint256)": {
        "details": "Creates new token with token ID specified      and assigns an ownership `_to` for this tokenUnsafe: doesn't execute `onERC721Received` on the receiver.      Prefer the use of `saveMint` instead of `mint`.Requires executor to have `ROLE_TOKEN_CREATOR` permission",
        "params": {
          "_to": "an address to mint token to",
          "_tokenId": "ID of the token to mint"
        }
      },
      "name()": {
        "details": "See {IERC721Metadata-name}."
      },
      "ownerOf(uint256)": {
        "details": "See {IERC721-ownerOf}."
      },
      "postConstruct(string,string)": {
        "details": "\"Constructor replacement\" for upgradeable, must be execute immediately after deployment      see https://docs.openzeppelin.com/upgrades-plugins/1.x/writing-upgradeable#initializers",
        "params": {
          "_name": "token name (ERC721Metadata)",
          "_symbol": "token symbol (ERC721Metadata)"
        }
      },
      "rescueErc20(address,address,uint256)": {
        "details": "Restricted access function to rescue accidentally sent ERC20 tokens,      the tokens are rescued via `transfer` function call on the      contract address specified and with the parameters specified:      `_contract.transfer(_to, _value)`Requires executor to have `ROLE_RESCUE_MANAGER` permission",
        "params": {
          "_contract": "smart contract address to execute `transfer` function on",
          "_to": "to address in `transfer(_to, _value)`",
          "_value": "value to transfer in `transfer(_to, _value)`"
        }
      },
      "safeMint(address,uint256)": {
        "details": "Creates new token with token ID specified      and assigns an ownership `_to` for this tokenChecks if `_to` is a smart contract (code size > 0). If so, it calls      `onERC721Received` on `_to` and throws if the return value is not      `bytes4(keccak256(\"onERC721Received(address,address,uint256,bytes)\"))`.Requires executor to have `ROLE_TOKEN_CREATOR` permission",
        "params": {
          "_to": "an address to mint token to",
          "_tokenId": "ID of the token to mint"
        }
      },
      "safeMint(address,uint256,bytes)": {
        "details": "Creates new token with token ID specified      and assigns an ownership `_to` for this tokenChecks if `_to` is a smart contract (code size > 0). If so, it calls      `onERC721Received` on `_to` and throws if the return value is not      `bytes4(keccak256(\"onERC721Received(address,address,uint256,bytes)\"))`.Requires executor to have `ROLE_TOKEN_CREATOR` permission",
        "params": {
          "_data": "additional data with no specified format, sent in call to `_to`",
          "_to": "an address to mint token to",
          "_tokenId": "ID of the token to mint"
        }
      },
      "safeTransferFrom(address,address,uint256)": {
        "details": "See {IERC721-safeTransferFrom}."
      },
      "safeTransferFrom(address,address,uint256,bytes)": {
        "details": "See {IERC721-safeTransferFrom}."
      },
      "setApprovalForAll(address,bool)": {
        "details": "See {IERC721-setApprovalForAll}."
      },
      "setBaseURI(string)": {
        "details": "Restricted access function which updates base URI used to construct      ERC721Metadata.tokenURIRequires executor to have ROLE_URI_MANAGER permission",
        "params": {
          "__baseURI": "new base URI to set"
        }
      },
      "setTokenURI(uint256,string)": {
        "details": "Sets the token URI for the token defined by its ID",
        "params": {
          "_tokenId": "an ID of the token to set URI for",
          "_tokenURI": "token URI to set"
        }
      },
      "supportsInterface(bytes4)": {
        "details": "Returns true if this contract implements the interface defined by `interfaceId`. See the corresponding https://eips.ethereum.org/EIPS/eip-165#how-interfaces-are-identified[EIP section] to learn more about how these ids are created. This function call must use less than 30 000 gas."
      },
      "symbol()": {
        "details": "See {IERC721Metadata-symbol}."
      },
      "tokenByIndex(uint256)": {
        "details": "See {IERC721Enumerable-tokenByIndex}."
      },
      "tokenOfOwnerByIndex(address,uint256)": {
        "details": "See {IERC721Enumerable-tokenOfOwnerByIndex}."
      },
      "tokenURI(uint256)": {
        "details": "See {IERC721Metadata-tokenURI}."
      },
      "totalSupply()": {
        "details": "See {IERC721Enumerable-totalSupply}."
      },
      "transferFrom(address,address,uint256)": {
        "details": "See {IERC721-transferFrom}."
      },
      "updateFeatures(uint256)": {
        "details": "Requires transaction sender to have `ROLE_ACCESS_MANAGER` permissionFunction is left for backward compatibility with older versions",
        "params": {
          "_mask": "bitmask representing a set of features to enable/disable"
        }
      },
      "updateRole(address,uint256)": {
        "details": "Setting role to zero is equivalent to removing an all permissionsSetting role to `FULL_PRIVILEGES_MASK` is equivalent to      copying senders' permissions (role) to the userRequires transaction sender to have `ROLE_ACCESS_MANAGER` permission",
        "params": {
          "operator": "address of a user to alter permissions for or zero      to alter global features of the smart contract",
          "role": "bitmask representing a set of permissions to      enable/disable for a user specified"
        }
      },
      "upgradeTo(address)": {
        "details": "Upgrade the implementation of the proxy to `newImplementation`. Calls {_authorizeUpgrade}. Emits an {Upgraded} event."
      },
      "upgradeToAndCall(address,bytes)": {
        "details": "Upgrade the implementation of the proxy to `newImplementation`, and subsequently execute the function call encoded in `data`. Calls {_authorizeUpgrade}. Emits an {Upgraded} event."
      }
    },
    "title": "Zeppelin ERC721 Mock",
    "version": 1
  },
  "userdoc": {
    "kind": "user",
    "methods": {
      "FEATURE_BURNS_ON_BEHALF()": {
        "notice": "Enables approved operators to burn tokens on behalf of their owners"
      },
      "FEATURE_OWN_BURNS()": {
        "notice": "Enables token owners to burn their own tokens"
      },
      "FEATURE_TRANSFERS()": {
        "notice": "Enables ERC721 transfers of the tokens      (transfer by the token owner himself)"
      },
      "FEATURE_TRANSFERS_ON_BEHALF()": {
        "notice": "Enables ERC721 transfers on behalf      (transfer by someone else on behalf of token owner)"
      },
      "ROLE_ACCESS_MANAGER()": {
        "notice": "Access manager is responsible for assigning the roles to users,      enabling/disabling global features of the smart contractAccess manager can add, remove and update user roles,      remove and update global features"
      },
      "ROLE_RESCUE_MANAGER()": {
        "notice": "People do mistakes and may send ERC20 tokens by mistake; since      NFT smart contract is not designed to accept and hold any ERC20 tokens,      it allows the rescue manager to \"rescue\" such lost tokensRescue manager is responsible for \"rescuing\" ERC20 tokens accidentally      sent to the smart contract"
      },
      "ROLE_TOKEN_CREATOR()": {
        "notice": "Token creator is responsible for creating (minting)      tokens to an arbitrary address"
      },
      "ROLE_TOKEN_DESTROYER()": {
        "notice": "Token destroyer is responsible for destroying (burning)      tokens owned by an arbitrary address"
      },
      "ROLE_UPGRADE_MANAGER()": {
        "notice": "Upgrade manager is responsible for smart contract upgrades,      see https://docs.openzeppelin.com/contracts/4.x/api/proxy#UUPSUpgradeable      see https://docs.openzeppelin.com/contracts/4.x/upgradeable"
      },
      "ROLE_URI_MANAGER()": {
        "notice": "URI manager is responsible for managing base URI      part of the token URI ERC721Metadata interface"
      },
      "evaluateBy(address,uint256,uint256)": {
        "notice": "Determines the permission bitmask an operator can set on the      target permission setUsed to calculate the permission bitmask to be set when requested     in `updateRole` and `updateFeatures` functions"
      },
      "exists(uint256)": {
        "notice": "Checks if specified token exists"
      },
      "features()": {
        "notice": "Retrieves globally set of features enabled"
      },
      "getImplementation()": {
        "notice": "Returns an address of the implementation smart contract,      see ERC1967Upgrade._getImplementation()"
      },
      "isFeatureEnabled(uint256)": {
        "notice": "Checks if requested set of features is enabled globally on the contract"
      },
      "isOperatorInRole(address,uint256)": {
        "notice": "Checks if operator has all the permissions (role) required"
      },
      "isSenderInRole(uint256)": {
        "notice": "Checks if transaction sender `msg.sender` has all the permissions required"
      },
      "updateFeatures(uint256)": {
        "notice": "Updates set of the globally enabled features (`features`),      taking into account sender's permissions"
      },
      "updateRole(address,uint256)": {
        "notice": "Updates set of permissions (role) for a given user,      taking into account sender's permissions."
      },
      "userRoles(address)": {
        "notice": "Privileged addresses with defined roles/permissionsIn the context of ERC20/ERC721 tokens these can be permissions to      allow minting or burning tokens, transferring on behalf and so on"
      }
    },
    "notice": "Zeppelin ERC721 Mock simulates an NFT token, used for testing purposes;      it still has restricted access to the mint() function",
    "version": 1
  },
  "storageLayout": {
    "storage": [
      {
        "astId": 414,
        "contract": "contracts/mocks/UpgradeableERC721Mocks.sol:UpgradeableERC721Mock",
        "label": "_initialized",
        "offset": 0,
        "slot": "0",
        "type": "t_bool"
      },
      {
        "astId": 417,
        "contract": "contracts/mocks/UpgradeableERC721Mocks.sol:UpgradeableERC721Mock",
        "label": "_initializing",
        "offset": 1,
        "slot": "0",
        "type": "t_bool"
      },
      {
        "astId": 2455,
        "contract": "contracts/mocks/UpgradeableERC721Mocks.sol:UpgradeableERC721Mock",
        "label": "__gap",
        "offset": 0,
        "slot": "1",
        "type": "t_array(t_uint256)50_storage"
      },
      {
        "astId": 2764,
        "contract": "contracts/mocks/UpgradeableERC721Mocks.sol:UpgradeableERC721Mock",
        "label": "__gap",
        "offset": 0,
        "slot": "51",
        "type": "t_array(t_uint256)50_storage"
      },
      {
        "astId": 621,
        "contract": "contracts/mocks/UpgradeableERC721Mocks.sol:UpgradeableERC721Mock",
        "label": "_name",
        "offset": 0,
        "slot": "101",
        "type": "t_string_storage"
      },
      {
        "astId": 623,
        "contract": "contracts/mocks/UpgradeableERC721Mocks.sol:UpgradeableERC721Mock",
        "label": "_symbol",
        "offset": 0,
        "slot": "102",
        "type": "t_string_storage"
      },
      {
        "astId": 627,
        "contract": "contracts/mocks/UpgradeableERC721Mocks.sol:UpgradeableERC721Mock",
        "label": "_owners",
        "offset": 0,
        "slot": "103",
        "type": "t_mapping(t_uint256,t_address)"
      },
      {
        "astId": 631,
        "contract": "contracts/mocks/UpgradeableERC721Mocks.sol:UpgradeableERC721Mock",
        "label": "_balances",
        "offset": 0,
        "slot": "104",
        "type": "t_mapping(t_address,t_uint256)"
      },
      {
        "astId": 635,
        "contract": "contracts/mocks/UpgradeableERC721Mocks.sol:UpgradeableERC721Mock",
        "label": "_tokenApprovals",
        "offset": 0,
        "slot": "105",
        "type": "t_mapping(t_uint256,t_address)"
      },
      {
        "astId": 641,
        "contract": "contracts/mocks/UpgradeableERC721Mocks.sol:UpgradeableERC721Mock",
        "label": "_operatorApprovals",
        "offset": 0,
        "slot": "106",
        "type": "t_mapping(t_address,t_mapping(t_address,t_bool))"
      },
      {
        "astId": 1452,
        "contract": "contracts/mocks/UpgradeableERC721Mocks.sol:UpgradeableERC721Mock",
        "label": "__gap",
        "offset": 0,
        "slot": "107",
        "type": "t_array(t_uint256)44_storage"
      },
      {
        "astId": 1626,
        "contract": "contracts/mocks/UpgradeableERC721Mocks.sol:UpgradeableERC721Mock",
        "label": "_ownedTokens",
        "offset": 0,
        "slot": "151",
        "type": "t_mapping(t_address,t_mapping(t_uint256,t_uint256))"
      },
      {
        "astId": 1630,
        "contract": "contracts/mocks/UpgradeableERC721Mocks.sol:UpgradeableERC721Mock",
        "label": "_ownedTokensIndex",
        "offset": 0,
        "slot": "152",
        "type": "t_mapping(t_uint256,t_uint256)"
      },
      {
        "astId": 1633,
        "contract": "contracts/mocks/UpgradeableERC721Mocks.sol:UpgradeableERC721Mock",
        "label": "_allTokens",
        "offset": 0,
        "slot": "153",
        "type": "t_array(t_uint256)dyn_storage"
      },
      {
        "astId": 1637,
        "contract": "contracts/mocks/UpgradeableERC721Mocks.sol:UpgradeableERC721Mock",
        "label": "_allTokensIndex",
        "offset": 0,
        "slot": "154",
        "type": "t_mapping(t_uint256,t_uint256)"
      },
      {
        "astId": 1952,
        "contract": "contracts/mocks/UpgradeableERC721Mocks.sol:UpgradeableERC721Mock",
        "label": "__gap",
        "offset": 0,
        "slot": "155",
        "type": "t_array(t_uint256)46_storage"
      },
      {
        "astId": 1990,
        "contract": "contracts/mocks/UpgradeableERC721Mocks.sol:UpgradeableERC721Mock",
        "label": "_tokenURIs",
        "offset": 0,
        "slot": "201",
        "type": "t_mapping(t_uint256,t_string_storage)"
      },
      {
        "astId": 2108,
        "contract": "contracts/mocks/UpgradeableERC721Mocks.sol:UpgradeableERC721Mock",
        "label": "__gap",
        "offset": 0,
        "slot": "202",
        "type": "t_array(t_uint256)49_storage"
      },
      {
        "astId": 396,
        "contract": "contracts/mocks/UpgradeableERC721Mocks.sol:UpgradeableERC721Mock",
        "label": "__gap",
        "offset": 0,
        "slot": "251",
        "type": "t_array(t_uint256)50_storage"
      },
      {
        "astId": 591,
        "contract": "contracts/mocks/UpgradeableERC721Mocks.sol:UpgradeableERC721Mock",
        "label": "__gap",
        "offset": 0,
        "slot": "301",
        "type": "t_array(t_uint256)50_storage"
      },
      {
        "astId": 7996,
        "contract": "contracts/mocks/UpgradeableERC721Mocks.sol:UpgradeableERC721Mock",
        "label": "userRoles",
        "offset": 0,
        "slot": "351",
        "type": "t_mapping(t_address,t_uint256)"
      },
      {
        "astId": 8001,
        "contract": "contracts/mocks/UpgradeableERC721Mocks.sol:UpgradeableERC721Mock",
        "label": "__gap",
        "offset": 0,
        "slot": "352",
        "type": "t_array(t_uint256)49_storage"
      },
      {
        "astId": 7278,
        "contract": "contracts/mocks/UpgradeableERC721Mocks.sol:UpgradeableERC721Mock",
        "label": "baseURI",
        "offset": 0,
        "slot": "401",
        "type": "t_string_storage"
      },
      {
        "astId": 7283,
        "contract": "contracts/mocks/UpgradeableERC721Mocks.sol:UpgradeableERC721Mock",
        "label": "__gap",
        "offset": 0,
        "slot": "402",
        "type": "t_array(t_uint256)49_storage"
      }
    ],
    "types": {
      "t_address": {
        "encoding": "inplace",
        "label": "address",
        "numberOfBytes": "20"
      },
      "t_array(t_uint256)44_storage": {
        "base": "t_uint256",
        "encoding": "inplace",
        "label": "uint256[44]",
        "numberOfBytes": "1408"
      },
      "t_array(t_uint256)46_storage": {
        "base": "t_uint256",
        "encoding": "inplace",
        "label": "uint256[46]",
        "numberOfBytes": "1472"
      },
      "t_array(t_uint256)49_storage": {
        "base": "t_uint256",
        "encoding": "inplace",
        "label": "uint256[49]",
        "numberOfBytes": "1568"
      },
      "t_array(t_uint256)50_storage": {
        "base": "t_uint256",
        "encoding": "inplace",
        "label": "uint256[50]",
        "numberOfBytes": "1600"
      },
      "t_array(t_uint256)dyn_storage": {
        "base": "t_uint256",
        "encoding": "dynamic_array",
        "label": "uint256[]",
        "numberOfBytes": "32"
      },
      "t_bool": {
        "encoding": "inplace",
        "label": "bool",
        "numberOfBytes": "1"
      },
      "t_mapping(t_address,t_bool)": {
        "encoding": "mapping",
        "key": "t_address",
        "label": "mapping(address => bool)",
        "numberOfBytes": "32",
        "value": "t_bool"
      },
      "t_mapping(t_address,t_mapping(t_address,t_bool))": {
        "encoding": "mapping",
        "key": "t_address",
        "label": "mapping(address => mapping(address => bool))",
        "numberOfBytes": "32",
        "value": "t_mapping(t_address,t_bool)"
      },
      "t_mapping(t_address,t_mapping(t_uint256,t_uint256))": {
        "encoding": "mapping",
        "key": "t_address",
        "label": "mapping(address => mapping(uint256 => uint256))",
        "numberOfBytes": "32",
        "value": "t_mapping(t_uint256,t_uint256)"
      },
      "t_mapping(t_address,t_uint256)": {
        "encoding": "mapping",
        "key": "t_address",
        "label": "mapping(address => uint256)",
        "numberOfBytes": "32",
        "value": "t_uint256"
      },
      "t_mapping(t_uint256,t_address)": {
        "encoding": "mapping",
        "key": "t_uint256",
        "label": "mapping(uint256 => address)",
        "numberOfBytes": "32",
        "value": "t_address"
      },
      "t_mapping(t_uint256,t_string_storage)": {
        "encoding": "mapping",
        "key": "t_uint256",
        "label": "mapping(uint256 => string)",
        "numberOfBytes": "32",
        "value": "t_string_storage"
      },
      "t_mapping(t_uint256,t_uint256)": {
        "encoding": "mapping",
        "key": "t_uint256",
        "label": "mapping(uint256 => uint256)",
        "numberOfBytes": "32",
        "value": "t_uint256"
      },
      "t_string_storage": {
        "encoding": "bytes",
        "label": "string",
        "numberOfBytes": "32"
      },
      "t_uint256": {
        "encoding": "inplace",
        "label": "uint256",
        "numberOfBytes": "32"
      }
    }
  }
}