{
  "address": "0xE8D5c5Ed1629E7b6114d5d8Da0899b2278824370",
  "abi": [
    {
      "anonymous": false,
      "inputs": [
        {
          "indexed": false,
          "internalType": "address",
          "name": "previousAdmin",
          "type": "address"
        },
        {
          "indexed": false,
          "internalType": "address",
          "name": "newAdmin",
          "type": "address"
        }
      ],
      "name": "AdminChanged",
      "type": "event"
    },
    {
      "anonymous": false,
      "inputs": [
        {
          "indexed": true,
          "internalType": "address",
          "name": "owner",
          "type": "address"
        },
        {
          "indexed": true,
          "internalType": "address",
          "name": "approved",
          "type": "address"
        },
        {
          "indexed": true,
          "internalType": "uint256",
          "name": "tokenId",
          "type": "uint256"
        }
      ],
      "name": "Approval",
      "type": "event"
    },
    {
      "anonymous": false,
      "inputs": [
        {
          "indexed": true,
          "internalType": "address",
          "name": "owner",
          "type": "address"
        },
        {
          "indexed": true,
          "internalType": "address",
          "name": "operator",
          "type": "address"
        },
        {
          "indexed": false,
          "internalType": "bool",
          "name": "approved",
          "type": "bool"
        }
      ],
      "name": "ApprovalForAll",
      "type": "event"
    },
    {
      "anonymous": false,
      "inputs": [
        {
          "indexed": true,
          "internalType": "address",
          "name": "_by",
          "type": "address"
        },
        {
          "indexed": false,
          "internalType": "string",
          "name": "oldVal",
          "type": "string"
        },
        {
          "indexed": false,
          "internalType": "string",
          "name": "newVal",
          "type": "string"
        }
      ],
      "name": "BaseURIUpdated",
      "type": "event"
    },
    {
      "anonymous": false,
      "inputs": [
        {
          "indexed": false,
          "internalType": "uint256",
          "name": "_fromTokenId",
          "type": "uint256"
        },
        {
          "indexed": false,
          "internalType": "uint256",
          "name": "_toTokenId",
          "type": "uint256"
        }
      ],
      "name": "BatchMetadataUpdate",
      "type": "event"
    },
    {
      "anonymous": false,
      "inputs": [
        {
          "indexed": true,
          "internalType": "address",
          "name": "beacon",
          "type": "address"
        }
      ],
      "name": "BeaconUpgraded",
      "type": "event"
    },
    {
      "anonymous": false,
      "inputs": [
        {
          "indexed": true,
          "internalType": "address",
          "name": "_by",
          "type": "address"
        },
        {
          "indexed": true,
          "internalType": "address",
          "name": "_from",
          "type": "address"
        },
        {
          "indexed": true,
          "internalType": "uint256",
          "name": "_tokenId",
          "type": "uint256"
        }
      ],
      "name": "Burnt",
      "type": "event"
    },
    {
      "anonymous": false,
      "inputs": [
        {
          "indexed": false,
          "internalType": "uint8",
          "name": "version",
          "type": "uint8"
        }
      ],
      "name": "Initialized",
      "type": "event"
    },
    {
      "anonymous": false,
      "inputs": [
        {
          "indexed": false,
          "internalType": "uint256",
          "name": "_tokenId",
          "type": "uint256"
        }
      ],
      "name": "MetadataUpdate",
      "type": "event"
    },
    {
      "anonymous": false,
      "inputs": [
        {
          "indexed": true,
          "internalType": "address",
          "name": "_by",
          "type": "address"
        },
        {
          "indexed": true,
          "internalType": "address",
          "name": "_to",
          "type": "address"
        },
        {
          "indexed": true,
          "internalType": "uint256",
          "name": "_tokenId",
          "type": "uint256"
        }
      ],
      "name": "Minted",
      "type": "event"
    },
    {
      "anonymous": false,
      "inputs": [
        {
          "indexed": true,
          "internalType": "address",
          "name": "_by",
          "type": "address"
        },
        {
          "indexed": true,
          "internalType": "address",
          "name": "_to",
          "type": "address"
        },
        {
          "indexed": false,
          "internalType": "uint256",
          "name": "_requested",
          "type": "uint256"
        },
        {
          "indexed": false,
          "internalType": "uint256",
          "name": "_assigned",
          "type": "uint256"
        }
      ],
      "name": "RoleUpdated",
      "type": "event"
    },
    {
      "anonymous": false,
      "inputs": [
        {
          "indexed": true,
          "internalType": "address",
          "name": "_by",
          "type": "address"
        },
        {
          "indexed": false,
          "internalType": "uint256",
          "name": "tokenId",
          "type": "uint256"
        },
        {
          "indexed": false,
          "internalType": "string",
          "name": "oldVal",
          "type": "string"
        },
        {
          "indexed": false,
          "internalType": "string",
          "name": "newVal",
          "type": "string"
        }
      ],
      "name": "TokenURIUpdated",
      "type": "event"
    },
    {
      "anonymous": false,
      "inputs": [
        {
          "indexed": true,
          "internalType": "address",
          "name": "from",
          "type": "address"
        },
        {
          "indexed": true,
          "internalType": "address",
          "name": "to",
          "type": "address"
        },
        {
          "indexed": true,
          "internalType": "uint256",
          "name": "tokenId",
          "type": "uint256"
        }
      ],
      "name": "Transfer",
      "type": "event"
    },
    {
      "anonymous": false,
      "inputs": [
        {
          "indexed": true,
          "internalType": "address",
          "name": "implementation",
          "type": "address"
        }
      ],
      "name": "Upgraded",
      "type": "event"
    },
    {
      "inputs": [],
      "name": "FEATURE_BURNS_ON_BEHALF",
      "outputs": [
        {
          "internalType": "uint32",
          "name": "",
          "type": "uint32"
        }
      ],
      "stateMutability": "view",
      "type": "function"
    },
    {
      "inputs": [],
      "name": "FEATURE_OWN_BURNS",
      "outputs": [
        {
          "internalType": "uint32",
          "name": "",
          "type": "uint32"
        }
      ],
      "stateMutability": "view",
      "type": "function"
    },
    {
      "inputs": [],
      "name": "FEATURE_TRANSFERS",
      "outputs": [
        {
          "internalType": "uint32",
          "name": "",
          "type": "uint32"
        }
      ],
      "stateMutability": "view",
      "type": "function"
    },
    {
      "inputs": [],
      "name": "FEATURE_TRANSFERS_ON_BEHALF",
      "outputs": [
        {
          "internalType": "uint32",
          "name": "",
          "type": "uint32"
        }
      ],
      "stateMutability": "view",
      "type": "function"
    },
    {
      "inputs": [],
      "name": "ROLE_ACCESS_MANAGER",
      "outputs": [
        {
          "internalType": "uint256",
          "name": "",
          "type": "uint256"
        }
      ],
      "stateMutability": "view",
      "type": "function"
    },
    {
      "inputs": [],
      "name": "ROLE_RESCUE_MANAGER",
      "outputs": [
        {
          "internalType": "uint32",
          "name": "",
          "type": "uint32"
        }
      ],
      "stateMutability": "view",
      "type": "function"
    },
    {
      "inputs": [],
      "name": "ROLE_TOKEN_CREATOR",
      "outputs": [
        {
          "internalType": "uint32",
          "name": "",
          "type": "uint32"
        }
      ],
      "stateMutability": "view",
      "type": "function"
    },
    {
      "inputs": [],
      "name": "ROLE_TOKEN_DESTROYER",
      "outputs": [
        {
          "internalType": "uint32",
          "name": "",
          "type": "uint32"
        }
      ],
      "stateMutability": "view",
      "type": "function"
    },
    {
      "inputs": [],
      "name": "ROLE_UPGRADE_MANAGER",
      "outputs": [
        {
          "internalType": "uint256",
          "name": "",
          "type": "uint256"
        }
      ],
      "stateMutability": "view",
      "type": "function"
    },
    {
      "inputs": [],
      "name": "ROLE_URI_MANAGER",
      "outputs": [
        {
          "internalType": "uint32",
          "name": "",
          "type": "uint32"
        }
      ],
      "stateMutability": "view",
      "type": "function"
    },
    {
      "inputs": [
        {
          "internalType": "address",
          "name": "to",
          "type": "address"
        },
        {
          "internalType": "uint256",
          "name": "tokenId",
          "type": "uint256"
        }
      ],
      "name": "approve",
      "outputs": [],
      "stateMutability": "nonpayable",
      "type": "function"
    },
    {
      "inputs": [
        {
          "internalType": "address",
          "name": "owner",
          "type": "address"
        }
      ],
      "name": "balanceOf",
      "outputs": [
        {
          "internalType": "uint256",
          "name": "",
          "type": "uint256"
        }
      ],
      "stateMutability": "view",
      "type": "function"
    },
    {
      "inputs": [],
      "name": "baseURI",
      "outputs": [
        {
          "internalType": "string",
          "name": "",
          "type": "string"
        }
      ],
      "stateMutability": "view",
      "type": "function"
    },
    {
      "inputs": [
        {
          "internalType": "uint256",
          "name": "_tokenId",
          "type": "uint256"
        }
      ],
      "name": "burn",
      "outputs": [],
      "stateMutability": "nonpayable",
      "type": "function"
    },
    {
      "inputs": [
        {
          "internalType": "address",
          "name": "operator",
          "type": "address"
        },
        {
          "internalType": "uint256",
          "name": "target",
          "type": "uint256"
        },
        {
          "internalType": "uint256",
          "name": "desired",
          "type": "uint256"
        }
      ],
      "name": "evaluateBy",
      "outputs": [
        {
          "internalType": "uint256",
          "name": "",
          "type": "uint256"
        }
      ],
      "stateMutability": "view",
      "type": "function"
    },
    {
      "inputs": [
        {
          "internalType": "uint256",
          "name": "_tokenId",
          "type": "uint256"
        }
      ],
      "name": "exists",
      "outputs": [
        {
          "internalType": "bool",
          "name": "",
          "type": "bool"
        }
      ],
      "stateMutability": "view",
      "type": "function"
    },
    {
      "inputs": [],
      "name": "features",
      "outputs": [
        {
          "internalType": "uint256",
          "name": "",
          "type": "uint256"
        }
      ],
      "stateMutability": "view",
      "type": "function"
    },
    {
      "inputs": [
        {
          "internalType": "uint256",
          "name": "tokenId",
          "type": "uint256"
        }
      ],
      "name": "getApproved",
      "outputs": [
        {
          "internalType": "address",
          "name": "",
          "type": "address"
        }
      ],
      "stateMutability": "view",
      "type": "function"
    },
    {
      "inputs": [],
      "name": "getImplementation",
      "outputs": [
        {
          "internalType": "address",
          "name": "",
          "type": "address"
        }
      ],
      "stateMutability": "view",
      "type": "function"
    },
    {
      "inputs": [],
      "name": "getInitializedVersion",
      "outputs": [
        {
          "internalType": "uint8",
          "name": "",
          "type": "uint8"
        }
      ],
      "stateMutability": "view",
      "type": "function"
    },
    {
      "inputs": [
        {
          "internalType": "address",
          "name": "operator",
          "type": "address"
        }
      ],
      "name": "getRole",
      "outputs": [
        {
          "internalType": "uint256",
          "name": "",
          "type": "uint256"
        }
      ],
      "stateMutability": "view",
      "type": "function"
    },
    {
      "inputs": [
        {
          "internalType": "address",
          "name": "owner",
          "type": "address"
        },
        {
          "internalType": "address",
          "name": "operator",
          "type": "address"
        }
      ],
      "name": "isApprovedForAll",
      "outputs": [
        {
          "internalType": "bool",
          "name": "",
          "type": "bool"
        }
      ],
      "stateMutability": "view",
      "type": "function"
    },
    {
      "inputs": [
        {
          "internalType": "uint256",
          "name": "required",
          "type": "uint256"
        }
      ],
      "name": "isFeatureEnabled",
      "outputs": [
        {
          "internalType": "bool",
          "name": "",
          "type": "bool"
        }
      ],
      "stateMutability": "view",
      "type": "function"
    },
    {
      "inputs": [
        {
          "internalType": "address",
          "name": "operator",
          "type": "address"
        },
        {
          "internalType": "uint256",
          "name": "required",
          "type": "uint256"
        }
      ],
      "name": "isOperatorInRole",
      "outputs": [
        {
          "internalType": "bool",
          "name": "",
          "type": "bool"
        }
      ],
      "stateMutability": "view",
      "type": "function"
    },
    {
      "inputs": [
        {
          "internalType": "uint256",
          "name": "required",
          "type": "uint256"
        }
      ],
      "name": "isSenderInRole",
      "outputs": [
        {
          "internalType": "bool",
          "name": "",
          "type": "bool"
        }
      ],
      "stateMutability": "view",
      "type": "function"
    },
    {
      "inputs": [
        {
          "internalType": "address",
          "name": "_to",
          "type": "address"
        },
        {
          "internalType": "uint256",
          "name": "_tokenId",
          "type": "uint256"
        }
      ],
      "name": "mint",
      "outputs": [],
      "stateMutability": "nonpayable",
      "type": "function"
    },
    {
      "inputs": [],
      "name": "name",
      "outputs": [
        {
          "internalType": "string",
          "name": "",
          "type": "string"
        }
      ],
      "stateMutability": "view",
      "type": "function"
    },
    {
      "inputs": [
        {
          "internalType": "uint256",
          "name": "tokenId",
          "type": "uint256"
        }
      ],
      "name": "ownerOf",
      "outputs": [
        {
          "internalType": "address",
          "name": "",
          "type": "address"
        }
      ],
      "stateMutability": "view",
      "type": "function"
    },
    {
      "inputs": [
        {
          "internalType": "string",
          "name": "_name",
          "type": "string"
        },
        {
          "internalType": "string",
          "name": "_symbol",
          "type": "string"
        }
      ],
      "name": "postConstruct",
      "outputs": [],
      "stateMutability": "nonpayable",
      "type": "function"
    },
    {
      "inputs": [],
      "name": "proxiableUUID",
      "outputs": [
        {
          "internalType": "bytes32",
          "name": "",
          "type": "bytes32"
        }
      ],
      "stateMutability": "view",
      "type": "function"
    },
    {
      "inputs": [
        {
          "internalType": "address",
          "name": "_contract",
          "type": "address"
        },
        {
          "internalType": "address",
          "name": "_to",
          "type": "address"
        },
        {
          "internalType": "uint256",
          "name": "_value",
          "type": "uint256"
        }
      ],
      "name": "rescueErc20",
      "outputs": [],
      "stateMutability": "nonpayable",
      "type": "function"
    },
    {
      "inputs": [
        {
          "internalType": "address",
          "name": "_to",
          "type": "address"
        },
        {
          "internalType": "uint256",
          "name": "_tokenId",
          "type": "uint256"
        },
        {
          "internalType": "bytes",
          "name": "_data",
          "type": "bytes"
        }
      ],
      "name": "safeMint",
      "outputs": [],
      "stateMutability": "nonpayable",
      "type": "function"
    },
    {
      "inputs": [
        {
          "internalType": "address",
          "name": "_to",
          "type": "address"
        },
        {
          "internalType": "uint256",
          "name": "_tokenId",
          "type": "uint256"
        }
      ],
      "name": "safeMint",
      "outputs": [],
      "stateMutability": "nonpayable",
      "type": "function"
    },
    {
      "inputs": [
        {
          "internalType": "address",
          "name": "from",
          "type": "address"
        },
        {
          "internalType": "address",
          "name": "to",
          "type": "address"
        },
        {
          "internalType": "uint256",
          "name": "tokenId",
          "type": "uint256"
        }
      ],
      "name": "safeTransferFrom",
      "outputs": [],
      "stateMutability": "nonpayable",
      "type": "function"
    },
    {
      "inputs": [
        {
          "internalType": "address",
          "name": "from",
          "type": "address"
        },
        {
          "internalType": "address",
          "name": "to",
          "type": "address"
        },
        {
          "internalType": "uint256",
          "name": "tokenId",
          "type": "uint256"
        },
        {
          "internalType": "bytes",
          "name": "data",
          "type": "bytes"
        }
      ],
      "name": "safeTransferFrom",
      "outputs": [],
      "stateMutability": "nonpayable",
      "type": "function"
    },
    {
      "inputs": [
        {
          "internalType": "address",
          "name": "operator",
          "type": "address"
        },
        {
          "internalType": "bool",
          "name": "approved",
          "type": "bool"
        }
      ],
      "name": "setApprovalForAll",
      "outputs": [],
      "stateMutability": "nonpayable",
      "type": "function"
    },
    {
      "inputs": [
        {
          "internalType": "string",
          "name": "__baseURI",
          "type": "string"
        }
      ],
      "name": "setBaseURI",
      "outputs": [],
      "stateMutability": "nonpayable",
      "type": "function"
    },
    {
      "inputs": [
        {
          "internalType": "uint256",
          "name": "_tokenId",
          "type": "uint256"
        },
        {
          "internalType": "string",
          "name": "_tokenURI",
          "type": "string"
        }
      ],
      "name": "setTokenURI",
      "outputs": [],
      "stateMutability": "nonpayable",
      "type": "function"
    },
    {
      "inputs": [
        {
          "internalType": "bytes4",
          "name": "interfaceId",
          "type": "bytes4"
        }
      ],
      "name": "supportsInterface",
      "outputs": [
        {
          "internalType": "bool",
          "name": "",
          "type": "bool"
        }
      ],
      "stateMutability": "view",
      "type": "function"
    },
    {
      "inputs": [],
      "name": "symbol",
      "outputs": [
        {
          "internalType": "string",
          "name": "",
          "type": "string"
        }
      ],
      "stateMutability": "view",
      "type": "function"
    },
    {
      "inputs": [
        {
          "internalType": "uint256",
          "name": "index",
          "type": "uint256"
        }
      ],
      "name": "tokenByIndex",
      "outputs": [
        {
          "internalType": "uint256",
          "name": "",
          "type": "uint256"
        }
      ],
      "stateMutability": "view",
      "type": "function"
    },
    {
      "inputs": [
        {
          "internalType": "address",
          "name": "owner",
          "type": "address"
        },
        {
          "internalType": "uint256",
          "name": "index",
          "type": "uint256"
        }
      ],
      "name": "tokenOfOwnerByIndex",
      "outputs": [
        {
          "internalType": "uint256",
          "name": "",
          "type": "uint256"
        }
      ],
      "stateMutability": "view",
      "type": "function"
    },
    {
      "inputs": [
        {
          "internalType": "uint256",
          "name": "_tokenId",
          "type": "uint256"
        }
      ],
      "name": "tokenURI",
      "outputs": [
        {
          "internalType": "string",
          "name": "",
          "type": "string"
        }
      ],
      "stateMutability": "view",
      "type": "function"
    },
    {
      "inputs": [],
      "name": "totalSupply",
      "outputs": [
        {
          "internalType": "uint256",
          "name": "",
          "type": "uint256"
        }
      ],
      "stateMutability": "view",
      "type": "function"
    },
    {
      "inputs": [
        {
          "internalType": "address",
          "name": "from",
          "type": "address"
        },
        {
          "internalType": "address",
          "name": "to",
          "type": "address"
        },
        {
          "internalType": "uint256",
          "name": "tokenId",
          "type": "uint256"
        }
      ],
      "name": "transferFrom",
      "outputs": [],
      "stateMutability": "nonpayable",
      "type": "function"
    },
    {
      "inputs": [
        {
          "internalType": "uint256",
          "name": "_mask",
          "type": "uint256"
        }
      ],
      "name": "updateFeatures",
      "outputs": [],
      "stateMutability": "nonpayable",
      "type": "function"
    },
    {
      "inputs": [
        {
          "internalType": "address",
          "name": "operator",
          "type": "address"
        },
        {
          "internalType": "uint256",
          "name": "role",
          "type": "uint256"
        }
      ],
      "name": "updateRole",
      "outputs": [],
      "stateMutability": "nonpayable",
      "type": "function"
    },
    {
      "inputs": [
        {
          "internalType": "address",
          "name": "newImplementation",
          "type": "address"
        }
      ],
      "name": "upgradeTo",
      "outputs": [],
      "stateMutability": "nonpayable",
      "type": "function"
    },
    {
      "inputs": [
        {
          "internalType": "address",
          "name": "newImplementation",
          "type": "address"
        },
        {
          "internalType": "bytes",
          "name": "data",
          "type": "bytes"
        }
      ],
      "name": "upgradeToAndCall",
      "outputs": [],
      "stateMutability": "payable",
      "type": "function"
    }
  ],
  "transactionHash": "0xefb01e6cb80b2a7dbe4db41e84da2c4ca51a202fc147458a772677a0c3bca9f2",
  "args": [],
  "numDeployments": 1,
  "solcInputHash": "e7fbd2a67c6b8c7d28904caad765544e",
  "bytecode": "0x60a06040523060601b6080523480156200001857600080fd5b50600054610100900460ff16158080156200003a5750600054600160ff909116105b806200006a575062000057306200014460201b620013b41760201c565b1580156200006a575060005460ff166001145b620000d25760405162461bcd60e51b815260206004820152602e60248201527f496e697469616c697a61626c653a20636f6e747261637420697320616c72656160448201526d191e481a5b9a5d1a585b1a5e995960921b606482015260840160405180910390fd5b6000805460ff191660011790558015620000f6576000805461ff0019166101001790555b80156200013d576000805461ff0019169055604051600181527f7f26b83ff96e1f2b6a682f133852f6798a09c465da95921460cefb38474024989060200160405180910390a15b5062000153565b6001600160a01b03163b151590565b60805160601c6138316200018e60003960008181610c4f01528181610c8f01528181610d4601528181610d860152610ebe01526138316000f3fe6080604052600436106102ae5760003560e01c80636c0360eb11610175578063ae60bda4116100dc578063c87b56dd11610095578063e985e9c51161006f578063e985e9c514610824578063f63c2f8214610844578063f822d5aa14610859578063fcc2c0781461087957600080fd5b8063c87b56dd146107cd578063d5bb7f67146107ed578063e62cac761461080d57600080fd5b8063ae60bda414610726578063ae682e2e1461073e578063b3c6501514610756578063b88d4fde14610778578063c0d6568d14610798578063c688d693146107ad57600080fd5b80638f6fba8c1161012e5780638f6fba8c1461068757806395d89b411461069c578063a1448194146106b1578063a22cb465146106d1578063aaf10f42146106f1578063ae5b102e1461070657600080fd5b80636c0360eb146105db57806370a08231146105f0578063725f3626146106105780638832e6e3146106305780638a2b9608146106505780638d4e57e61461067057600080fd5b80632f745c59116102195780634f1ef286116101d25780634f1ef286146105335780634f558e79146105465780634f6ccce71461056657806352d1902d1461058657806355f804b31461059b5780636352211e146105bb57600080fd5b80632f745c591461045d5780633659cfe61461047d57806340c10f191461049d57806342842e0e146104bd57806342966c68146104dd57806344276733146104fd57600080fd5b806318160ddd1161026b57806318160ddd146103b05780631a0b04ea146103cf57806323b872dd146103e4578063243feb99146104045780632b521416146104245780632d17f8bc1461044657600080fd5b806301ffc9a7146102b357806306fdde03146102e8578063081812fc1461030a578063095ea7b31461034257806314b7b4e114610364578063162094c414610390575b600080fd5b3480156102bf57600080fd5b506102d36102ce3660046131fb565b610899565b60405190151581526020015b60405180910390f35b3480156102f457600080fd5b506102fd6108ef565b6040516102df91906133ae565b34801561031657600080fd5b5061032a6103253660046132bd565b610981565b6040516001600160a01b0390911681526020016102df565b34801561034e57600080fd5b5061036261035d366004613117565b6109a8565b005b34801561037057600080fd5b5061037b6204000081565b60405163ffffffff90911681526020016102df565b34801561039c57600080fd5b506103626103ab3660046132d5565b610ac3565b3480156103bc57600080fd5b506099545b6040519081526020016102df565b3480156103db57600080fd5b5061037b600881565b3480156103f057600080fd5b506103626103ff366004612ff4565b610b3c565b34801561041057600080fd5b5061036261041f366004612ff4565b610b6d565b34801561043057600080fd5b5030600090815260fb60205260409020546103c1565b34801561045257600080fd5b5061037b6208000081565b34801561046957600080fd5b506103c1610478366004613117565b610bae565b34801561048957600080fd5b50610362610498366004612fa8565b610c44565b3480156104a957600080fd5b506103626104b8366004613117565b610d0d565b3480156104c957600080fd5b506103626104d8366004612ff4565b610d17565b3480156104e957600080fd5b506103626104f83660046132bd565b610d32565b34801561050957600080fd5b506103c1610518366004612fa8565b6001600160a01b0316600090815260fb602052604090205490565b6103626105413660046130cb565b610d3b565b34801561055257600080fd5b506102d36105613660046132bd565b610df1565b34801561057257600080fd5b506103c16105813660046132bd565b610e10565b34801561059257600080fd5b506103c1610eb1565b3480156105a757600080fd5b506103626105b6366004613233565b610f64565b3480156105c757600080fd5b5061032a6105d63660046132bd565b610fe5565b3480156105e757600080fd5b506102fd611045565b3480156105fc57600080fd5b506103c161060b366004612fa8565b6110d4565b34801561061c57600080fd5b506102d361062b3660046132bd565b61115a565b34801561063c57600080fd5b5061036261064b366004613140565b611176565b34801561065c57600080fd5b5061036261066b366004613266565b611181565b34801561067c57600080fd5b5061037b6201000081565b34801561069357600080fd5b5061037b600281565b3480156106a857600080fd5b506102fd61124f565b3480156106bd57600080fd5b506103626106cc366004613117565b61125e565b3480156106dd57600080fd5b506103626106ec366004613095565b611268565b3480156106fd57600080fd5b5061032a611273565b34801561071257600080fd5b50610362610721366004613117565b61127d565b34801561073257600080fd5b506103c1600160fe1b81565b34801561074a57600080fd5b506103c1600160ff1b81565b34801561076257600080fd5b5060005460405160ff90911681526020016102df565b34801561078457600080fd5b5061036261079336600461302f565b6112d9565b3480156107a457600080fd5b5061037b600181565b3480156107b957600080fd5b506102d36107c8366004613117565b611311565b3480156107d957600080fd5b506102fd6107e83660046132bd565b61133a565b3480156107f957600080fd5b506103626108083660046132bd565b611345565b34801561081957600080fd5b5061037b6202000081565b34801561083057600080fd5b506102d361083f366004612fc2565b61134f565b34801561085057600080fd5b5061037b601081565b34801561086557600080fd5b506103c1610874366004613195565b61137d565b34801561088557600080fd5b506102d36108943660046132bd565b6113a8565b60006108a4826113c3565b806108b357506108b3826113e8565b806108ce57506001600160e01b031982166326e2e61760e01b145b806108e957506001600160e01b03198216630852cd8d60e31b145b92915050565b6060606580546108fe9061373f565b80601f016020809104026020016040519081016040528092919081815260200182805461092a9061373f565b80156109775780601f1061094c57610100808354040283529160200191610977565b820191906000526020600020905b81548152906001019060200180831161095a57829003601f168201915b5050505050905090565b600061098c8261140d565b506000908152606960205260409020546001600160a01b031690565b60006109b382610fe5565b9050806001600160a01b0316836001600160a01b03161415610a265760405162461bcd60e51b815260206004820152602160248201527f4552433732313a20617070726f76616c20746f2063757272656e74206f776e656044820152603960f91b60648201526084015b60405180910390fd5b336001600160a01b0382161480610a425750610a42813361134f565b610ab45760405162461bcd60e51b815260206004820152603d60248201527f4552433732313a20617070726f76652063616c6c6572206973206e6f7420746f60448201527f6b656e206f776e6572206f7220617070726f76656420666f7220616c6c0000006064820152608401610a1d565b610abe838361146c565b505050565b610acf620400006113a8565b610aeb5760405162461bcd60e51b8152600401610a1d90613646565b336001600160a01b03167f7989fff0ffb34805e8b3574b890ed6157f85a384c69b9a0c04991b24cabb82598383604051610b269291906136b8565b60405180910390a2610b3882826114da565b5050565b610b4633826114e4565b610b625760405162461bcd60e51b8152600401610a1d9061347c565b610abe838383611543565b610b79620800006113a8565b610b955760405162461bcd60e51b8152600401610a1d90613646565b610abe6001600160a01b03841683836116b4565b905090565b6000610bb9836110d4565b8210610c1b5760405162461bcd60e51b815260206004820152602b60248201527f455243373231456e756d657261626c653a206f776e657220696e646578206f7560448201526a74206f6620626f756e647360a81b6064820152608401610a1d565b506001600160a01b03919091166000908152609760209081526040808320938352929052205490565b306001600160a01b037f0000000000000000000000000000000000000000000000000000000000000000161415610c8d5760405162461bcd60e51b8152600401610a1d90613560565b7f00000000000000000000000000000000000000000000000000000000000000006001600160a01b0316610cbf611706565b6001600160a01b031614610ce55760405162461bcd60e51b8152600401610a1d906135ac565b610cee81611722565b60408051600080825260208201909252610d0a9183919061174b565b50565b610b3882826118c5565b610abe838383604051806020016040528060008152506112d9565b610d0a81611933565b306001600160a01b037f0000000000000000000000000000000000000000000000000000000000000000161415610d845760405162461bcd60e51b8152600401610a1d90613560565b7f00000000000000000000000000000000000000000000000000000000000000006001600160a01b0316610db6611706565b6001600160a01b031614610ddc5760405162461bcd60e51b8152600401610a1d906135ac565b610de582611722565b610b388282600161174b565b6000818152606760205260408120546001600160a01b031615156108e9565b6000610e1b60995490565b8210610e7e5760405162461bcd60e51b815260206004820152602c60248201527f455243373231456e756d657261626c653a20676c6f62616c20696e646578206f60448201526b7574206f6620626f756e647360a01b6064820152608401610a1d565b60998281548110610e9f57634e487b7160e01b600052603260045260246000fd5b90600052602060002001549050919050565b6000306001600160a01b037f00000000000000000000000000000000000000000000000000000000000000001614610f515760405162461bcd60e51b815260206004820152603860248201527f555550535570677261646561626c653a206d757374206e6f742062652063616c60448201527f6c6564207468726f7567682064656c656761746563616c6c00000000000000006064820152608401610a1d565b506000805160206137b583398151915290565b610f70620400006113a8565b610f8c5760405162461bcd60e51b8152600401610a1d90613646565b336001600160a01b03167fac455070f26733cc10c09e4389a74bf73bdb676d730ee31215c31d20daa8800561019183604051610fc99291906133c1565b60405180910390a28051610b3890610191906020840190612e36565b6000818152606760205260408120546001600160a01b0316806108e95760405162461bcd60e51b8152602060048201526018602482015277115490cdcc8c4e881a5b9d985b1a59081d1bdad95b88125160421b6044820152606401610a1d565b61019180546110539061373f565b80601f016020809104026020016040519081016040528092919081815260200182805461107f9061373f565b80156110cc5780601f106110a1576101008083540402835291602001916110cc565b820191906000526020600020905b8154815290600101906020018083116110af57829003601f168201915b505050505081565b60006001600160a01b03821661113e5760405162461bcd60e51b815260206004820152602960248201527f4552433732313a2061646472657373207a65726f206973206e6f7420612076616044820152683634b21037bbb732b960b91b6064820152608401610a1d565b506001600160a01b031660009081526068602052604090205490565b30600090815260fb60205260408120546108e9905b8316831490565b610abe838383611ac8565b600054610100900460ff16158080156111a15750600054600160ff909116105b806111bb5750303b1580156111bb575060005460ff166001145b6111d75760405162461bcd60e51b8152600401610a1d906135f8565b6000805460ff1916600117905580156111fa576000805461ff0019166101001790555b611205838333611afb565b8015610abe576000805461ff0019169055604051600181527f7f26b83ff96e1f2b6a682f133852f6798a09c465da95921460cefb38474024989060200160405180910390a1505050565b6060606680546108fe9061373f565b610b388282611be2565b610b38338383611bfc565b6000610ba9611706565b61128a600160ff1b6113a8565b6112a65760405162461bcd60e51b8152600401610a1d90613646565b610b3882826112d4336112ce876001600160a01b0316600090815260fb602052604090205490565b8661137d565b611ccc565b6112e333836114e4565b6112ff5760405162461bcd60e51b8152600401610a1d9061347c565b61130b84848484611d20565b50505050565b6001600160a01b038216600090815260fb60205260408120546113339061116f565b9392505050565b60606108e982611d53565b610d0a308261127d565b6001600160a01b039182166000908152606a6020908152604080832093909416825291909152205460ff1690565b6001600160a01b0392909216600090815260fb60205260409020546000198084188216189216171690565b60006108e93383611311565b6001600160a01b03163b151590565b60006001600160e01b0319821663780e9d6360e01b14806108e957506108e982611e4f565b60006001600160e01b03198216632483248360e11b14806108e957506108e9826113c3565b6000818152606760205260409020546001600160a01b0316610d0a5760405162461bcd60e51b8152602060048201526018602482015277115490cdcc8c4e881a5b9d985b1a59081d1bdad95b88125160421b6044820152606401610a1d565b600081815260696020526040902080546001600160a01b0319166001600160a01b03841690811790915581906114a182610fe5565b6001600160a01b03167f8c5be1e5ebec7d5bd14f71427d1e84f3dd0314c0f7b2291e5b200ac8c7c3b92560405160405180910390a45050565b610b388282611e9f565b6000806114f083610fe5565b9050806001600160a01b0316846001600160a01b031614806115175750611517818561134f565b8061153b5750836001600160a01b031661153084610981565b6001600160a01b0316145b949350505050565b826001600160a01b031661155682610fe5565b6001600160a01b03161461157c5760405162461bcd60e51b8152600401610a1d9061351b565b6001600160a01b0382166115de5760405162461bcd60e51b8152602060048201526024808201527f4552433732313a207472616e7366657220746f20746865207a65726f206164646044820152637265737360e01b6064820152608401610a1d565b6115eb8383836001611f72565b826001600160a01b03166115fe82610fe5565b6001600160a01b0316146116245760405162461bcd60e51b8152600401610a1d9061351b565b600081815260696020908152604080832080546001600160a01b03199081169091556001600160a01b0387811680865260688552838620805460001901905590871680865283862080546001019055868652606790945282852080549092168417909155905184937fddf252ad1be2c89b69c2b068fc378daa952ba7f163c4a11628f55a4df523b3ef91a4505050565b604080516001600160a01b038416602482015260448082018490528251808303909101815260649091019091526020810180516001600160e01b031663a9059cbb60e01b179052610abe90849061207c565b6000805160206137b5833981519152546001600160a01b031690565b61172f600160fe1b6113a8565b610d0a5760405162461bcd60e51b8152600401610a1d90613646565b7f4910fdfa16fed3260ed0e7147f7cc6da11a60208b5b9406d12a635614ffd91435460ff161561177e57610abe83612133565b826001600160a01b03166352d1902d6040518163ffffffff1660e01b815260040160206040518083038186803b1580156117b757600080fd5b505afa9250505080156117e7575060408051601f3d908101601f191682019092526117e4918101906131e3565b60015b61184a5760405162461bcd60e51b815260206004820152602e60248201527f45524331393637557067726164653a206e657720696d706c656d656e7461746960448201526d6f6e206973206e6f74205555505360901b6064820152608401610a1d565b6000805160206137b583398151915281146118b95760405162461bcd60e51b815260206004820152602960248201527f45524331393637557067726164653a20756e737570706f727465642070726f786044820152681a58589b195555525160ba1b6064820152608401610a1d565b50610abe8383836121cf565b6118d1620100006113a8565b6118ed5760405162461bcd60e51b8152600401610a1d90613646565b6118f782826121f4565b60405181906001600160a01b0384169033907f9d228d69b5fdb8d273a2336f8fb8612d039631024ea9bf09c424a9503aa078f090600090a45050565b600061193e82610fe5565b905061194c620200006113a8565b611a83576001600160a01b0381163314801561196d575061196d600861115a565b8061199157506001600160a01b03811633148015906119915750611991601061115a565b6001600160a01b03821633146119dc576040518060400160405280601c81526020017f6275726e73206f6e20626568616c66206172652064697361626c656400000000815250611a08565b60405180604001604052806012815260200171189d5c9b9cc8185c9948191a5cd8589b195960721b8152505b90611a265760405162461bcd60e51b8152600401610a1d91906133ae565b50336001600160a01b0382161480611a575750611a4282610981565b6001600160a01b0316336001600160a01b0316145b80611a675750611a67813361134f565b611a835760405162461bcd60e51b8152600401610a1d90613646565b611a8c8261238d565b60405182906001600160a01b0383169033907fe8a89cc6e5096f9d9f43de82c077c1f4cfe707c0e0c2032176c68813b9ae6a5c90600090a45050565b611ad283836118c5565b611adf60008484846123cd565b610abe5760405162461bcd60e51b8152600401610a1d906134c9565b600054610100900460ff1615808015611b1b5750600054600160ff909116105b80611b355750303b158015611b35575060005460ff166001145b611b515760405162461bcd60e51b8152600401610a1d906135f8565b6000805460ff191660011790558015611b74576000805461ff0019166101001790555b611b7e84846124da565b611b8661250b565b611b8e61250b565b611b9782612534565b801561130b576000805461ff0019169055604051600181527f7f26b83ff96e1f2b6a682f133852f6798a09c465da95921460cefb38474024989060200160405180910390a150505050565b610b38828260405180602001604052806000815250611ac8565b816001600160a01b0316836001600160a01b03161415611c5e5760405162461bcd60e51b815260206004820152601960248201527f4552433732313a20617070726f766520746f2063616c6c6572000000000000006044820152606401610a1d565b6001600160a01b038381166000818152606a6020908152604080832094871680845294825291829020805460ff191686151590811790915591519182527f17307eab39ab6107e8899845ad3d59bd9653f200f220920489ca2b5937696c3191015b60405180910390a3505050565b6001600160a01b038316600081815260fb6020908152604091829020849055815185815290810184905233917f5a10526456f5116c0b7b80582c217d666243fd51b6a2d92c8011e601c2462e5f9101611cbf565b611d2b848484611543565b611d37848484846123cd565b61130b5760405162461bcd60e51b8152600401610a1d906134c9565b6060611d5e8261140d565b600082815260c9602052604081208054611d779061373f565b80601f0160208091040260200160405190810160405280929190818152602001828054611da39061373f565b8015611df05780601f10611dc557610100808354040283529160200191611df0565b820191906000526020600020905b815481529060010190602001808311611dd357829003601f168201915b505050505090506000611e016125fc565b9050805160001415611e14575092915050565b815115611e46578082604051602001611e2e92919061334c565b60405160208183030381529060405292505050919050565b61153b8461260c565b60006001600160e01b031982166380ac58cd60e01b1480611e8057506001600160e01b03198216635b5e139f60e01b145b806108e957506301ffc9a760e01b6001600160e01b03198316146108e9565b6000828152606760205260409020546001600160a01b0316611f1a5760405162461bcd60e51b815260206004820152602e60248201527f45524337323155524953746f726167653a2055524920736574206f66206e6f6e60448201526d32bc34b9ba32b73a103a37b5b2b760911b6064820152608401610a1d565b600082815260c9602090815260409091208251611f3992840190612e36565b506040518281527ff8e1a15aba9398e019f0b49df1a4fde98ee17ae345cb5f6b5e2c27f5033e8ce7906020015b60405180910390a15050565b6001600160a01b0384161580611f8f57506001600160a01b038316155b80611fb257506001600160a01b03841633148015611fb25750611fb2600161115a565b80611fd657506001600160a01b0384163314801590611fd65750611fd6600261115a565b6001600160a01b0385163314612021576040518060400160405280602081526020017f7472616e7366657273206f6e20626568616c66206172652064697361626c6564815250612051565b604051806040016040528060168152602001751d1c985b9cd9995c9cc8185c9948191a5cd8589b195960521b8152505b9061206f5760405162461bcd60e51b8152600401610a1d91906133ae565b5061130b84848484612672565b60006120d1826040518060400160405280601b81526020017f4552433230206c6f772d6c6576656c2063616c6c206661696c65640000000000815250856001600160a01b03166127a69092919063ffffffff16565b805190915015610abe57808060200190518101906120ef91906131c7565b610abe5760405162461bcd60e51b8152602060048201526015602482015274115490cc8c081d1c985b9cd9995c8819985a5b1959605a1b6044820152606401610a1d565b6001600160a01b0381163b6121a05760405162461bcd60e51b815260206004820152602d60248201527f455243313936373a206e657720696d706c656d656e746174696f6e206973206e60448201526c1bdd08184818dbdb9d1c9858dd609a1b6064820152608401610a1d565b6000805160206137b583398151915280546001600160a01b0319166001600160a01b0392909216919091179055565b6121d8836127b5565b6000825111806121e55750805b15610abe5761130b83836127f5565b6001600160a01b03821661224a5760405162461bcd60e51b815260206004820181905260248201527f4552433732313a206d696e7420746f20746865207a65726f20616464726573736044820152606401610a1d565b6000818152606760205260409020546001600160a01b0316156122af5760405162461bcd60e51b815260206004820152601c60248201527f4552433732313a20746f6b656e20616c7265616479206d696e746564000000006044820152606401610a1d565b6122bd600083836001611f72565b6000818152606760205260409020546001600160a01b0316156123225760405162461bcd60e51b815260206004820152601c60248201527f4552433732313a20746f6b656e20616c7265616479206d696e746564000000006044820152606401610a1d565b6001600160a01b038216600081815260686020908152604080832080546001019055848352606790915280822080546001600160a01b0319168417905551839291907fddf252ad1be2c89b69c2b068fc378daa952ba7f163c4a11628f55a4df523b3ef908290a45050565b6123968161281a565b600081815260c96020526040902080546123af9061373f565b159050610d0a57600081815260c960205260408120610d0a91612eba565b60006001600160a01b0384163b156124cf57604051630a85bd0160e11b81526001600160a01b0385169063150b7a029061241190339089908890889060040161337b565b602060405180830381600087803b15801561242b57600080fd5b505af192505050801561245b575060408051601f3d908101601f1916820190925261245891810190613217565b60015b6124b5573d808015612489576040519150601f19603f3d011682016040523d82523d6000602084013e61248e565b606091505b5080516124ad5760405162461bcd60e51b8152600401610a1d906134c9565b805181602001fd5b6001600160e01b031916630a85bd0160e11b14905061153b565b506001949350505050565b600054610100900460ff166125015760405162461bcd60e51b8152600401610a1d9061366d565b610b3882826128bd565b600054610100900460ff166125325760405162461bcd60e51b8152600401610a1d9061366d565b565b600054610100900460ff16158080156125545750600054600160ff909116105b8061256e5750303b15801561256e575060005460ff166001145b61258a5760405162461bcd60e51b8152600401610a1d906135f8565b6000805460ff1916600117905580156125ad576000805461ff0019166101001790555b6125ba8260001980611ccc565b8015610b38576000805461ff0019169055604051600181527f7f26b83ff96e1f2b6a682f133852f6798a09c465da95921460cefb384740249890602001611f66565b606061019180546108fe9061373f565b60606126178261140d565b60006126216125fc565b905060008151116126415760405180602001604052806000815250611333565b8061264b8461290b565b60405160200161265c92919061334c565b6040516020818303038152906040529392505050565b60018111156126e15760405162461bcd60e51b815260206004820152603560248201527f455243373231456e756d657261626c653a20636f6e7365637574697665207472604482015274185b9cd9995c9cc81b9bdd081cdd5c1c1bdc9d1959605a1b6064820152608401610a1d565b816001600160a01b03851661273d5761273881609980546000838152609a60205260408120829055600182018355919091527f72a152ddfb8e864297c917af52ea6c1c68aead0fee1a62673fcc7e0c94979d000155565b612760565b836001600160a01b0316856001600160a01b0316146127605761276085826129b6565b6001600160a01b03841661277c5761277781612a53565b61279f565b846001600160a01b0316846001600160a01b03161461279f5761279f8482612b2c565b5050505050565b606061153b8484600085612b70565b6127be81612133565b6040516001600160a01b038216907fbc7cd75a20ee27fd9adebab32041f755214dbc6bffa90cc0225b39da2e5c2d3b90600090a250565b606061133383836040518060600160405280602781526020016137d560279139612c4b565b600061282582610fe5565b9050612835816000846001611f72565b61283e82610fe5565b600083815260696020908152604080832080546001600160a01b03199081169091556001600160a01b0385168085526068845282852080546000190190558785526067909352818420805490911690555192935084927fddf252ad1be2c89b69c2b068fc378daa952ba7f163c4a11628f55a4df523b3ef908390a45050565b600054610100900460ff166128e45760405162461bcd60e51b8152600401610a1d9061366d565b81516128f7906065906020850190612e36565b508051610abe906066906020840190612e36565b6060600061291883612cc3565b600101905060008167ffffffffffffffff81111561294657634e487b7160e01b600052604160045260246000fd5b6040519080825280601f01601f191660200182016040528015612970576020820181803683370190505b5090508181016020015b600019016f181899199a1a9b1b9c1cb0b131b232b360811b600a86061a8153600a85049450846129a9576129ae565b61297a565b509392505050565b600060016129c3846110d4565b6129cd91906136f0565b600083815260986020526040902054909150808214612a20576001600160a01b03841660009081526097602090815260408083208584528252808320548484528184208190558352609890915290208190555b5060009182526098602090815260408084208490556001600160a01b039094168352609781528383209183525290812055565b609954600090612a65906001906136f0565b6000838152609a602052604081205460998054939450909284908110612a9b57634e487b7160e01b600052603260045260246000fd5b906000526020600020015490508060998381548110612aca57634e487b7160e01b600052603260045260246000fd5b6000918252602080832090910192909255828152609a90915260408082208490558582528120556099805480612b1057634e487b7160e01b600052603160045260246000fd5b6001900381819060005260206000200160009055905550505050565b6000612b37836110d4565b6001600160a01b039093166000908152609760209081526040808320868452825280832085905593825260989052919091209190915550565b606082471015612bd15760405162461bcd60e51b815260206004820152602660248201527f416464726573733a20696e73756666696369656e742062616c616e636520666f6044820152651c8818d85b1b60d21b6064820152608401610a1d565b600080866001600160a01b03168587604051612bed9190613330565b60006040518083038185875af1925050503d8060008114612c2a576040519150601f19603f3d011682016040523d82523d6000602084013e612c2f565b606091505b5091509150612c4087838387612d9b565b979650505050505050565b6060600080856001600160a01b031685604051612c689190613330565b600060405180830381855af49150503d8060008114612ca3576040519150601f19603f3d011682016040523d82523d6000602084013e612ca8565b606091505b5091509150612cb986838387612d9b565b9695505050505050565b60008072184f03e93ff9f4daa797ed6e38ed64bf6a1f0160401b8310612d025772184f03e93ff9f4daa797ed6e38ed64bf6a1f0160401b830492506040015b6d04ee2d6d415b85acef81000000008310612d2e576d04ee2d6d415b85acef8100000000830492506020015b662386f26fc100008310612d4c57662386f26fc10000830492506010015b6305f5e1008310612d64576305f5e100830492506008015b6127108310612d7857612710830492506004015b60648310612d8a576064830492506002015b600a83106108e95760010192915050565b60608315612e07578251612e00576001600160a01b0385163b612e005760405162461bcd60e51b815260206004820152601d60248201527f416464726573733a2063616c6c20746f206e6f6e2d636f6e74726163740000006044820152606401610a1d565b508161153b565b61153b8383815115612e1c5781518083602001fd5b8060405162461bcd60e51b8152600401610a1d91906133ae565b828054612e429061373f565b90600052602060002090601f016020900481019282612e645760008555612eaa565b82601f10612e7d57805160ff1916838001178555612eaa565b82800160010185558215612eaa579182015b82811115612eaa578251825591602001919060010190612e8f565b50612eb6929150612ef0565b5090565b508054612ec69061373f565b6000825580601f10612ed6575050565b601f016020900490600052602060002090810190610d0a91905b5b80821115612eb65760008155600101612ef1565b80356001600160a01b0381168114612f1c57600080fd5b919050565b600082601f830112612f31578081fd5b813567ffffffffffffffff80821115612f4c57612f4c61377a565b604051601f8301601f19908116603f01168101908282118183101715612f7457612f7461377a565b81604052838152866020858801011115612f8c578485fd5b8360208701602083013792830160200193909352509392505050565b600060208284031215612fb9578081fd5b61133382612f05565b60008060408385031215612fd4578081fd5b612fdd83612f05565b9150612feb60208401612f05565b90509250929050565b600080600060608486031215613008578081fd5b61301184612f05565b925061301f60208501612f05565b9150604084013590509250925092565b60008060008060808587031215613044578081fd5b61304d85612f05565b935061305b60208601612f05565b925060408501359150606085013567ffffffffffffffff81111561307d578182fd5b61308987828801612f21565b91505092959194509250565b600080604083850312156130a7578182fd5b6130b083612f05565b915060208301356130c081613790565b809150509250929050565b600080604083850312156130dd578182fd5b6130e683612f05565b9150602083013567ffffffffffffffff811115613101578182fd5b61310d85828601612f21565b9150509250929050565b60008060408385031215613129578182fd5b61313283612f05565b946020939093013593505050565b600080600060608486031215613154578283fd5b61315d84612f05565b925060208401359150604084013567ffffffffffffffff81111561317f578182fd5b61318b86828701612f21565b9150509250925092565b6000806000606084860312156131a9578283fd5b6131b284612f05565b95602085013595506040909401359392505050565b6000602082840312156131d8578081fd5b815161133381613790565b6000602082840312156131f4578081fd5b5051919050565b60006020828403121561320c578081fd5b81356113338161379e565b600060208284031215613228578081fd5b81516113338161379e565b600060208284031215613244578081fd5b813567ffffffffffffffff81111561325a578182fd5b61153b84828501612f21565b60008060408385031215613278578182fd5b823567ffffffffffffffff8082111561328f578384fd5b61329b86838701612f21565b935060208501359150808211156132b0578283fd5b5061310d85828601612f21565b6000602082840312156132ce578081fd5b5035919050565b600080604083850312156132e7578182fd5b82359150602083013567ffffffffffffffff811115613101578182fd5b6000815180845261331c816020860160208601613713565b601f01601f19169290920160200192915050565b60008251613342818460208701613713565b9190910192915050565b6000835161335e818460208801613713565b835190830190613372818360208801613713565b01949350505050565b6001600160a01b0385811682528416602082015260408101839052608060608201819052600090612cb990830184613304565b6020815260006113336020830184613304565b60408152600080845482600182811c9150808316806133e157607f831692505b602080841082141561340157634e487b7160e01b87526022600452602487fd5b604088018490526060880182801561342057600181146134315761345b565b60ff1987168252828201975061345b565b60008c815260209020895b878110156134555781548482015290860190840161343c565b83019850505b50508786038189015250505050506134738185613304565b95945050505050565b6020808252602d908201527f4552433732313a2063616c6c6572206973206e6f7420746f6b656e206f776e6560408201526c1c881bdc88185c1c1c9bdd9959609a1b606082015260800190565b60208082526032908201527f4552433732313a207472616e7366657220746f206e6f6e20455243373231526560408201527131b2b4bb32b91034b6b83632b6b2b73a32b960711b606082015260800190565b60208082526025908201527f4552433732313a207472616e736665722066726f6d20696e636f72726563742060408201526437bbb732b960d91b606082015260800190565b6020808252602c908201527f46756e6374696f6e206d7573742062652063616c6c6564207468726f7567682060408201526b19195b1959d85d1958d85b1b60a21b606082015260800190565b6020808252602c908201527f46756e6374696f6e206d7573742062652063616c6c6564207468726f7567682060408201526b6163746976652070726f787960a01b606082015260800190565b6020808252602e908201527f496e697469616c697a61626c653a20636f6e747261637420697320616c72656160408201526d191e481a5b9a5d1a585b1a5e995960921b606082015260800190565b6020808252600d908201526c1858d8d95cdcc819195b9a5959609a1b604082015260600190565b6020808252602b908201527f496e697469616c697a61626c653a20636f6e7472616374206973206e6f74206960408201526a6e697469616c697a696e6760a81b606082015260800190565b8281526060602082015260086060820152673d32b83832b634b760c11b608082015260a06040820152600061153b60a0830184613304565b60008282101561370e57634e487b7160e01b81526011600452602481fd5b500390565b60005b8381101561372e578181015183820152602001613716565b8381111561130b5750506000910152565b600181811c9082168061375357607f821691505b6020821081141561377457634e487b7160e01b600052602260045260246000fd5b50919050565b634e487b7160e01b600052604160045260246000fd5b8015158114610d0a57600080fd5b6001600160e01b031981168114610d0a57600080fdfe360894a13ba1a3210667c828492db98dca3e2076cc3735a920a3ca505d382bbc416464726573733a206c6f772d6c6576656c2064656c65676174652063616c6c206661696c6564a2646970667358221220fc6a59e1f3fd68d2f6bd7719e0bed771ef60878a9c5eaddbd5b2e7162158e87764736f6c63430008040033",
  "devdoc": {
    "author": "Basil Gorin",
    "kind": "dev",
    "methods": {
      "approve(address,uint256)": {
        "details": "See {IERC721-approve}."
      },
      "balanceOf(address)": {
        "details": "See {IERC721-balanceOf}."
      },
      "burn(uint256)": {
        "details": "Destroys the token with token ID specifiedRequires executor to have `ROLE_TOKEN_DESTROYER` permission      or FEATURE_OWN_BURNS/FEATURE_BURNS_ON_BEHALF features to be enabledCan be disabled by the contract creator forever by disabling      FEATURE_OWN_BURNS/FEATURE_BURNS_ON_BEHALF features and then revoking      its own roles to burn tokens and to enable burning features",
        "params": {
          "_tokenId": "ID of the token to burn"
        }
      },
      "evaluateBy(address,uint256,uint256)": {
        "details": "Calculated based on:      1) operator's own permission set read from userRoles[operator]      2) target permission set - what is already set on the target      3) desired permission set - what do we want set target toCorner cases:      1) Operator is super admin and its permission set is `FULL_PRIVILEGES_MASK`:        `desired` bitset is returned regardless of the `target` permission set value        (what operator sets is what they get)      2) Operator with no permissions (zero bitset):        `target` bitset is returned regardless of the `desired` value        (operator has no authority and cannot modify anything)Example:      Consider an operator with the permissions bitmask     00001111      is about to modify the target permission set          01010101      Operator wants to set that permission set to          00110011      Based on their role, an operator has the permissions      to update only lowest 4 bits on the target, meaning that      high 4 bits of the target set in this example is left      unchanged and low 4 bits get changed as desired:      01010011",
        "params": {
          "desired": "desired set of permissions operator would like to set",
          "operator": "address of the contract operator which is about to set the permissions",
          "target": "input set of permissions to operator is going to modify"
        },
        "returns": {
          "_0": "resulting set of permissions given operator will set"
        }
      },
      "exists(uint256)": {
        "details": "Returns whether the specified token ID has an ownership      information associated with it",
        "params": {
          "_tokenId": "ID of the token to query existence for"
        },
        "returns": {
          "_0": "whether the token exists (true - exists, false - doesn't exist)"
        }
      },
      "features()": {
        "details": "Effectively reads userRoles role for the contract itself",
        "returns": {
          "_0": "256-bit bitmask of the features enabled"
        }
      },
      "getApproved(uint256)": {
        "details": "See {IERC721-getApproved}."
      },
      "getImplementation()": {
        "returns": {
          "_0": "the current implementation address"
        }
      },
      "getInitializedVersion()": {
        "details": "Highest version that has been initialized.      Non-zero value means contract was already initialized.see {Initializable}, {reinitializer}.",
        "returns": {
          "_0": "highest version that has been initialized"
        }
      },
      "getRole(address)": {
        "details": "Having a simple getter instead of making the mapping public      allows enforcing the encapsulation of the mapping and protects from      writing to it directly in the inheriting smart contracts",
        "params": {
          "operator": "address of a user to read permissions for,      or self address to read global features of the smart contract"
        }
      },
      "isApprovedForAll(address,address)": {
        "details": "See {IERC721-isApprovedForAll}."
      },
      "isFeatureEnabled(uint256)": {
        "params": {
          "required": "set of features to check against"
        },
        "returns": {
          "_0": "true if all the features requested are enabled, false otherwise"
        }
      },
      "isOperatorInRole(address,uint256)": {
        "params": {
          "operator": "address of the user to check role for",
          "required": "set of permissions (role) to check"
        },
        "returns": {
          "_0": "true if all the permissions requested are enabled, false otherwise"
        }
      },
      "isSenderInRole(uint256)": {
        "params": {
          "required": "set of permissions (role) to check against"
        },
        "returns": {
          "_0": "true if all the permissions requested are enabled, false otherwise"
        }
      },
      "mint(address,uint256)": {
        "details": "Creates new token with token ID specified      and assigns an ownership `_to` for this tokenUnsafe: doesn't execute `onERC721Received` on the receiver.      Prefer the use of `saveMint` instead of `mint`.Requires executor to have `ROLE_TOKEN_CREATOR` permission",
        "params": {
          "_to": "an address to mint token to",
          "_tokenId": "ID of the token to mint"
        }
      },
      "name()": {
        "details": "See {IERC721Metadata-name}."
      },
      "ownerOf(uint256)": {
        "details": "See {IERC721-ownerOf}."
      },
      "postConstruct(string,string)": {
        "details": "\"Constructor replacement\" for upgradeable, must be execute immediately after deployment      see https://docs.openzeppelin.com/upgrades-plugins/1.x/writing-upgradeable#initializers",
        "params": {
          "_name": "token name (ERC721Metadata)",
          "_symbol": "token symbol (ERC721Metadata)"
        }
      },
      "proxiableUUID()": {
        "details": "Implementation of the ERC1822 {proxiableUUID} function. This returns the storage slot used by the implementation. It is used to validate the implementation's compatibility when performing an upgrade. IMPORTANT: A proxy pointing at a proxiable contract should not be considered proxiable itself, because this risks bricking a proxy that upgrades to it, by delegating to itself until out of gas. Thus it is critical that this function revert if invoked through a proxy. This is guaranteed by the `notDelegated` modifier."
      },
      "rescueErc20(address,address,uint256)": {
        "details": "Restricted access function to rescue accidentally sent ERC20 tokens,      the tokens are rescued via `transfer` function call on the      contract address specified and with the parameters specified:      `_contract.transfer(_to, _value)`Requires executor to have `ROLE_RESCUE_MANAGER` permission",
        "params": {
          "_contract": "smart contract address to execute `transfer` function on",
          "_to": "to address in `transfer(_to, _value)`",
          "_value": "value to transfer in `transfer(_to, _value)`"
        }
      },
      "safeMint(address,uint256)": {
        "details": "Creates new token with token ID specified      and assigns an ownership `_to` for this tokenChecks if `_to` is a smart contract (code size > 0). If so, it calls      `onERC721Received` on `_to` and throws if the return value is not      `bytes4(keccak256(\"onERC721Received(address,address,uint256,bytes)\"))`.Requires executor to have `ROLE_TOKEN_CREATOR` permission",
        "params": {
          "_to": "an address to mint token to",
          "_tokenId": "ID of the token to mint"
        }
      },
      "safeMint(address,uint256,bytes)": {
        "details": "Creates new token with token ID specified      and assigns an ownership `_to` for this tokenChecks if `_to` is a smart contract (code size > 0). If so, it calls      `onERC721Received` on `_to` and throws if the return value is not      `bytes4(keccak256(\"onERC721Received(address,address,uint256,bytes)\"))`.Requires executor to have `ROLE_TOKEN_CREATOR` permission",
        "params": {
          "_data": "additional data with no specified format, sent in call to `_to`",
          "_to": "an address to mint token to",
          "_tokenId": "ID of the token to mint"
        }
      },
      "safeTransferFrom(address,address,uint256)": {
        "details": "See {IERC721-safeTransferFrom}."
      },
      "safeTransferFrom(address,address,uint256,bytes)": {
        "details": "See {IERC721-safeTransferFrom}."
      },
      "setApprovalForAll(address,bool)": {
        "details": "See {IERC721-setApprovalForAll}."
      },
      "setBaseURI(string)": {
        "details": "Restricted access function which updates base URI used to construct      ERC721Metadata.tokenURIRequires executor to have ROLE_URI_MANAGER permission",
        "params": {
          "__baseURI": "new base URI to set"
        }
      },
      "setTokenURI(uint256,string)": {
        "details": "Sets the token URI for the token defined by its ID",
        "params": {
          "_tokenId": "an ID of the token to set URI for",
          "_tokenURI": "token URI to set"
        }
      },
      "supportsInterface(bytes4)": {
        "details": "Returns true if this contract implements the interface defined by `interfaceId`. See the corresponding https://eips.ethereum.org/EIPS/eip-165#how-interfaces-are-identified[EIP section] to learn more about how these ids are created. This function call must use less than 30 000 gas."
      },
      "symbol()": {
        "details": "See {IERC721Metadata-symbol}."
      },
      "tokenByIndex(uint256)": {
        "details": "See {IERC721Enumerable-tokenByIndex}."
      },
      "tokenOfOwnerByIndex(address,uint256)": {
        "details": "See {IERC721Enumerable-tokenOfOwnerByIndex}."
      },
      "tokenURI(uint256)": {
        "details": "See {IERC721Metadata-tokenURI}."
      },
      "totalSupply()": {
        "details": "See {IERC721Enumerable-totalSupply}."
      },
      "transferFrom(address,address,uint256)": {
        "details": "See {IERC721-transferFrom}."
      },
      "updateFeatures(uint256)": {
        "details": "Requires transaction sender to have `ROLE_ACCESS_MANAGER` permissionFunction is left for backward compatibility with older versions",
        "params": {
          "_mask": "bitmask representing a set of features to enable/disable"
        }
      },
      "updateRole(address,uint256)": {
        "details": "Setting role to zero is equivalent to removing an all permissionsSetting role to `FULL_PRIVILEGES_MASK` is equivalent to      copying senders' permissions (role) to the userRequires transaction sender to have `ROLE_ACCESS_MANAGER` permission",
        "params": {
          "operator": "address of a user to alter permissions for,       or self address to alter global features of the smart contract",
          "role": "bitmask representing a set of permissions to      enable/disable for a user specified"
        }
      },
      "upgradeTo(address)": {
        "custom:oz-upgrades-unsafe-allow-reachable": "delegatecall",
        "details": "Upgrade the implementation of the proxy to `newImplementation`. Calls {_authorizeUpgrade}. Emits an {Upgraded} event."
      },
      "upgradeToAndCall(address,bytes)": {
        "custom:oz-upgrades-unsafe-allow-reachable": "delegatecall",
        "details": "Upgrade the implementation of the proxy to `newImplementation`, and subsequently execute the function call encoded in `data`. Calls {_authorizeUpgrade}. Emits an {Upgraded} event."
      }
    },
    "title": "Zeppelin ERC721 Mock",
    "version": 1
  },
  "userdoc": {
    "kind": "user",
    "methods": {
      "FEATURE_BURNS_ON_BEHALF()": {
        "notice": "Enables approved operators to burn tokens on behalf of their owners"
      },
      "FEATURE_OWN_BURNS()": {
        "notice": "Enables token owners to burn their own tokens"
      },
      "FEATURE_TRANSFERS()": {
        "notice": "Enables ERC721 transfers of the tokens      (transfer by the token owner himself)"
      },
      "FEATURE_TRANSFERS_ON_BEHALF()": {
        "notice": "Enables ERC721 transfers on behalf      (transfer by someone else on behalf of token owner)"
      },
      "ROLE_ACCESS_MANAGER()": {
        "notice": "Access manager is responsible for assigning the roles to users,      enabling/disabling global features of the smart contractAccess manager can add, remove and update user roles,      remove and update global features"
      },
      "ROLE_RESCUE_MANAGER()": {
        "notice": "People do mistakes and may send ERC20 tokens by mistake; since      NFT smart contract is not designed to accept and hold any ERC20 tokens,      it allows the rescue manager to \"rescue\" such lost tokensRescue manager is responsible for \"rescuing\" ERC20 tokens accidentally      sent to the smart contract"
      },
      "ROLE_TOKEN_CREATOR()": {
        "notice": "Token creator is responsible for creating (minting)      tokens to an arbitrary address"
      },
      "ROLE_TOKEN_DESTROYER()": {
        "notice": "Token destroyer is responsible for destroying (burning)      tokens owned by an arbitrary address"
      },
      "ROLE_UPGRADE_MANAGER()": {
        "notice": "Upgrade manager is responsible for smart contract upgrades,      see https://docs.openzeppelin.com/contracts/4.x/api/proxy#UUPSUpgradeable      see https://docs.openzeppelin.com/contracts/4.x/upgradeable"
      },
      "ROLE_URI_MANAGER()": {
        "notice": "URI manager is responsible for managing base URI      part of the token URI ERC721Metadata interface"
      },
      "evaluateBy(address,uint256,uint256)": {
        "notice": "Determines the permission bitmask an operator can set on the      target permission setUsed to calculate the permission bitmask to be set when requested     in `updateRole` and `updateFeatures` functions"
      },
      "exists(uint256)": {
        "notice": "Checks if specified token exists"
      },
      "features()": {
        "notice": "Retrieves globally set of features enabled"
      },
      "getImplementation()": {
        "notice": "Returns an address of the implementation smart contract,      see ERC1967Upgrade._getImplementation()"
      },
      "getRole(address)": {
        "notice": "Reads the permissions (role) for a given user from the `userRoles` mapping"
      },
      "isFeatureEnabled(uint256)": {
        "notice": "Checks if requested set of features is enabled globally on the contract"
      },
      "isOperatorInRole(address,uint256)": {
        "notice": "Checks if operator has all the permissions (role) required"
      },
      "isSenderInRole(uint256)": {
        "notice": "Checks if transaction sender `msg.sender` has all the permissions required"
      },
      "updateFeatures(uint256)": {
        "notice": "Updates set of the globally enabled features (`features`),      taking into account sender's permissions"
      },
      "updateRole(address,uint256)": {
        "notice": "Updates set of permissions (role) for a given user,      taking into account sender's permissions."
      }
    },
    "notice": "Zeppelin ERC721 Mock simulates an NFT token, used for testing purposes;      it still has restricted access to the mint() function",
    "version": 1
  },
  "storageLayout": {
    "storage": [
      {
        "astId": 399,
        "contract": "contracts/mocks/UpgradeableERC721Mocks.sol:ERC721v1Mock",
        "label": "_initialized",
        "offset": 0,
        "slot": "0",
        "type": "t_uint8"
      },
      {
        "astId": 402,
        "contract": "contracts/mocks/UpgradeableERC721Mocks.sol:ERC721v1Mock",
        "label": "_initializing",
        "offset": 1,
        "slot": "0",
        "type": "t_bool"
      },
      {
        "astId": 2762,
        "contract": "contracts/mocks/UpgradeableERC721Mocks.sol:ERC721v1Mock",
        "label": "__gap",
        "offset": 0,
        "slot": "1",
        "type": "t_array(t_uint256)50_storage"
      },
      {
        "astId": 3145,
        "contract": "contracts/mocks/UpgradeableERC721Mocks.sol:ERC721v1Mock",
        "label": "__gap",
        "offset": 0,
        "slot": "51",
        "type": "t_array(t_uint256)50_storage"
      },
      {
        "astId": 726,
        "contract": "contracts/mocks/UpgradeableERC721Mocks.sol:ERC721v1Mock",
        "label": "_name",
        "offset": 0,
        "slot": "101",
        "type": "t_string_storage"
      },
      {
        "astId": 728,
        "contract": "contracts/mocks/UpgradeableERC721Mocks.sol:ERC721v1Mock",
        "label": "_symbol",
        "offset": 0,
        "slot": "102",
        "type": "t_string_storage"
      },
      {
        "astId": 732,
        "contract": "contracts/mocks/UpgradeableERC721Mocks.sol:ERC721v1Mock",
        "label": "_owners",
        "offset": 0,
        "slot": "103",
        "type": "t_mapping(t_uint256,t_address)"
      },
      {
        "astId": 736,
        "contract": "contracts/mocks/UpgradeableERC721Mocks.sol:ERC721v1Mock",
        "label": "_balances",
        "offset": 0,
        "slot": "104",
        "type": "t_mapping(t_address,t_uint256)"
      },
      {
        "astId": 740,
        "contract": "contracts/mocks/UpgradeableERC721Mocks.sol:ERC721v1Mock",
        "label": "_tokenApprovals",
        "offset": 0,
        "slot": "105",
        "type": "t_mapping(t_uint256,t_address)"
      },
      {
        "astId": 746,
        "contract": "contracts/mocks/UpgradeableERC721Mocks.sol:ERC721v1Mock",
        "label": "_operatorApprovals",
        "offset": 0,
        "slot": "106",
        "type": "t_mapping(t_address,t_mapping(t_address,t_bool))"
      },
      {
        "astId": 1648,
        "contract": "contracts/mocks/UpgradeableERC721Mocks.sol:ERC721v1Mock",
        "label": "__gap",
        "offset": 0,
        "slot": "107",
        "type": "t_array(t_uint256)44_storage"
      },
      {
        "astId": 1813,
        "contract": "contracts/mocks/UpgradeableERC721Mocks.sol:ERC721v1Mock",
        "label": "_ownedTokens",
        "offset": 0,
        "slot": "151",
        "type": "t_mapping(t_address,t_mapping(t_uint256,t_uint256))"
      },
      {
        "astId": 1817,
        "contract": "contracts/mocks/UpgradeableERC721Mocks.sol:ERC721v1Mock",
        "label": "_ownedTokensIndex",
        "offset": 0,
        "slot": "152",
        "type": "t_mapping(t_uint256,t_uint256)"
      },
      {
        "astId": 1820,
        "contract": "contracts/mocks/UpgradeableERC721Mocks.sol:ERC721v1Mock",
        "label": "_allTokens",
        "offset": 0,
        "slot": "153",
        "type": "t_array(t_uint256)dyn_storage"
      },
      {
        "astId": 1824,
        "contract": "contracts/mocks/UpgradeableERC721Mocks.sol:ERC721v1Mock",
        "label": "_allTokensIndex",
        "offset": 0,
        "slot": "154",
        "type": "t_mapping(t_uint256,t_uint256)"
      },
      {
        "astId": 2156,
        "contract": "contracts/mocks/UpgradeableERC721Mocks.sol:ERC721v1Mock",
        "label": "__gap",
        "offset": 0,
        "slot": "155",
        "type": "t_array(t_uint256)46_storage"
      },
      {
        "astId": 2188,
        "contract": "contracts/mocks/UpgradeableERC721Mocks.sol:ERC721v1Mock",
        "label": "_tokenURIs",
        "offset": 0,
        "slot": "201",
        "type": "t_mapping(t_uint256,t_string_storage)"
      },
      {
        "astId": 2332,
        "contract": "contracts/mocks/UpgradeableERC721Mocks.sol:ERC721v1Mock",
        "label": "__gap",
        "offset": 0,
        "slot": "202",
        "type": "t_array(t_uint256)49_storage"
      },
      {
        "astId": 5301,
        "contract": "contracts/mocks/UpgradeableERC721Mocks.sol:ERC721v1Mock",
        "label": "userRoles",
        "offset": 0,
        "slot": "251",
        "type": "t_mapping(t_address,t_uint256)"
      },
      {
        "astId": 5306,
        "contract": "contracts/mocks/UpgradeableERC721Mocks.sol:ERC721v1Mock",
        "label": "__gap",
        "offset": 0,
        "slot": "252",
        "type": "t_array(t_uint256)49_storage"
      },
      {
        "astId": 381,
        "contract": "contracts/mocks/UpgradeableERC721Mocks.sol:ERC721v1Mock",
        "label": "__gap",
        "offset": 0,
        "slot": "301",
        "type": "t_array(t_uint256)50_storage"
      },
      {
        "astId": 696,
        "contract": "contracts/mocks/UpgradeableERC721Mocks.sol:ERC721v1Mock",
        "label": "__gap",
        "offset": 0,
        "slot": "351",
        "type": "t_array(t_uint256)50_storage"
      },
      {
        "astId": 4771,
        "contract": "contracts/mocks/UpgradeableERC721Mocks.sol:ERC721v1Mock",
        "label": "baseURI",
        "offset": 0,
        "slot": "401",
        "type": "t_string_storage"
      },
      {
        "astId": 4776,
        "contract": "contracts/mocks/UpgradeableERC721Mocks.sol:ERC721v1Mock",
        "label": "__gap",
        "offset": 0,
        "slot": "402",
        "type": "t_array(t_uint256)49_storage"
      }
    ],
    "types": {
      "t_address": {
        "encoding": "inplace",
        "label": "address",
        "numberOfBytes": "20"
      },
      "t_array(t_uint256)44_storage": {
        "base": "t_uint256",
        "encoding": "inplace",
        "label": "uint256[44]",
        "numberOfBytes": "1408"
      },
      "t_array(t_uint256)46_storage": {
        "base": "t_uint256",
        "encoding": "inplace",
        "label": "uint256[46]",
        "numberOfBytes": "1472"
      },
      "t_array(t_uint256)49_storage": {
        "base": "t_uint256",
        "encoding": "inplace",
        "label": "uint256[49]",
        "numberOfBytes": "1568"
      },
      "t_array(t_uint256)50_storage": {
        "base": "t_uint256",
        "encoding": "inplace",
        "label": "uint256[50]",
        "numberOfBytes": "1600"
      },
      "t_array(t_uint256)dyn_storage": {
        "base": "t_uint256",
        "encoding": "dynamic_array",
        "label": "uint256[]",
        "numberOfBytes": "32"
      },
      "t_bool": {
        "encoding": "inplace",
        "label": "bool",
        "numberOfBytes": "1"
      },
      "t_mapping(t_address,t_bool)": {
        "encoding": "mapping",
        "key": "t_address",
        "label": "mapping(address => bool)",
        "numberOfBytes": "32",
        "value": "t_bool"
      },
      "t_mapping(t_address,t_mapping(t_address,t_bool))": {
        "encoding": "mapping",
        "key": "t_address",
        "label": "mapping(address => mapping(address => bool))",
        "numberOfBytes": "32",
        "value": "t_mapping(t_address,t_bool)"
      },
      "t_mapping(t_address,t_mapping(t_uint256,t_uint256))": {
        "encoding": "mapping",
        "key": "t_address",
        "label": "mapping(address => mapping(uint256 => uint256))",
        "numberOfBytes": "32",
        "value": "t_mapping(t_uint256,t_uint256)"
      },
      "t_mapping(t_address,t_uint256)": {
        "encoding": "mapping",
        "key": "t_address",
        "label": "mapping(address => uint256)",
        "numberOfBytes": "32",
        "value": "t_uint256"
      },
      "t_mapping(t_uint256,t_address)": {
        "encoding": "mapping",
        "key": "t_uint256",
        "label": "mapping(uint256 => address)",
        "numberOfBytes": "32",
        "value": "t_address"
      },
      "t_mapping(t_uint256,t_string_storage)": {
        "encoding": "mapping",
        "key": "t_uint256",
        "label": "mapping(uint256 => string)",
        "numberOfBytes": "32",
        "value": "t_string_storage"
      },
      "t_mapping(t_uint256,t_uint256)": {
        "encoding": "mapping",
        "key": "t_uint256",
        "label": "mapping(uint256 => uint256)",
        "numberOfBytes": "32",
        "value": "t_uint256"
      },
      "t_string_storage": {
        "encoding": "bytes",
        "label": "string",
        "numberOfBytes": "32"
      },
      "t_uint256": {
        "encoding": "inplace",
        "label": "uint256",
        "numberOfBytes": "32"
      },
      "t_uint8": {
        "encoding": "inplace",
        "label": "uint8",
        "numberOfBytes": "1"
      }
    }
  }
}