{
  "address": "0x29406a29ae9665415ea9077df2227ad8cdc5aeeb",
  "abi": [
    {
      "inputs": [
        {
          "internalType": "string",
          "name": "_name",
          "type": "string"
        },
        {
          "internalType": "string",
          "name": "_symbol",
          "type": "string"
        }
      ],
      "stateMutability": "nonpayable",
      "type": "constructor"
    },
    {
      "anonymous": false,
      "inputs": [
        {
          "indexed": true,
          "internalType": "address",
          "name": "owner",
          "type": "address"
        },
        {
          "indexed": true,
          "internalType": "address",
          "name": "approved",
          "type": "address"
        },
        {
          "indexed": true,
          "internalType": "uint256",
          "name": "tokenId",
          "type": "uint256"
        }
      ],
      "name": "Approval",
      "type": "event"
    },
    {
      "anonymous": false,
      "inputs": [
        {
          "indexed": true,
          "internalType": "address",
          "name": "owner",
          "type": "address"
        },
        {
          "indexed": true,
          "internalType": "address",
          "name": "operator",
          "type": "address"
        },
        {
          "indexed": false,
          "internalType": "bool",
          "name": "approved",
          "type": "bool"
        }
      ],
      "name": "ApprovalForAll",
      "type": "event"
    },
    {
      "anonymous": false,
      "inputs": [
        {
          "indexed": true,
          "internalType": "address",
          "name": "_by",
          "type": "address"
        },
        {
          "indexed": false,
          "internalType": "string",
          "name": "oldVal",
          "type": "string"
        },
        {
          "indexed": false,
          "internalType": "string",
          "name": "newVal",
          "type": "string"
        }
      ],
      "name": "BaseURIUpdated",
      "type": "event"
    },
    {
      "anonymous": false,
      "inputs": [
        {
          "indexed": false,
          "internalType": "uint256",
          "name": "_fromTokenId",
          "type": "uint256"
        },
        {
          "indexed": false,
          "internalType": "uint256",
          "name": "_toTokenId",
          "type": "uint256"
        }
      ],
      "name": "BatchMetadataUpdate",
      "type": "event"
    },
    {
      "anonymous": false,
      "inputs": [
        {
          "indexed": true,
          "internalType": "address",
          "name": "_by",
          "type": "address"
        },
        {
          "indexed": true,
          "internalType": "address",
          "name": "_from",
          "type": "address"
        },
        {
          "indexed": true,
          "internalType": "uint256",
          "name": "_tokenId",
          "type": "uint256"
        }
      ],
      "name": "Burnt",
      "type": "event"
    },
    {
      "anonymous": false,
      "inputs": [
        {
          "indexed": false,
          "internalType": "uint256",
          "name": "_tokenId",
          "type": "uint256"
        }
      ],
      "name": "MetadataUpdate",
      "type": "event"
    },
    {
      "anonymous": false,
      "inputs": [
        {
          "indexed": true,
          "internalType": "address",
          "name": "_by",
          "type": "address"
        },
        {
          "indexed": true,
          "internalType": "address",
          "name": "_to",
          "type": "address"
        },
        {
          "indexed": true,
          "internalType": "uint256",
          "name": "_tokenId",
          "type": "uint256"
        }
      ],
      "name": "Minted",
      "type": "event"
    },
    {
      "anonymous": false,
      "inputs": [
        {
          "indexed": true,
          "internalType": "address",
          "name": "_by",
          "type": "address"
        },
        {
          "indexed": true,
          "internalType": "address",
          "name": "_to",
          "type": "address"
        },
        {
          "indexed": false,
          "internalType": "uint256",
          "name": "_requested",
          "type": "uint256"
        },
        {
          "indexed": false,
          "internalType": "uint256",
          "name": "_assigned",
          "type": "uint256"
        }
      ],
      "name": "RoleUpdated",
      "type": "event"
    },
    {
      "anonymous": false,
      "inputs": [
        {
          "indexed": true,
          "internalType": "address",
          "name": "_by",
          "type": "address"
        },
        {
          "indexed": false,
          "internalType": "uint256",
          "name": "tokenId",
          "type": "uint256"
        },
        {
          "indexed": false,
          "internalType": "string",
          "name": "oldVal",
          "type": "string"
        },
        {
          "indexed": false,
          "internalType": "string",
          "name": "newVal",
          "type": "string"
        }
      ],
      "name": "TokenURIUpdated",
      "type": "event"
    },
    {
      "anonymous": false,
      "inputs": [
        {
          "indexed": true,
          "internalType": "address",
          "name": "from",
          "type": "address"
        },
        {
          "indexed": true,
          "internalType": "address",
          "name": "to",
          "type": "address"
        },
        {
          "indexed": true,
          "internalType": "uint256",
          "name": "tokenId",
          "type": "uint256"
        }
      ],
      "name": "Transfer",
      "type": "event"
    },
    {
      "inputs": [],
      "name": "FEATURE_BURNS_ON_BEHALF",
      "outputs": [
        {
          "internalType": "uint32",
          "name": "",
          "type": "uint32"
        }
      ],
      "stateMutability": "view",
      "type": "function"
    },
    {
      "inputs": [],
      "name": "FEATURE_OWN_BURNS",
      "outputs": [
        {
          "internalType": "uint32",
          "name": "",
          "type": "uint32"
        }
      ],
      "stateMutability": "view",
      "type": "function"
    },
    {
      "inputs": [],
      "name": "FEATURE_TRANSFERS",
      "outputs": [
        {
          "internalType": "uint32",
          "name": "",
          "type": "uint32"
        }
      ],
      "stateMutability": "view",
      "type": "function"
    },
    {
      "inputs": [],
      "name": "FEATURE_TRANSFERS_ON_BEHALF",
      "outputs": [
        {
          "internalType": "uint32",
          "name": "",
          "type": "uint32"
        }
      ],
      "stateMutability": "view",
      "type": "function"
    },
    {
      "inputs": [],
      "name": "ROLE_ACCESS_MANAGER",
      "outputs": [
        {
          "internalType": "uint256",
          "name": "",
          "type": "uint256"
        }
      ],
      "stateMutability": "view",
      "type": "function"
    },
    {
      "inputs": [],
      "name": "ROLE_RESCUE_MANAGER",
      "outputs": [
        {
          "internalType": "uint32",
          "name": "",
          "type": "uint32"
        }
      ],
      "stateMutability": "view",
      "type": "function"
    },
    {
      "inputs": [],
      "name": "ROLE_TOKEN_CREATOR",
      "outputs": [
        {
          "internalType": "uint32",
          "name": "",
          "type": "uint32"
        }
      ],
      "stateMutability": "view",
      "type": "function"
    },
    {
      "inputs": [],
      "name": "ROLE_TOKEN_DESTROYER",
      "outputs": [
        {
          "internalType": "uint32",
          "name": "",
          "type": "uint32"
        }
      ],
      "stateMutability": "view",
      "type": "function"
    },
    {
      "inputs": [],
      "name": "ROLE_URI_MANAGER",
      "outputs": [
        {
          "internalType": "uint32",
          "name": "",
          "type": "uint32"
        }
      ],
      "stateMutability": "view",
      "type": "function"
    },
    {
      "inputs": [
        {
          "internalType": "address",
          "name": "to",
          "type": "address"
        },
        {
          "internalType": "uint256",
          "name": "tokenId",
          "type": "uint256"
        }
      ],
      "name": "approve",
      "outputs": [],
      "stateMutability": "nonpayable",
      "type": "function"
    },
    {
      "inputs": [
        {
          "internalType": "address",
          "name": "owner",
          "type": "address"
        }
      ],
      "name": "balanceOf",
      "outputs": [
        {
          "internalType": "uint256",
          "name": "",
          "type": "uint256"
        }
      ],
      "stateMutability": "view",
      "type": "function"
    },
    {
      "inputs": [],
      "name": "baseURI",
      "outputs": [
        {
          "internalType": "string",
          "name": "",
          "type": "string"
        }
      ],
      "stateMutability": "view",
      "type": "function"
    },
    {
      "inputs": [
        {
          "internalType": "uint256",
          "name": "_tokenId",
          "type": "uint256"
        }
      ],
      "name": "burn",
      "outputs": [],
      "stateMutability": "nonpayable",
      "type": "function"
    },
    {
      "inputs": [
        {
          "internalType": "address",
          "name": "operator",
          "type": "address"
        },
        {
          "internalType": "uint256",
          "name": "target",
          "type": "uint256"
        },
        {
          "internalType": "uint256",
          "name": "desired",
          "type": "uint256"
        }
      ],
      "name": "evaluateBy",
      "outputs": [
        {
          "internalType": "uint256",
          "name": "",
          "type": "uint256"
        }
      ],
      "stateMutability": "view",
      "type": "function"
    },
    {
      "inputs": [
        {
          "internalType": "uint256",
          "name": "_tokenId",
          "type": "uint256"
        }
      ],
      "name": "exists",
      "outputs": [
        {
          "internalType": "bool",
          "name": "",
          "type": "bool"
        }
      ],
      "stateMutability": "view",
      "type": "function"
    },
    {
      "inputs": [],
      "name": "features",
      "outputs": [
        {
          "internalType": "uint256",
          "name": "",
          "type": "uint256"
        }
      ],
      "stateMutability": "view",
      "type": "function"
    },
    {
      "inputs": [
        {
          "internalType": "uint256",
          "name": "tokenId",
          "type": "uint256"
        }
      ],
      "name": "getApproved",
      "outputs": [
        {
          "internalType": "address",
          "name": "",
          "type": "address"
        }
      ],
      "stateMutability": "view",
      "type": "function"
    },
    {
      "inputs": [
        {
          "internalType": "address",
          "name": "operator",
          "type": "address"
        }
      ],
      "name": "getRole",
      "outputs": [
        {
          "internalType": "uint256",
          "name": "",
          "type": "uint256"
        }
      ],
      "stateMutability": "view",
      "type": "function"
    },
    {
      "inputs": [
        {
          "internalType": "address",
          "name": "owner",
          "type": "address"
        },
        {
          "internalType": "address",
          "name": "operator",
          "type": "address"
        }
      ],
      "name": "isApprovedForAll",
      "outputs": [
        {
          "internalType": "bool",
          "name": "",
          "type": "bool"
        }
      ],
      "stateMutability": "view",
      "type": "function"
    },
    {
      "inputs": [
        {
          "internalType": "uint256",
          "name": "required",
          "type": "uint256"
        }
      ],
      "name": "isFeatureEnabled",
      "outputs": [
        {
          "internalType": "bool",
          "name": "",
          "type": "bool"
        }
      ],
      "stateMutability": "view",
      "type": "function"
    },
    {
      "inputs": [
        {
          "internalType": "address",
          "name": "operator",
          "type": "address"
        },
        {
          "internalType": "uint256",
          "name": "required",
          "type": "uint256"
        }
      ],
      "name": "isOperatorInRole",
      "outputs": [
        {
          "internalType": "bool",
          "name": "",
          "type": "bool"
        }
      ],
      "stateMutability": "view",
      "type": "function"
    },
    {
      "inputs": [
        {
          "internalType": "uint256",
          "name": "required",
          "type": "uint256"
        }
      ],
      "name": "isSenderInRole",
      "outputs": [
        {
          "internalType": "bool",
          "name": "",
          "type": "bool"
        }
      ],
      "stateMutability": "view",
      "type": "function"
    },
    {
      "inputs": [
        {
          "internalType": "address",
          "name": "_to",
          "type": "address"
        },
        {
          "internalType": "uint256",
          "name": "_tokenId",
          "type": "uint256"
        }
      ],
      "name": "mint",
      "outputs": [],
      "stateMutability": "nonpayable",
      "type": "function"
    },
    {
      "inputs": [],
      "name": "name",
      "outputs": [
        {
          "internalType": "string",
          "name": "",
          "type": "string"
        }
      ],
      "stateMutability": "view",
      "type": "function"
    },
    {
      "inputs": [
        {
          "internalType": "uint256",
          "name": "tokenId",
          "type": "uint256"
        }
      ],
      "name": "ownerOf",
      "outputs": [
        {
          "internalType": "address",
          "name": "",
          "type": "address"
        }
      ],
      "stateMutability": "view",
      "type": "function"
    },
    {
      "inputs": [
        {
          "internalType": "address",
          "name": "_contract",
          "type": "address"
        },
        {
          "internalType": "address",
          "name": "_to",
          "type": "address"
        },
        {
          "internalType": "uint256",
          "name": "_value",
          "type": "uint256"
        }
      ],
      "name": "rescueErc20",
      "outputs": [],
      "stateMutability": "nonpayable",
      "type": "function"
    },
    {
      "inputs": [
        {
          "internalType": "address",
          "name": "_to",
          "type": "address"
        },
        {
          "internalType": "uint256",
          "name": "_tokenId",
          "type": "uint256"
        },
        {
          "internalType": "bytes",
          "name": "_data",
          "type": "bytes"
        }
      ],
      "name": "safeMint",
      "outputs": [],
      "stateMutability": "nonpayable",
      "type": "function"
    },
    {
      "inputs": [
        {
          "internalType": "address",
          "name": "_to",
          "type": "address"
        },
        {
          "internalType": "uint256",
          "name": "_tokenId",
          "type": "uint256"
        }
      ],
      "name": "safeMint",
      "outputs": [],
      "stateMutability": "nonpayable",
      "type": "function"
    },
    {
      "inputs": [
        {
          "internalType": "address",
          "name": "from",
          "type": "address"
        },
        {
          "internalType": "address",
          "name": "to",
          "type": "address"
        },
        {
          "internalType": "uint256",
          "name": "tokenId",
          "type": "uint256"
        }
      ],
      "name": "safeTransferFrom",
      "outputs": [],
      "stateMutability": "nonpayable",
      "type": "function"
    },
    {
      "inputs": [
        {
          "internalType": "address",
          "name": "from",
          "type": "address"
        },
        {
          "internalType": "address",
          "name": "to",
          "type": "address"
        },
        {
          "internalType": "uint256",
          "name": "tokenId",
          "type": "uint256"
        },
        {
          "internalType": "bytes",
          "name": "data",
          "type": "bytes"
        }
      ],
      "name": "safeTransferFrom",
      "outputs": [],
      "stateMutability": "nonpayable",
      "type": "function"
    },
    {
      "inputs": [
        {
          "internalType": "address",
          "name": "operator",
          "type": "address"
        },
        {
          "internalType": "bool",
          "name": "approved",
          "type": "bool"
        }
      ],
      "name": "setApprovalForAll",
      "outputs": [],
      "stateMutability": "nonpayable",
      "type": "function"
    },
    {
      "inputs": [
        {
          "internalType": "string",
          "name": "__baseURI",
          "type": "string"
        }
      ],
      "name": "setBaseURI",
      "outputs": [],
      "stateMutability": "nonpayable",
      "type": "function"
    },
    {
      "inputs": [
        {
          "internalType": "uint256",
          "name": "_tokenId",
          "type": "uint256"
        },
        {
          "internalType": "string",
          "name": "_tokenURI",
          "type": "string"
        }
      ],
      "name": "setTokenURI",
      "outputs": [],
      "stateMutability": "nonpayable",
      "type": "function"
    },
    {
      "inputs": [
        {
          "internalType": "bytes4",
          "name": "interfaceId",
          "type": "bytes4"
        }
      ],
      "name": "supportsInterface",
      "outputs": [
        {
          "internalType": "bool",
          "name": "",
          "type": "bool"
        }
      ],
      "stateMutability": "view",
      "type": "function"
    },
    {
      "inputs": [],
      "name": "symbol",
      "outputs": [
        {
          "internalType": "string",
          "name": "",
          "type": "string"
        }
      ],
      "stateMutability": "view",
      "type": "function"
    },
    {
      "inputs": [
        {
          "internalType": "uint256",
          "name": "index",
          "type": "uint256"
        }
      ],
      "name": "tokenByIndex",
      "outputs": [
        {
          "internalType": "uint256",
          "name": "",
          "type": "uint256"
        }
      ],
      "stateMutability": "view",
      "type": "function"
    },
    {
      "inputs": [
        {
          "internalType": "address",
          "name": "owner",
          "type": "address"
        },
        {
          "internalType": "uint256",
          "name": "index",
          "type": "uint256"
        }
      ],
      "name": "tokenOfOwnerByIndex",
      "outputs": [
        {
          "internalType": "uint256",
          "name": "",
          "type": "uint256"
        }
      ],
      "stateMutability": "view",
      "type": "function"
    },
    {
      "inputs": [
        {
          "internalType": "uint256",
          "name": "_tokenId",
          "type": "uint256"
        }
      ],
      "name": "tokenURI",
      "outputs": [
        {
          "internalType": "string",
          "name": "",
          "type": "string"
        }
      ],
      "stateMutability": "view",
      "type": "function"
    },
    {
      "inputs": [],
      "name": "totalSupply",
      "outputs": [
        {
          "internalType": "uint256",
          "name": "",
          "type": "uint256"
        }
      ],
      "stateMutability": "view",
      "type": "function"
    },
    {
      "inputs": [
        {
          "internalType": "address",
          "name": "from",
          "type": "address"
        },
        {
          "internalType": "address",
          "name": "to",
          "type": "address"
        },
        {
          "internalType": "uint256",
          "name": "tokenId",
          "type": "uint256"
        }
      ],
      "name": "transferFrom",
      "outputs": [],
      "stateMutability": "nonpayable",
      "type": "function"
    },
    {
      "inputs": [
        {
          "internalType": "uint256",
          "name": "_mask",
          "type": "uint256"
        }
      ],
      "name": "updateFeatures",
      "outputs": [],
      "stateMutability": "nonpayable",
      "type": "function"
    },
    {
      "inputs": [
        {
          "internalType": "address",
          "name": "operator",
          "type": "address"
        },
        {
          "internalType": "uint256",
          "name": "role",
          "type": "uint256"
        }
      ],
      "name": "updateRole",
      "outputs": [],
      "stateMutability": "nonpayable",
      "type": "function"
    }
  ],
  "transactionHash": "0xf0e16f31ac40120acc802765b23a04cdf5eda98dd36bf8ccbe819c0fa7f90c20",
  "args": [
    "Awesome Token",
    "AWS"
  ],
  "numDeployments": 1,
  "solcInputHash": "22071559f08843c1b15ca30d1fbbd277",
  "bytecode": "0x60a06040819052600060808190526200001b91600c91620000fe565b503480156200002957600080fd5b5060405162002d4238038062002d428339810160408190526200004c9162000257565b8181338282816000908051906020019062000069929190620000fe565b5080516200007f906001906020840190620000fe565b505050620000978160001980620000a260201b60201c565b505050505062000311565b6001600160a01b0383166000818152600b6020908152604091829020849055815185815290810184905233917f5a10526456f5116c0b7b80582c217d666243fd51b6a2d92c8011e601c2462e5f910160405180910390a3505050565b8280546200010c90620002be565b90600052602060002090601f0160209004810192826200013057600085556200017b565b82601f106200014b57805160ff19168380011785556200017b565b828001600101855582156200017b579182015b828111156200017b5782518255916020019190600101906200015e565b50620001899291506200018d565b5090565b5b808211156200018957600081556001016200018e565b600082601f830112620001b5578081fd5b81516001600160401b0380821115620001d257620001d2620002fb565b604051601f8301601f19908116603f01168101908282118183101715620001fd57620001fd620002fb565b8160405283815260209250868385880101111562000219578485fd5b8491505b838210156200023c57858201830151818301840152908201906200021d565b838211156200024d57848385830101525b9695505050505050565b600080604083850312156200026a578182fd5b82516001600160401b038082111562000281578384fd5b6200028f86838701620001a4565b93506020850151915080821115620002a5578283fd5b50620002b485828601620001a4565b9150509250929050565b600181811c90821680620002d357607f821691505b60208210811415620002f557634e487b7160e01b600052602260045260246000fd5b50919050565b634e487b7160e01b600052604160045260246000fd5b612a2180620003216000396000f3fe608060405234801561001057600080fd5b506004361061025e5760003560e01c80636c0360eb11610146578063ae682e2e116100c3578063d5bb7f6711610087578063d5bb7f6714610512578063e62cac7614610525578063e985e9c51461052f578063f63c2f8214610542578063f822d5aa1461054a578063fcc2c0781461055d57600080fd5b8063ae682e2e146104c6578063b88d4fde146104d1578063c0d6568d146104e4578063c688d693146104ec578063c87b56dd146104ff57600080fd5b80638f6fba8c1161010a5780638f6fba8c1461047d57806395d89b4114610485578063a14481941461048d578063a22cb465146104a0578063ae5b102e146104b357600080fd5b80636c0360eb1461043257806370a082311461043a578063725f36261461044d5780638832e6e3146104605780638d4e57e61461047357600080fd5b80632b521416116101df57806342966c68116101a357806342966c68146103aa57806344276733146103bd5780634f558e79146103e65780634f6ccce7146103f957806355f804b31461040c5780636352211e1461041f57600080fd5b80632b521416146103525780632d17f8bc146103675780632f745c591461037157806340c10f191461038457806342842e0e1461039757600080fd5b8063162094c411610226578063162094c4146102ff57806318160ddd146103125780631a0b04ea1461032457806323b872dd1461032c578063243feb991461033f57600080fd5b806301ffc9a71461026357806306fdde031461028b578063081812fc146102a0578063095ea7b3146102cb57806314b7b4e1146102e0575b600080fd5b61027661027136600461259a565b610570565b60405190151581526020015b60405180910390f35b6102936105c6565b6040516102829190612716565b6102b36102ae366004612605565b610658565b6040516001600160a01b039091168152602001610282565b6102de6102d93660046124ce565b61067f565b005b6102ea6204000081565b60405163ffffffff9091168152602001610282565b6102de61030d36600461261d565b61079a565b6008545b604051908152602001610282565b6102ea600881565b6102de61033a3660046123f7565b610813565b6102de61034d3660046123f7565b610844565b306000908152600b6020526040902054610316565b6102ea6208000081565b61031661037f3660046124ce565b610880565b6102de6103923660046124ce565b610916565b6102de6103a53660046123f7565b610920565b6102de6103b8366004612605565b61093b565b6103166103cb3660046123ab565b6001600160a01b03166000908152600b602052604090205490565b6102766103f4366004612605565b610947565b610316610407366004612605565b610966565b6102de61041a3660046125d2565b610a07565b6102b361042d366004612605565b610a86565b610293610ae6565b6103166104483660046123ab565b610b74565b61027661045b366004612605565b610bfa565b6102de61046e3660046124f7565b610c16565b6102ea6201000081565b6102ea600281565b610293610c21565b6102de61049b3660046124ce565b610c30565b6102de6104ae366004612498565b610c3a565b6102de6104c13660046124ce565b610c45565b610316600160ff1b81565b6102de6104df366004612432565b610ca1565b6102ea600181565b6102766104fa3660046124ce565b610cd9565b61029361050d366004612605565b610d02565b6102de610520366004612605565b610d0d565b6102ea6202000081565b61027661053d3660046123c5565b610d17565b6102ea601081565b61031661055836600461254c565b610d45565b61027661056b366004612605565b610d70565b600061057b82610d7c565b8061058a575061058a82610da1565b806105a557506001600160e01b031982166326e2e61760e01b145b806105c057506001600160e01b03198216630852cd8d60e31b145b92915050565b6060600080546105d590612976565b80601f016020809104026020016040519081016040528092919081815260200182805461060190612976565b801561064e5780601f106106235761010080835404028352916020019161064e565b820191906000526020600020905b81548152906001019060200180831161063157829003601f168201915b5050505050905090565b600061066382610dc6565b506000908152600460205260409020546001600160a01b031690565b600061068a82610a86565b9050806001600160a01b0316836001600160a01b031614156106fd5760405162461bcd60e51b815260206004820152602160248201527f4552433732313a20617070726f76616c20746f2063757272656e74206f776e656044820152603960f91b60648201526084015b60405180910390fd5b336001600160a01b038216148061071957506107198133610d17565b61078b5760405162461bcd60e51b815260206004820152603d60248201527f4552433732313a20617070726f76652063616c6c6572206973206e6f7420746f60448201527f6b656e206f776e6572206f7220617070726f76656420666f7220616c6c00000060648201526084016106f4565b6107958383610e25565b505050565b6107a662040000610d70565b6107c25760405162461bcd60e51b81526004016106f4906128c8565b336001600160a01b03167f7989fff0ffb34805e8b3574b890ed6157f85a384c69b9a0c04991b24cabb825983836040516107fd9291906128ef565b60405180910390a261080f8282610e93565b5050565b61081d3382610e9d565b6108395760405162461bcd60e51b81526004016106f4906127e4565b610795838383610efc565b61085062080000610d70565b61086c5760405162461bcd60e51b81526004016106f4906128c8565b6107956001600160a01b038416838361106d565b600061088b83610b74565b82106108ed5760405162461bcd60e51b815260206004820152602b60248201527f455243373231456e756d657261626c653a206f776e657220696e646578206f7560448201526a74206f6620626f756e647360a81b60648201526084016106f4565b506001600160a01b03919091166000908152600660209081526040808320938352929052205490565b61080f82826110bf565b61079583838360405180602001604052806000815250610ca1565b6109448161112d565b50565b6000818152600260205260408120546001600160a01b031615156105c0565b600061097160085490565b82106109d45760405162461bcd60e51b815260206004820152602c60248201527f455243373231456e756d657261626c653a20676c6f62616c20696e646578206f60448201526b7574206f6620626f756e647360a01b60648201526084016106f4565b600882815481106109f557634e487b7160e01b600052603260045260246000fd5b90600052602060002001549050919050565b610a1362040000610d70565b610a2f5760405162461bcd60e51b81526004016106f4906128c8565b336001600160a01b03167fac455070f26733cc10c09e4389a74bf73bdb676d730ee31215c31d20daa88005600c83604051610a6b929190612729565b60405180910390a2805161080f90600c906020840190612239565b6000818152600260205260408120546001600160a01b0316806105c05760405162461bcd60e51b8152602060048201526018602482015277115490cdcc8c4e881a5b9d985b1a59081d1bdad95b88125160421b60448201526064016106f4565b600c8054610af390612976565b80601f0160208091040260200160405190810160405280929190818152602001828054610b1f90612976565b8015610b6c5780601f10610b4157610100808354040283529160200191610b6c565b820191906000526020600020905b815481529060010190602001808311610b4f57829003601f168201915b505050505081565b60006001600160a01b038216610bde5760405162461bcd60e51b815260206004820152602960248201527f4552433732313a2061646472657373207a65726f206973206e6f7420612076616044820152683634b21037bbb732b960b91b60648201526084016106f4565b506001600160a01b031660009081526003602052604090205490565b306000908152600b60205260408120546105c0905b8316831490565b6107958383836112c2565b6060600180546105d590612976565b61080f82826112f5565b61080f33838361130f565b610c52600160ff1b610d70565b610c6e5760405162461bcd60e51b81526004016106f4906128c8565b61080f8282610c9c33610c96876001600160a01b03166000908152600b602052604090205490565b86610d45565b6113df565b610cab3383610e9d565b610cc75760405162461bcd60e51b81526004016106f4906127e4565b610cd384848484611433565b50505050565b6001600160a01b0382166000908152600b6020526040812054610cfb90610c0f565b9392505050565b60606105c082611466565b6109443082610c45565b6001600160a01b03918216600090815260056020908152604080832093909416825291909152205460ff1690565b6001600160a01b03929092166000908152600b60205260409020546000198084188216189216171690565b60006105c03383610cd9565b60006001600160e01b0319821663780e9d6360e01b14806105c057506105c082611562565b60006001600160e01b03198216632483248360e11b14806105c057506105c082610d7c565b6000818152600260205260409020546001600160a01b03166109445760405162461bcd60e51b8152602060048201526018602482015277115490cdcc8c4e881a5b9d985b1a59081d1bdad95b88125160421b60448201526064016106f4565b600081815260046020526040902080546001600160a01b0319166001600160a01b0384169081179091558190610e5a82610a86565b6001600160a01b03167f8c5be1e5ebec7d5bd14f71427d1e84f3dd0314c0f7b2291e5b200ac8c7c3b92560405160405180910390a45050565b61080f82826115b2565b600080610ea983610a86565b9050806001600160a01b0316846001600160a01b03161480610ed05750610ed08185610d17565b80610ef45750836001600160a01b0316610ee984610658565b6001600160a01b0316145b949350505050565b826001600160a01b0316610f0f82610a86565b6001600160a01b031614610f355760405162461bcd60e51b81526004016106f490612883565b6001600160a01b038216610f975760405162461bcd60e51b8152602060048201526024808201527f4552433732313a207472616e7366657220746f20746865207a65726f206164646044820152637265737360e01b60648201526084016106f4565b610fa48383836001611684565b826001600160a01b0316610fb782610a86565b6001600160a01b031614610fdd5760405162461bcd60e51b81526004016106f490612883565b600081815260046020908152604080832080546001600160a01b03199081169091556001600160a01b0387811680865260038552838620805460001901905590871680865283862080546001019055868652600290945282852080549092168417909155905184937fddf252ad1be2c89b69c2b068fc378daa952ba7f163c4a11628f55a4df523b3ef91a4505050565b604080516001600160a01b038416602482015260448082018490528251808303909101815260649091019091526020810180516001600160e01b031663a9059cbb60e01b17905261079590849061178e565b6110cb62010000610d70565b6110e75760405162461bcd60e51b81526004016106f4906128c8565b6110f18282611845565b60405181906001600160a01b0384169033907f9d228d69b5fdb8d273a2336f8fb8612d039631024ea9bf09c424a9503aa078f090600090a45050565b600061113882610a86565b905061114662020000610d70565b61127d576001600160a01b0381163314801561116757506111676008610bfa565b8061118b57506001600160a01b038116331480159061118b575061118b6010610bfa565b6001600160a01b03821633146111d6576040518060400160405280601c81526020017f6275726e73206f6e20626568616c66206172652064697361626c656400000000815250611202565b60405180604001604052806012815260200171189d5c9b9cc8185c9948191a5cd8589b195960721b8152505b906112205760405162461bcd60e51b81526004016106f49190612716565b50336001600160a01b0382161480611251575061123c82610658565b6001600160a01b0316336001600160a01b0316145b8061126157506112618133610d17565b61127d5760405162461bcd60e51b81526004016106f4906128c8565b611286826119de565b60405182906001600160a01b0383169033907fe8a89cc6e5096f9d9f43de82c077c1f4cfe707c0e0c2032176c68813b9ae6a5c90600090a45050565b6112cc83836110bf565b6112d96000848484611a1e565b6107955760405162461bcd60e51b81526004016106f490612831565b61080f8282604051806020016040528060008152506112c2565b816001600160a01b0316836001600160a01b031614156113715760405162461bcd60e51b815260206004820152601960248201527f4552433732313a20617070726f766520746f2063616c6c65720000000000000060448201526064016106f4565b6001600160a01b03838116600081815260056020908152604080832094871680845294825291829020805460ff191686151590811790915591519182527f17307eab39ab6107e8899845ad3d59bd9653f200f220920489ca2b5937696c3191015b60405180910390a3505050565b6001600160a01b0383166000818152600b6020908152604091829020849055815185815290810184905233917f5a10526456f5116c0b7b80582c217d666243fd51b6a2d92c8011e601c2462e5f91016113d2565b61143e848484610efc565b61144a84848484611a1e565b610cd35760405162461bcd60e51b81526004016106f490612831565b606061147182610dc6565b6000828152600a60205260408120805461148a90612976565b80601f01602080910402602001604051908101604052809291908181526020018280546114b690612976565b80156115035780601f106114d857610100808354040283529160200191611503565b820191906000526020600020905b8154815290600101906020018083116114e657829003601f168201915b505050505090506000611514611b2b565b9050805160001415611527575092915050565b8151156115595780826040516020016115419291906126aa565b60405160208183030381529060405292505050919050565b610ef484611b3a565b60006001600160e01b031982166380ac58cd60e01b148061159357506001600160e01b03198216635b5e139f60e01b145b806105c057506301ffc9a760e01b6001600160e01b03198316146105c0565b6000828152600260205260409020546001600160a01b031661162d5760405162461bcd60e51b815260206004820152602e60248201527f45524337323155524953746f726167653a2055524920736574206f66206e6f6e60448201526d32bc34b9ba32b73a103a37b5b2b760911b60648201526084016106f4565b6000828152600a60209081526040909120825161164c92840190612239565b506040518281527ff8e1a15aba9398e019f0b49df1a4fde98ee17ae345cb5f6b5e2c27f5033e8ce79060200160405180910390a15050565b6001600160a01b03841615806116a157506001600160a01b038316155b806116c457506001600160a01b038416331480156116c457506116c46001610bfa565b806116e857506001600160a01b03841633148015906116e857506116e86002610bfa565b6001600160a01b0385163314611733576040518060400160405280602081526020017f7472616e7366657273206f6e20626568616c66206172652064697361626c6564815250611763565b604051806040016040528060168152602001751d1c985b9cd9995c9cc8185c9948191a5cd8589b195960521b8152505b906117815760405162461bcd60e51b81526004016106f49190612716565b50610cd384848484611ba0565b60006117e3826040518060400160405280601b81526020017f4552433230206c6f772d6c6576656c2063616c6c206661696c65640000000000815250856001600160a01b0316611cd49092919063ffffffff16565b8051909150156107955780806020019051810190611801919061257e565b6107955760405162461bcd60e51b8152602060048201526015602482015274115490cc8c081d1c985b9cd9995c8819985a5b1959605a1b60448201526064016106f4565b6001600160a01b03821661189b5760405162461bcd60e51b815260206004820181905260248201527f4552433732313a206d696e7420746f20746865207a65726f206164647265737360448201526064016106f4565b6000818152600260205260409020546001600160a01b0316156119005760405162461bcd60e51b815260206004820152601c60248201527f4552433732313a20746f6b656e20616c7265616479206d696e7465640000000060448201526064016106f4565b61190e600083836001611684565b6000818152600260205260409020546001600160a01b0316156119735760405162461bcd60e51b815260206004820152601c60248201527f4552433732313a20746f6b656e20616c7265616479206d696e7465640000000060448201526064016106f4565b6001600160a01b038216600081815260036020908152604080832080546001019055848352600290915280822080546001600160a01b0319168417905551839291907fddf252ad1be2c89b69c2b068fc378daa952ba7f163c4a11628f55a4df523b3ef908290a45050565b6119e781611ce3565b6000818152600a602052604090208054611a0090612976565b159050610944576000818152600a60205260408120610944916122bd565b60006001600160a01b0384163b15611b2057604051630a85bd0160e11b81526001600160a01b0385169063150b7a0290611a629033908990889088906004016126d9565b602060405180830381600087803b158015611a7c57600080fd5b505af1925050508015611aac575060408051601f3d908101601f19168201909252611aa9918101906125b6565b60015b611b06573d808015611ada576040519150601f19603f3d011682016040523d82523d6000602084013e611adf565b606091505b508051611afe5760405162461bcd60e51b81526004016106f490612831565b805181602001fd5b6001600160e01b031916630a85bd0160e11b149050610ef4565b506001949350505050565b6060600c80546105d590612976565b6060611b4582610dc6565b6000611b4f611b2b565b90506000815111611b6f5760405180602001604052806000815250610cfb565b80611b7984611d86565b604051602001611b8a9291906126aa565b6040516020818303038152906040529392505050565b6001811115611c0f5760405162461bcd60e51b815260206004820152603560248201527f455243373231456e756d657261626c653a20636f6e7365637574697665207472604482015274185b9cd9995c9cc81b9bdd081cdd5c1c1bdc9d1959605a1b60648201526084016106f4565b816001600160a01b038516611c6b57611c6681600880546000838152600960205260408120829055600182018355919091527ff3f7a9fe364faab93b216da50a3214154f22a0a2b415b23a84c8169e8b636ee30155565b611c8e565b836001600160a01b0316856001600160a01b031614611c8e57611c8e8582611e31565b6001600160a01b038416611caa57611ca581611ece565b611ccd565b846001600160a01b0316846001600160a01b031614611ccd57611ccd8482611fa7565b5050505050565b6060610ef48484600085611feb565b6000611cee82610a86565b9050611cfe816000846001611684565b611d0782610a86565b600083815260046020908152604080832080546001600160a01b03199081169091556001600160a01b0385168085526003845282852080546000190190558785526002909352818420805490911690555192935084927fddf252ad1be2c89b69c2b068fc378daa952ba7f163c4a11628f55a4df523b3ef908390a45050565b60606000611d93836120c6565b600101905060008167ffffffffffffffff811115611dc157634e487b7160e01b600052604160045260246000fd5b6040519080825280601f01601f191660200182016040528015611deb576020820181803683370190505b5090508181016020015b600019016f181899199a1a9b1b9c1cb0b131b232b360811b600a86061a8153600a8504945084611e2457611e29565b611df5565b509392505050565b60006001611e3e84610b74565b611e489190612927565b600083815260076020526040902054909150808214611e9b576001600160a01b03841660009081526006602090815260408083208584528252808320548484528184208190558352600790915290208190555b5060009182526007602090815260408084208490556001600160a01b039094168352600681528383209183525290812055565b600854600090611ee090600190612927565b60008381526009602052604081205460088054939450909284908110611f1657634e487b7160e01b600052603260045260246000fd5b906000526020600020015490508060088381548110611f4557634e487b7160e01b600052603260045260246000fd5b6000918252602080832090910192909255828152600990915260408082208490558582528120556008805480611f8b57634e487b7160e01b600052603160045260246000fd5b6001900381819060005260206000200160009055905550505050565b6000611fb283610b74565b6001600160a01b039093166000908152600660209081526040808320868452825280832085905593825260079052919091209190915550565b60608247101561204c5760405162461bcd60e51b815260206004820152602660248201527f416464726573733a20696e73756666696369656e742062616c616e636520666f6044820152651c8818d85b1b60d21b60648201526084016106f4565b600080866001600160a01b03168587604051612068919061268e565b60006040518083038185875af1925050503d80600081146120a5576040519150601f19603f3d011682016040523d82523d6000602084013e6120aa565b606091505b50915091506120bb8783838761219e565b979650505050505050565b60008072184f03e93ff9f4daa797ed6e38ed64bf6a1f0160401b83106121055772184f03e93ff9f4daa797ed6e38ed64bf6a1f0160401b830492506040015b6d04ee2d6d415b85acef81000000008310612131576d04ee2d6d415b85acef8100000000830492506020015b662386f26fc10000831061214f57662386f26fc10000830492506010015b6305f5e1008310612167576305f5e100830492506008015b612710831061217b57612710830492506004015b6064831061218d576064830492506002015b600a83106105c05760010192915050565b6060831561220a578251612203576001600160a01b0385163b6122035760405162461bcd60e51b815260206004820152601d60248201527f416464726573733a2063616c6c20746f206e6f6e2d636f6e747261637400000060448201526064016106f4565b5081610ef4565b610ef4838381511561221f5781518083602001fd5b8060405162461bcd60e51b81526004016106f49190612716565b82805461224590612976565b90600052602060002090601f01602090048101928261226757600085556122ad565b82601f1061228057805160ff19168380011785556122ad565b828001600101855582156122ad579182015b828111156122ad578251825591602001919060010190612292565b506122b99291506122f3565b5090565b5080546122c990612976565b6000825580601f106122d9575050565b601f01602090049060005260206000209081019061094491905b5b808211156122b957600081556001016122f4565b80356001600160a01b038116811461231f57600080fd5b919050565b600082601f830112612334578081fd5b813567ffffffffffffffff8082111561234f5761234f6129b1565b604051601f8301601f19908116603f01168101908282118183101715612377576123776129b1565b8160405283815286602085880101111561238f578485fd5b8360208701602083013792830160200193909352509392505050565b6000602082840312156123bc578081fd5b610cfb82612308565b600080604083850312156123d7578081fd5b6123e083612308565b91506123ee60208401612308565b90509250929050565b60008060006060848603121561240b578081fd5b61241484612308565b925061242260208501612308565b9150604084013590509250925092565b60008060008060808587031215612447578081fd5b61245085612308565b935061245e60208601612308565b925060408501359150606085013567ffffffffffffffff811115612480578182fd5b61248c87828801612324565b91505092959194509250565b600080604083850312156124aa578182fd5b6124b383612308565b915060208301356124c3816129c7565b809150509250929050565b600080604083850312156124e0578182fd5b6124e983612308565b946020939093013593505050565b60008060006060848603121561250b578283fd5b61251484612308565b925060208401359150604084013567ffffffffffffffff811115612536578182fd5b61254286828701612324565b9150509250925092565b600080600060608486031215612560578283fd5b61256984612308565b95602085013595506040909401359392505050565b60006020828403121561258f578081fd5b8151610cfb816129c7565b6000602082840312156125ab578081fd5b8135610cfb816129d5565b6000602082840312156125c7578081fd5b8151610cfb816129d5565b6000602082840312156125e3578081fd5b813567ffffffffffffffff8111156125f9578182fd5b610ef484828501612324565b600060208284031215612616578081fd5b5035919050565b6000806040838503121561262f578182fd5b82359150602083013567ffffffffffffffff81111561264c578182fd5b61265885828601612324565b9150509250929050565b6000815180845261267a81602086016020860161294a565b601f01601f19169290920160200192915050565b600082516126a081846020870161294a565b9190910192915050565b600083516126bc81846020880161294a565b8351908301906126d081836020880161294a565b01949350505050565b6001600160a01b038581168252841660208201526040810183905260806060820181905260009061270c90830184612662565b9695505050505050565b602081526000610cfb6020830184612662565b60408152600080845482600182811c91508083168061274957607f831692505b602080841082141561276957634e487b7160e01b87526022600452602487fd5b60408801849052606088018280156127885760018114612799576127c3565b60ff198716825282820197506127c3565b60008c815260209020895b878110156127bd578154848201529086019084016127a4565b83019850505b50508786038189015250505050506127db8185612662565b95945050505050565b6020808252602d908201527f4552433732313a2063616c6c6572206973206e6f7420746f6b656e206f776e6560408201526c1c881bdc88185c1c1c9bdd9959609a1b606082015260800190565b60208082526032908201527f4552433732313a207472616e7366657220746f206e6f6e20455243373231526560408201527131b2b4bb32b91034b6b83632b6b2b73a32b960711b606082015260800190565b60208082526025908201527f4552433732313a207472616e736665722066726f6d20696e636f72726563742060408201526437bbb732b960d91b606082015260800190565b6020808252600d908201526c1858d8d95cdcc819195b9a5959609a1b604082015260600190565b8281526060602082015260086060820152673d32b83832b634b760c11b608082015260a060408201526000610ef460a0830184612662565b60008282101561294557634e487b7160e01b81526011600452602481fd5b500390565b60005b8381101561296557818101518382015260200161294d565b83811115610cd35750506000910152565b600181811c9082168061298a57607f821691505b602082108114156129ab57634e487b7160e01b600052602260045260246000fd5b50919050565b634e487b7160e01b600052604160045260246000fd5b801515811461094457600080fd5b6001600160e01b03198116811461094457600080fdfea264697066735822122032a80b29b9ad8b1bdccd1c9880e1fdd3253e0812110a2a24578b42e095c69ffc64736f6c63430008040033",
  "devdoc": {
    "author": "Basil Gorin",
    "kind": "dev",
    "methods": {
      "approve(address,uint256)": {
        "details": "See {IERC721-approve}."
      },
      "balanceOf(address)": {
        "details": "See {IERC721-balanceOf}."
      },
      "burn(uint256)": {
        "details": "Destroys the token with token ID specifiedRequires executor to have `ROLE_TOKEN_DESTROYER` permission      or FEATURE_OWN_BURNS/FEATURE_BURNS_ON_BEHALF features to be enabledCan be disabled by the contract creator forever by disabling      FEATURE_OWN_BURNS/FEATURE_BURNS_ON_BEHALF features and then revoking      its own roles to burn tokens and to enable burning features",
        "params": {
          "_tokenId": "ID of the token to burn"
        }
      },
      "constructor": {
        "details": "Creates/deploys an NFT Mock instance",
        "params": {
          "_name": "token name (ERC721Metadata)",
          "_symbol": "token symbol (ERC721Metadata)"
        }
      },
      "evaluateBy(address,uint256,uint256)": {
        "details": "Calculated based on:      1) operator's own permission set read from userRoles[operator]      2) target permission set - what is already set on the target      3) desired permission set - what do we want set target toCorner cases:      1) Operator is super admin and its permission set is `FULL_PRIVILEGES_MASK`:        `desired` bitset is returned regardless of the `target` permission set value        (what operator sets is what they get)      2) Operator with no permissions (zero bitset):        `target` bitset is returned regardless of the `desired` value        (operator has no authority and cannot modify anything)Example:      Consider an operator with the permissions bitmask     00001111      is about to modify the target permission set          01010101      Operator wants to set that permission set to          00110011      Based on their role, an operator has the permissions      to update only lowest 4 bits on the target, meaning that      high 4 bits of the target set in this example is left      unchanged and low 4 bits get changed as desired:      01010011",
        "params": {
          "desired": "desired set of permissions operator would like to set",
          "operator": "address of the contract operator which is about to set the permissions",
          "target": "input set of permissions to operator is going to modify"
        },
        "returns": {
          "_0": "resulting set of permissions given operator will set"
        }
      },
      "exists(uint256)": {
        "details": "Returns whether the specified token ID has an ownership      information associated with it",
        "params": {
          "_tokenId": "ID of the token to query existence for"
        },
        "returns": {
          "_0": "whether the token exists (true - exists, false - doesn't exist)"
        }
      },
      "features()": {
        "details": "Effectively reads userRoles role for the contract itself",
        "returns": {
          "_0": "256-bit bitmask of the features enabled"
        }
      },
      "getApproved(uint256)": {
        "details": "See {IERC721-getApproved}."
      },
      "getRole(address)": {
        "details": "Having a simple getter instead of making the mapping public      allows enforcing the encapsulation of the mapping and protects from      writing to it directly in the inheriting smart contracts",
        "params": {
          "operator": "address of a user to read permissions for,      or self address to read global features of the smart contract"
        }
      },
      "isApprovedForAll(address,address)": {
        "details": "See {IERC721-isApprovedForAll}."
      },
      "isFeatureEnabled(uint256)": {
        "params": {
          "required": "set of features to check against"
        },
        "returns": {
          "_0": "true if all the features requested are enabled, false otherwise"
        }
      },
      "isOperatorInRole(address,uint256)": {
        "params": {
          "operator": "address of the user to check role for",
          "required": "set of permissions (role) to check"
        },
        "returns": {
          "_0": "true if all the permissions requested are enabled, false otherwise"
        }
      },
      "isSenderInRole(uint256)": {
        "params": {
          "required": "set of permissions (role) to check against"
        },
        "returns": {
          "_0": "true if all the permissions requested are enabled, false otherwise"
        }
      },
      "mint(address,uint256)": {
        "details": "Creates new token with token ID specified      and assigns an ownership `_to` for this tokenUnsafe: doesn't execute `onERC721Received` on the receiver.      Prefer the use of `saveMint` instead of `mint`.Requires executor to have `ROLE_TOKEN_CREATOR` permission",
        "params": {
          "_to": "an address to mint token to",
          "_tokenId": "ID of the token to mint"
        }
      },
      "name()": {
        "details": "See {IERC721Metadata-name}."
      },
      "ownerOf(uint256)": {
        "details": "See {IERC721-ownerOf}."
      },
      "rescueErc20(address,address,uint256)": {
        "details": "Restricted access function to rescue accidentally sent ERC20 tokens,      the tokens are rescued via `transfer` function call on the      contract address specified and with the parameters specified:      `_contract.transfer(_to, _value)`Requires executor to have `ROLE_RESCUE_MANAGER` permission",
        "params": {
          "_contract": "smart contract address to execute `transfer` function on",
          "_to": "to address in `transfer(_to, _value)`",
          "_value": "value to transfer in `transfer(_to, _value)`"
        }
      },
      "safeMint(address,uint256)": {
        "details": "Creates new token with token ID specified      and assigns an ownership `_to` for this tokenChecks if `_to` is a smart contract (code size > 0). If so, it calls      `onERC721Received` on `_to` and throws if the return value is not      `bytes4(keccak256(\"onERC721Received(address,address,uint256,bytes)\"))`.Requires executor to have `ROLE_TOKEN_CREATOR` permission",
        "params": {
          "_to": "an address to mint token to",
          "_tokenId": "ID of the token to mint"
        }
      },
      "safeMint(address,uint256,bytes)": {
        "details": "Creates new token with token ID specified      and assigns an ownership `_to` for this tokenChecks if `_to` is a smart contract (code size > 0). If so, it calls      `onERC721Received` on `_to` and throws if the return value is not      `bytes4(keccak256(\"onERC721Received(address,address,uint256,bytes)\"))`.Requires executor to have `ROLE_TOKEN_CREATOR` permission",
        "params": {
          "_data": "additional data with no specified format, sent in call to `_to`",
          "_to": "an address to mint token to",
          "_tokenId": "ID of the token to mint"
        }
      },
      "safeTransferFrom(address,address,uint256)": {
        "details": "See {IERC721-safeTransferFrom}."
      },
      "safeTransferFrom(address,address,uint256,bytes)": {
        "details": "See {IERC721-safeTransferFrom}."
      },
      "setApprovalForAll(address,bool)": {
        "details": "See {IERC721-setApprovalForAll}."
      },
      "setBaseURI(string)": {
        "details": "Restricted access function which updates base URI used to construct      ERC721Metadata.tokenURIRequires executor to have ROLE_URI_MANAGER permission",
        "params": {
          "__baseURI": "new base URI to set"
        }
      },
      "setTokenURI(uint256,string)": {
        "details": "Sets the token URI for the token defined by its ID",
        "params": {
          "_tokenId": "an ID of the token to set URI for",
          "_tokenURI": "token URI to set"
        }
      },
      "supportsInterface(bytes4)": {
        "details": "Returns true if this contract implements the interface defined by `interfaceId`. See the corresponding https://eips.ethereum.org/EIPS/eip-165#how-interfaces-are-identified[EIP section] to learn more about how these ids are created. This function call must use less than 30 000 gas."
      },
      "symbol()": {
        "details": "See {IERC721Metadata-symbol}."
      },
      "tokenByIndex(uint256)": {
        "details": "See {IERC721Enumerable-tokenByIndex}."
      },
      "tokenOfOwnerByIndex(address,uint256)": {
        "details": "See {IERC721Enumerable-tokenOfOwnerByIndex}."
      },
      "tokenURI(uint256)": {
        "details": "See {IERC721Metadata-tokenURI}."
      },
      "totalSupply()": {
        "details": "See {IERC721Enumerable-totalSupply}."
      },
      "transferFrom(address,address,uint256)": {
        "details": "See {IERC721-transferFrom}."
      },
      "updateFeatures(uint256)": {
        "details": "Requires transaction sender to have `ROLE_ACCESS_MANAGER` permissionFunction is left for backward compatibility with older versions",
        "params": {
          "_mask": "bitmask representing a set of features to enable/disable"
        }
      },
      "updateRole(address,uint256)": {
        "details": "Setting role to zero is equivalent to removing an all permissionsSetting role to `FULL_PRIVILEGES_MASK` is equivalent to      copying senders' permissions (role) to the userRequires transaction sender to have `ROLE_ACCESS_MANAGER` permission",
        "params": {
          "operator": "address of a user to alter permissions for,       or self address to alter global features of the smart contract",
          "role": "bitmask representing a set of permissions to      enable/disable for a user specified"
        }
      }
    },
    "title": "Zeppelin ERC721 Mock",
    "version": 1
  },
  "userdoc": {
    "kind": "user",
    "methods": {
      "FEATURE_BURNS_ON_BEHALF()": {
        "notice": "Enables approved operators to burn tokens on behalf of their owners"
      },
      "FEATURE_OWN_BURNS()": {
        "notice": "Enables token owners to burn their own tokens"
      },
      "FEATURE_TRANSFERS()": {
        "notice": "Enables ERC721 transfers of the tokens      (transfer by the token owner himself)"
      },
      "FEATURE_TRANSFERS_ON_BEHALF()": {
        "notice": "Enables ERC721 transfers on behalf      (transfer by someone else on behalf of token owner)"
      },
      "ROLE_ACCESS_MANAGER()": {
        "notice": "Access manager is responsible for assigning the roles to users,      enabling/disabling global features of the smart contractAccess manager can add, remove and update user roles,      remove and update global features"
      },
      "ROLE_RESCUE_MANAGER()": {
        "notice": "People do mistakes and may send ERC20 tokens by mistake; since      NFT smart contract is not designed to accept and hold any ERC20 tokens,      it allows the rescue manager to \"rescue\" such lost tokensRescue manager is responsible for \"rescuing\" ERC20 tokens accidentally      sent to the smart contract"
      },
      "ROLE_TOKEN_CREATOR()": {
        "notice": "Token creator is responsible for creating (minting)      tokens to an arbitrary address"
      },
      "ROLE_TOKEN_DESTROYER()": {
        "notice": "Token destroyer is responsible for destroying (burning)      tokens owned by an arbitrary address"
      },
      "ROLE_URI_MANAGER()": {
        "notice": "URI manager is responsible for managing base URI      part of the token URI ERC721Metadata interface"
      },
      "evaluateBy(address,uint256,uint256)": {
        "notice": "Determines the permission bitmask an operator can set on the      target permission setUsed to calculate the permission bitmask to be set when requested     in `updateRole` and `updateFeatures` functions"
      },
      "exists(uint256)": {
        "notice": "Checks if specified token exists"
      },
      "features()": {
        "notice": "Retrieves globally set of features enabled"
      },
      "getRole(address)": {
        "notice": "Reads the permissions (role) for a given user from the `userRoles` mapping"
      },
      "isFeatureEnabled(uint256)": {
        "notice": "Checks if requested set of features is enabled globally on the contract"
      },
      "isOperatorInRole(address,uint256)": {
        "notice": "Checks if operator has all the permissions (role) required"
      },
      "isSenderInRole(uint256)": {
        "notice": "Checks if transaction sender `msg.sender` has all the permissions required"
      },
      "updateFeatures(uint256)": {
        "notice": "Updates set of the globally enabled features (`features`),      taking into account sender's permissions"
      },
      "updateRole(address,uint256)": {
        "notice": "Updates set of permissions (role) for a given user,      taking into account sender's permissions."
      }
    },
    "notice": "Zeppelin ERC721 Mock simulates an NFT token, used for testing purposes;      it still has restricted access to the mint() function",
    "version": 1
  },
  "storageLayout": {
    "storage": [
      {
        "astId": 5588,
        "contract": "contracts/mocks/ERC721Mock.sol:ERC721Mock",
        "label": "_name",
        "offset": 0,
        "slot": "0",
        "type": "t_string_storage"
      },
      {
        "astId": 5590,
        "contract": "contracts/mocks/ERC721Mock.sol:ERC721Mock",
        "label": "_symbol",
        "offset": 0,
        "slot": "1",
        "type": "t_string_storage"
      },
      {
        "astId": 5594,
        "contract": "contracts/mocks/ERC721Mock.sol:ERC721Mock",
        "label": "_owners",
        "offset": 0,
        "slot": "2",
        "type": "t_mapping(t_uint256,t_address)"
      },
      {
        "astId": 5598,
        "contract": "contracts/mocks/ERC721Mock.sol:ERC721Mock",
        "label": "_balances",
        "offset": 0,
        "slot": "3",
        "type": "t_mapping(t_address,t_uint256)"
      },
      {
        "astId": 5602,
        "contract": "contracts/mocks/ERC721Mock.sol:ERC721Mock",
        "label": "_tokenApprovals",
        "offset": 0,
        "slot": "4",
        "type": "t_mapping(t_uint256,t_address)"
      },
      {
        "astId": 5608,
        "contract": "contracts/mocks/ERC721Mock.sol:ERC721Mock",
        "label": "_operatorApprovals",
        "offset": 0,
        "slot": "5",
        "type": "t_mapping(t_address,t_mapping(t_address,t_bool))"
      },
      {
        "astId": 6638,
        "contract": "contracts/mocks/ERC721Mock.sol:ERC721Mock",
        "label": "_ownedTokens",
        "offset": 0,
        "slot": "6",
        "type": "t_mapping(t_address,t_mapping(t_uint256,t_uint256))"
      },
      {
        "astId": 6642,
        "contract": "contracts/mocks/ERC721Mock.sol:ERC721Mock",
        "label": "_ownedTokensIndex",
        "offset": 0,
        "slot": "7",
        "type": "t_mapping(t_uint256,t_uint256)"
      },
      {
        "astId": 6645,
        "contract": "contracts/mocks/ERC721Mock.sol:ERC721Mock",
        "label": "_allTokens",
        "offset": 0,
        "slot": "8",
        "type": "t_array(t_uint256)dyn_storage"
      },
      {
        "astId": 6649,
        "contract": "contracts/mocks/ERC721Mock.sol:ERC721Mock",
        "label": "_allTokensIndex",
        "offset": 0,
        "slot": "9",
        "type": "t_mapping(t_uint256,t_uint256)"
      },
      {
        "astId": 6993,
        "contract": "contracts/mocks/ERC721Mock.sol:ERC721Mock",
        "label": "_tokenURIs",
        "offset": 0,
        "slot": "10",
        "type": "t_mapping(t_uint256,t_string_storage)"
      },
      {
        "astId": 11022,
        "contract": "contracts/mocks/ERC721Mock.sol:ERC721Mock",
        "label": "userRoles",
        "offset": 0,
        "slot": "11",
        "type": "t_mapping(t_address,t_uint256)"
      },
      {
        "astId": 9675,
        "contract": "contracts/mocks/ERC721Mock.sol:ERC721Mock",
        "label": "baseURI",
        "offset": 0,
        "slot": "12",
        "type": "t_string_storage"
      }
    ],
    "types": {
      "t_address": {
        "encoding": "inplace",
        "label": "address",
        "numberOfBytes": "20"
      },
      "t_array(t_uint256)dyn_storage": {
        "base": "t_uint256",
        "encoding": "dynamic_array",
        "label": "uint256[]",
        "numberOfBytes": "32"
      },
      "t_bool": {
        "encoding": "inplace",
        "label": "bool",
        "numberOfBytes": "1"
      },
      "t_mapping(t_address,t_bool)": {
        "encoding": "mapping",
        "key": "t_address",
        "label": "mapping(address => bool)",
        "numberOfBytes": "32",
        "value": "t_bool"
      },
      "t_mapping(t_address,t_mapping(t_address,t_bool))": {
        "encoding": "mapping",
        "key": "t_address",
        "label": "mapping(address => mapping(address => bool))",
        "numberOfBytes": "32",
        "value": "t_mapping(t_address,t_bool)"
      },
      "t_mapping(t_address,t_mapping(t_uint256,t_uint256))": {
        "encoding": "mapping",
        "key": "t_address",
        "label": "mapping(address => mapping(uint256 => uint256))",
        "numberOfBytes": "32",
        "value": "t_mapping(t_uint256,t_uint256)"
      },
      "t_mapping(t_address,t_uint256)": {
        "encoding": "mapping",
        "key": "t_address",
        "label": "mapping(address => uint256)",
        "numberOfBytes": "32",
        "value": "t_uint256"
      },
      "t_mapping(t_uint256,t_address)": {
        "encoding": "mapping",
        "key": "t_uint256",
        "label": "mapping(uint256 => address)",
        "numberOfBytes": "32",
        "value": "t_address"
      },
      "t_mapping(t_uint256,t_string_storage)": {
        "encoding": "mapping",
        "key": "t_uint256",
        "label": "mapping(uint256 => string)",
        "numberOfBytes": "32",
        "value": "t_string_storage"
      },
      "t_mapping(t_uint256,t_uint256)": {
        "encoding": "mapping",
        "key": "t_uint256",
        "label": "mapping(uint256 => uint256)",
        "numberOfBytes": "32",
        "value": "t_uint256"
      },
      "t_string_storage": {
        "encoding": "bytes",
        "label": "string",
        "numberOfBytes": "32"
      },
      "t_uint256": {
        "encoding": "inplace",
        "label": "uint256",
        "numberOfBytes": "32"
      }
    }
  }
}