{
  "address": "0xE669CbB38a9e369D94E20E6c6D8D02A9b0c3dde2",
  "abi": [
    {
      "anonymous": false,
      "inputs": [
        {
          "indexed": false,
          "internalType": "address",
          "name": "previousAdmin",
          "type": "address"
        },
        {
          "indexed": false,
          "internalType": "address",
          "name": "newAdmin",
          "type": "address"
        }
      ],
      "name": "AdminChanged",
      "type": "event"
    },
    {
      "anonymous": false,
      "inputs": [
        {
          "indexed": true,
          "internalType": "address",
          "name": "owner",
          "type": "address"
        },
        {
          "indexed": true,
          "internalType": "address",
          "name": "approved",
          "type": "address"
        },
        {
          "indexed": true,
          "internalType": "uint256",
          "name": "tokenId",
          "type": "uint256"
        }
      ],
      "name": "Approval",
      "type": "event"
    },
    {
      "anonymous": false,
      "inputs": [
        {
          "indexed": true,
          "internalType": "address",
          "name": "owner",
          "type": "address"
        },
        {
          "indexed": true,
          "internalType": "address",
          "name": "operator",
          "type": "address"
        },
        {
          "indexed": false,
          "internalType": "bool",
          "name": "approved",
          "type": "bool"
        }
      ],
      "name": "ApprovalForAll",
      "type": "event"
    },
    {
      "anonymous": false,
      "inputs": [
        {
          "indexed": true,
          "internalType": "address",
          "name": "_by",
          "type": "address"
        },
        {
          "indexed": false,
          "internalType": "string",
          "name": "oldVal",
          "type": "string"
        },
        {
          "indexed": false,
          "internalType": "string",
          "name": "newVal",
          "type": "string"
        }
      ],
      "name": "BaseURIUpdated",
      "type": "event"
    },
    {
      "anonymous": false,
      "inputs": [
        {
          "indexed": true,
          "internalType": "address",
          "name": "beacon",
          "type": "address"
        }
      ],
      "name": "BeaconUpgraded",
      "type": "event"
    },
    {
      "anonymous": false,
      "inputs": [
        {
          "indexed": true,
          "internalType": "address",
          "name": "_by",
          "type": "address"
        },
        {
          "indexed": true,
          "internalType": "address",
          "name": "_from",
          "type": "address"
        },
        {
          "indexed": true,
          "internalType": "uint256",
          "name": "_tokenId",
          "type": "uint256"
        }
      ],
      "name": "Burnt",
      "type": "event"
    },
    {
      "anonymous": false,
      "inputs": [
        {
          "indexed": false,
          "internalType": "uint8",
          "name": "version",
          "type": "uint8"
        }
      ],
      "name": "Initialized",
      "type": "event"
    },
    {
      "anonymous": false,
      "inputs": [
        {
          "indexed": true,
          "internalType": "address",
          "name": "_by",
          "type": "address"
        },
        {
          "indexed": true,
          "internalType": "address",
          "name": "_to",
          "type": "address"
        },
        {
          "indexed": true,
          "internalType": "uint256",
          "name": "_tokenId",
          "type": "uint256"
        }
      ],
      "name": "Minted",
      "type": "event"
    },
    {
      "anonymous": false,
      "inputs": [
        {
          "indexed": true,
          "internalType": "address",
          "name": "_by",
          "type": "address"
        },
        {
          "indexed": true,
          "internalType": "address",
          "name": "_to",
          "type": "address"
        },
        {
          "indexed": false,
          "internalType": "uint256",
          "name": "_requested",
          "type": "uint256"
        },
        {
          "indexed": false,
          "internalType": "uint256",
          "name": "_actual",
          "type": "uint256"
        }
      ],
      "name": "RoleUpdated",
      "type": "event"
    },
    {
      "anonymous": false,
      "inputs": [
        {
          "indexed": true,
          "internalType": "address",
          "name": "_by",
          "type": "address"
        },
        {
          "indexed": false,
          "internalType": "uint256",
          "name": "tokenId",
          "type": "uint256"
        },
        {
          "indexed": false,
          "internalType": "string",
          "name": "oldVal",
          "type": "string"
        },
        {
          "indexed": false,
          "internalType": "string",
          "name": "newVal",
          "type": "string"
        }
      ],
      "name": "TokenURIUpdated",
      "type": "event"
    },
    {
      "anonymous": false,
      "inputs": [
        {
          "indexed": true,
          "internalType": "address",
          "name": "from",
          "type": "address"
        },
        {
          "indexed": true,
          "internalType": "address",
          "name": "to",
          "type": "address"
        },
        {
          "indexed": true,
          "internalType": "uint256",
          "name": "tokenId",
          "type": "uint256"
        }
      ],
      "name": "Transfer",
      "type": "event"
    },
    {
      "anonymous": false,
      "inputs": [
        {
          "indexed": true,
          "internalType": "address",
          "name": "implementation",
          "type": "address"
        }
      ],
      "name": "Upgraded",
      "type": "event"
    },
    {
      "inputs": [],
      "name": "FEATURE_BURNS_ON_BEHALF",
      "outputs": [
        {
          "internalType": "uint32",
          "name": "",
          "type": "uint32"
        }
      ],
      "stateMutability": "view",
      "type": "function"
    },
    {
      "inputs": [],
      "name": "FEATURE_OWN_BURNS",
      "outputs": [
        {
          "internalType": "uint32",
          "name": "",
          "type": "uint32"
        }
      ],
      "stateMutability": "view",
      "type": "function"
    },
    {
      "inputs": [],
      "name": "FEATURE_TRANSFERS",
      "outputs": [
        {
          "internalType": "uint32",
          "name": "",
          "type": "uint32"
        }
      ],
      "stateMutability": "view",
      "type": "function"
    },
    {
      "inputs": [],
      "name": "FEATURE_TRANSFERS_ON_BEHALF",
      "outputs": [
        {
          "internalType": "uint32",
          "name": "",
          "type": "uint32"
        }
      ],
      "stateMutability": "view",
      "type": "function"
    },
    {
      "inputs": [],
      "name": "ROLE_ACCESS_MANAGER",
      "outputs": [
        {
          "internalType": "uint256",
          "name": "",
          "type": "uint256"
        }
      ],
      "stateMutability": "view",
      "type": "function"
    },
    {
      "inputs": [],
      "name": "ROLE_RESCUE_MANAGER",
      "outputs": [
        {
          "internalType": "uint32",
          "name": "",
          "type": "uint32"
        }
      ],
      "stateMutability": "view",
      "type": "function"
    },
    {
      "inputs": [],
      "name": "ROLE_TOKEN_CREATOR",
      "outputs": [
        {
          "internalType": "uint32",
          "name": "",
          "type": "uint32"
        }
      ],
      "stateMutability": "view",
      "type": "function"
    },
    {
      "inputs": [],
      "name": "ROLE_TOKEN_DESTROYER",
      "outputs": [
        {
          "internalType": "uint32",
          "name": "",
          "type": "uint32"
        }
      ],
      "stateMutability": "view",
      "type": "function"
    },
    {
      "inputs": [],
      "name": "ROLE_UPGRADE_MANAGER",
      "outputs": [
        {
          "internalType": "uint256",
          "name": "",
          "type": "uint256"
        }
      ],
      "stateMutability": "view",
      "type": "function"
    },
    {
      "inputs": [],
      "name": "ROLE_URI_MANAGER",
      "outputs": [
        {
          "internalType": "uint32",
          "name": "",
          "type": "uint32"
        }
      ],
      "stateMutability": "view",
      "type": "function"
    },
    {
      "inputs": [
        {
          "internalType": "address",
          "name": "to",
          "type": "address"
        },
        {
          "internalType": "uint256",
          "name": "tokenId",
          "type": "uint256"
        }
      ],
      "name": "approve",
      "outputs": [],
      "stateMutability": "nonpayable",
      "type": "function"
    },
    {
      "inputs": [
        {
          "internalType": "address",
          "name": "owner",
          "type": "address"
        }
      ],
      "name": "balanceOf",
      "outputs": [
        {
          "internalType": "uint256",
          "name": "",
          "type": "uint256"
        }
      ],
      "stateMutability": "view",
      "type": "function"
    },
    {
      "inputs": [],
      "name": "baseURI",
      "outputs": [
        {
          "internalType": "string",
          "name": "",
          "type": "string"
        }
      ],
      "stateMutability": "view",
      "type": "function"
    },
    {
      "inputs": [
        {
          "internalType": "uint256",
          "name": "_tokenId",
          "type": "uint256"
        }
      ],
      "name": "burn",
      "outputs": [],
      "stateMutability": "nonpayable",
      "type": "function"
    },
    {
      "inputs": [
        {
          "internalType": "address",
          "name": "operator",
          "type": "address"
        },
        {
          "internalType": "uint256",
          "name": "target",
          "type": "uint256"
        },
        {
          "internalType": "uint256",
          "name": "desired",
          "type": "uint256"
        }
      ],
      "name": "evaluateBy",
      "outputs": [
        {
          "internalType": "uint256",
          "name": "",
          "type": "uint256"
        }
      ],
      "stateMutability": "view",
      "type": "function"
    },
    {
      "inputs": [
        {
          "internalType": "uint256",
          "name": "_tokenId",
          "type": "uint256"
        }
      ],
      "name": "exists",
      "outputs": [
        {
          "internalType": "bool",
          "name": "",
          "type": "bool"
        }
      ],
      "stateMutability": "view",
      "type": "function"
    },
    {
      "inputs": [],
      "name": "features",
      "outputs": [
        {
          "internalType": "uint256",
          "name": "",
          "type": "uint256"
        }
      ],
      "stateMutability": "view",
      "type": "function"
    },
    {
      "inputs": [
        {
          "internalType": "uint256",
          "name": "tokenId",
          "type": "uint256"
        }
      ],
      "name": "getApproved",
      "outputs": [
        {
          "internalType": "address",
          "name": "",
          "type": "address"
        }
      ],
      "stateMutability": "view",
      "type": "function"
    },
    {
      "inputs": [],
      "name": "getImplementation",
      "outputs": [
        {
          "internalType": "address",
          "name": "",
          "type": "address"
        }
      ],
      "stateMutability": "view",
      "type": "function"
    },
    {
      "inputs": [
        {
          "internalType": "address",
          "name": "owner",
          "type": "address"
        },
        {
          "internalType": "address",
          "name": "operator",
          "type": "address"
        }
      ],
      "name": "isApprovedForAll",
      "outputs": [
        {
          "internalType": "bool",
          "name": "",
          "type": "bool"
        }
      ],
      "stateMutability": "view",
      "type": "function"
    },
    {
      "inputs": [
        {
          "internalType": "uint256",
          "name": "required",
          "type": "uint256"
        }
      ],
      "name": "isFeatureEnabled",
      "outputs": [
        {
          "internalType": "bool",
          "name": "",
          "type": "bool"
        }
      ],
      "stateMutability": "view",
      "type": "function"
    },
    {
      "inputs": [
        {
          "internalType": "address",
          "name": "operator",
          "type": "address"
        },
        {
          "internalType": "uint256",
          "name": "required",
          "type": "uint256"
        }
      ],
      "name": "isOperatorInRole",
      "outputs": [
        {
          "internalType": "bool",
          "name": "",
          "type": "bool"
        }
      ],
      "stateMutability": "view",
      "type": "function"
    },
    {
      "inputs": [
        {
          "internalType": "uint256",
          "name": "required",
          "type": "uint256"
        }
      ],
      "name": "isSenderInRole",
      "outputs": [
        {
          "internalType": "bool",
          "name": "",
          "type": "bool"
        }
      ],
      "stateMutability": "view",
      "type": "function"
    },
    {
      "inputs": [
        {
          "internalType": "address",
          "name": "_to",
          "type": "address"
        },
        {
          "internalType": "uint256",
          "name": "_tokenId",
          "type": "uint256"
        }
      ],
      "name": "mint",
      "outputs": [],
      "stateMutability": "nonpayable",
      "type": "function"
    },
    {
      "inputs": [],
      "name": "name",
      "outputs": [
        {
          "internalType": "string",
          "name": "",
          "type": "string"
        }
      ],
      "stateMutability": "view",
      "type": "function"
    },
    {
      "inputs": [
        {
          "internalType": "uint256",
          "name": "tokenId",
          "type": "uint256"
        }
      ],
      "name": "ownerOf",
      "outputs": [
        {
          "internalType": "address",
          "name": "",
          "type": "address"
        }
      ],
      "stateMutability": "view",
      "type": "function"
    },
    {
      "inputs": [
        {
          "internalType": "string",
          "name": "_name",
          "type": "string"
        },
        {
          "internalType": "string",
          "name": "_symbol",
          "type": "string"
        }
      ],
      "name": "postConstruct",
      "outputs": [],
      "stateMutability": "nonpayable",
      "type": "function"
    },
    {
      "inputs": [],
      "name": "proxiableUUID",
      "outputs": [
        {
          "internalType": "bytes32",
          "name": "",
          "type": "bytes32"
        }
      ],
      "stateMutability": "view",
      "type": "function"
    },
    {
      "inputs": [
        {
          "internalType": "address",
          "name": "_contract",
          "type": "address"
        },
        {
          "internalType": "address",
          "name": "_to",
          "type": "address"
        },
        {
          "internalType": "uint256",
          "name": "_value",
          "type": "uint256"
        }
      ],
      "name": "rescueErc20",
      "outputs": [],
      "stateMutability": "nonpayable",
      "type": "function"
    },
    {
      "inputs": [
        {
          "internalType": "address",
          "name": "_to",
          "type": "address"
        },
        {
          "internalType": "uint256",
          "name": "_tokenId",
          "type": "uint256"
        },
        {
          "internalType": "bytes",
          "name": "_data",
          "type": "bytes"
        }
      ],
      "name": "safeMint",
      "outputs": [],
      "stateMutability": "nonpayable",
      "type": "function"
    },
    {
      "inputs": [
        {
          "internalType": "address",
          "name": "_to",
          "type": "address"
        },
        {
          "internalType": "uint256",
          "name": "_tokenId",
          "type": "uint256"
        }
      ],
      "name": "safeMint",
      "outputs": [],
      "stateMutability": "nonpayable",
      "type": "function"
    },
    {
      "inputs": [
        {
          "internalType": "address",
          "name": "from",
          "type": "address"
        },
        {
          "internalType": "address",
          "name": "to",
          "type": "address"
        },
        {
          "internalType": "uint256",
          "name": "tokenId",
          "type": "uint256"
        }
      ],
      "name": "safeTransferFrom",
      "outputs": [],
      "stateMutability": "nonpayable",
      "type": "function"
    },
    {
      "inputs": [
        {
          "internalType": "address",
          "name": "from",
          "type": "address"
        },
        {
          "internalType": "address",
          "name": "to",
          "type": "address"
        },
        {
          "internalType": "uint256",
          "name": "tokenId",
          "type": "uint256"
        },
        {
          "internalType": "bytes",
          "name": "data",
          "type": "bytes"
        }
      ],
      "name": "safeTransferFrom",
      "outputs": [],
      "stateMutability": "nonpayable",
      "type": "function"
    },
    {
      "inputs": [
        {
          "internalType": "address",
          "name": "operator",
          "type": "address"
        },
        {
          "internalType": "bool",
          "name": "approved",
          "type": "bool"
        }
      ],
      "name": "setApprovalForAll",
      "outputs": [],
      "stateMutability": "nonpayable",
      "type": "function"
    },
    {
      "inputs": [
        {
          "internalType": "string",
          "name": "__baseURI",
          "type": "string"
        }
      ],
      "name": "setBaseURI",
      "outputs": [],
      "stateMutability": "nonpayable",
      "type": "function"
    },
    {
      "inputs": [
        {
          "internalType": "uint256",
          "name": "_tokenId",
          "type": "uint256"
        },
        {
          "internalType": "string",
          "name": "_tokenURI",
          "type": "string"
        }
      ],
      "name": "setTokenURI",
      "outputs": [],
      "stateMutability": "nonpayable",
      "type": "function"
    },
    {
      "inputs": [
        {
          "internalType": "bytes4",
          "name": "interfaceId",
          "type": "bytes4"
        }
      ],
      "name": "supportsInterface",
      "outputs": [
        {
          "internalType": "bool",
          "name": "",
          "type": "bool"
        }
      ],
      "stateMutability": "view",
      "type": "function"
    },
    {
      "inputs": [],
      "name": "symbol",
      "outputs": [
        {
          "internalType": "string",
          "name": "",
          "type": "string"
        }
      ],
      "stateMutability": "view",
      "type": "function"
    },
    {
      "inputs": [
        {
          "internalType": "uint256",
          "name": "index",
          "type": "uint256"
        }
      ],
      "name": "tokenByIndex",
      "outputs": [
        {
          "internalType": "uint256",
          "name": "",
          "type": "uint256"
        }
      ],
      "stateMutability": "view",
      "type": "function"
    },
    {
      "inputs": [
        {
          "internalType": "address",
          "name": "owner",
          "type": "address"
        },
        {
          "internalType": "uint256",
          "name": "index",
          "type": "uint256"
        }
      ],
      "name": "tokenOfOwnerByIndex",
      "outputs": [
        {
          "internalType": "uint256",
          "name": "",
          "type": "uint256"
        }
      ],
      "stateMutability": "view",
      "type": "function"
    },
    {
      "inputs": [
        {
          "internalType": "uint256",
          "name": "_tokenId",
          "type": "uint256"
        }
      ],
      "name": "tokenURI",
      "outputs": [
        {
          "internalType": "string",
          "name": "",
          "type": "string"
        }
      ],
      "stateMutability": "view",
      "type": "function"
    },
    {
      "inputs": [],
      "name": "totalSupply",
      "outputs": [
        {
          "internalType": "uint256",
          "name": "",
          "type": "uint256"
        }
      ],
      "stateMutability": "view",
      "type": "function"
    },
    {
      "inputs": [
        {
          "internalType": "address",
          "name": "from",
          "type": "address"
        },
        {
          "internalType": "address",
          "name": "to",
          "type": "address"
        },
        {
          "internalType": "uint256",
          "name": "tokenId",
          "type": "uint256"
        }
      ],
      "name": "transferFrom",
      "outputs": [],
      "stateMutability": "nonpayable",
      "type": "function"
    },
    {
      "inputs": [
        {
          "internalType": "uint256",
          "name": "_mask",
          "type": "uint256"
        }
      ],
      "name": "updateFeatures",
      "outputs": [],
      "stateMutability": "nonpayable",
      "type": "function"
    },
    {
      "inputs": [
        {
          "internalType": "address",
          "name": "operator",
          "type": "address"
        },
        {
          "internalType": "uint256",
          "name": "role",
          "type": "uint256"
        }
      ],
      "name": "updateRole",
      "outputs": [],
      "stateMutability": "nonpayable",
      "type": "function"
    },
    {
      "inputs": [
        {
          "internalType": "address",
          "name": "newImplementation",
          "type": "address"
        }
      ],
      "name": "upgradeTo",
      "outputs": [],
      "stateMutability": "nonpayable",
      "type": "function"
    },
    {
      "inputs": [
        {
          "internalType": "address",
          "name": "newImplementation",
          "type": "address"
        },
        {
          "internalType": "bytes",
          "name": "data",
          "type": "bytes"
        }
      ],
      "name": "upgradeToAndCall",
      "outputs": [],
      "stateMutability": "payable",
      "type": "function"
    },
    {
      "inputs": [
        {
          "internalType": "address",
          "name": "",
          "type": "address"
        }
      ],
      "name": "userRoles",
      "outputs": [
        {
          "internalType": "uint256",
          "name": "",
          "type": "uint256"
        }
      ],
      "stateMutability": "view",
      "type": "function"
    }
  ],
  "transactionHash": "0xde0bffde98c16692ebccc047024a8f87d09456913611e918ca1c6cd2ced5b8a6",
  "args": [],
  "numDeployments": 1,
  "solcInputHash": "061bbe85d756b37cf42981243fe3b858",
  "bytecode": "0x60a06040523060805234801561001457600080fd5b5060805161386161004c60003960008181610bf701528181610c3701528181610cee01528181610d2e0152610e5801526138616000f3fe6080604052600436106102935760003560e01c806370a082311161015a578063ae60bda4116100c1578063d5bb7f671161007a578063d5bb7f67146107a9578063e62cac76146107c9578063e985e9c5146107e0578063f63c2f8214610800578063f822d5aa14610815578063fcc2c0781461083557600080fd5b8063ae60bda414610704578063ae682e2e1461071c578063b88d4fde14610734578063c0d6568d14610754578063c688d69314610769578063c87b56dd1461078957600080fd5b80638f6fba8c116101135780638f6fba8c1461066557806395d89b411461067a578063a14481941461068f578063a22cb465146106af578063aaf10f42146106cf578063ae5b102e146106e457600080fd5b806370a08231146105a0578063725f3626146105c057806374d5e100146105e05780638832e6e31461060e5780638a2b96081461062e5780638d4e57e61461064e57600080fd5b80632f745c59116101fe5780634f558e79116101b75780634f558e79146104f65780634f6ccce71461051657806352d1902d1461053657806355f804b31461054b5780636352211e1461056b5780636c0360eb1461058b57600080fd5b80632f745c59146104435780633659cfe61461046357806340c10f191461048357806342842e0e146104a357806342966c68146104c35780634f1ef286146104e357600080fd5b806318160ddd1161025057806318160ddd146103955780631a0b04ea146103b457806323b872dd146103c9578063243feb99146103e95780632b521416146104095780632d17f8bc1461042c57600080fd5b806301ffc9a71461029857806306fdde03146102cd578063081812fc146102ef578063095ea7b31461032757806314b7b4e114610349578063162094c414610375575b600080fd5b3480156102a457600080fd5b506102b86102b3366004612efd565b610855565b60405190151581526020015b60405180910390f35b3480156102d957600080fd5b506102e261089c565b6040516102c49190612f72565b3480156102fb57600080fd5b5061030f61030a366004612f85565b61092e565b6040516001600160a01b0390911681526020016102c4565b34801561033357600080fd5b50610347610342366004612fba565b610955565b005b34801561035557600080fd5b506103606204000081565b60405163ffffffff90911681526020016102c4565b34801561038157600080fd5b50610347610390366004613087565b610a70565b3480156103a157600080fd5b506099545b6040519081526020016102c4565b3480156103c057600080fd5b50610360600881565b3480156103d557600080fd5b506103476103e43660046130ce565b610ae9565b3480156103f557600080fd5b506103476104043660046130ce565b610b1a565b34801561041557600080fd5b5030600090815261015f60205260409020546103a6565b34801561043857600080fd5b506103606208000081565b34801561044f57600080fd5b506103a661045e366004612fba565b610b56565b34801561046f57600080fd5b5061034761047e36600461310a565b610bec565b34801561048f57600080fd5b5061034761049e366004612fba565b610cb5565b3480156104af57600080fd5b506103476104be3660046130ce565b610cbf565b3480156104cf57600080fd5b506103476104de366004612f85565b610cda565b6103476104f1366004613125565b610ce3565b34801561050257600080fd5b506102b8610511366004612f85565b610d99565b34801561052257600080fd5b506103a6610531366004612f85565b610db8565b34801561054257600080fd5b506103a6610e4b565b34801561055757600080fd5b5061034761056636600461315d565b610efe565b34801561057757600080fd5b5061030f610586366004612f85565b610f7f565b34801561059757600080fd5b506102e2610fdf565b3480156105ac57600080fd5b506103a66105bb36600461310a565b61106e565b3480156105cc57600080fd5b506102b86105db366004612f85565b6110f4565b3480156105ec57600080fd5b506103a66105fb36600461310a565b61015f6020526000908152604090205481565b34801561061a57600080fd5b50610347610629366004613192565b61110e565b34801561063a57600080fd5b506103476106493660046131e9565b611119565b34801561065a57600080fd5b506103606201000081565b34801561067157600080fd5b50610360600281565b34801561068657600080fd5b506102e26111e7565b34801561069b57600080fd5b506103476106aa366004612fba565b6111f6565b3480156106bb57600080fd5b506103476106ca366004613251565b611200565b3480156106db57600080fd5b5061030f61120b565b3480156106f057600080fd5b506103476106ff366004612fba565b61121a565b34801561071057600080fd5b506103a6600160fe1b81565b34801561072857600080fd5b506103a6600160ff1b81565b34801561074057600080fd5b5061034761074f366004613288565b6112cf565b34801561076057600080fd5b50610360600181565b34801561077557600080fd5b506102b8610784366004612fba565b611307565b34801561079557600080fd5b506102e26107a4366004612f85565b61132d565b3480156107b557600080fd5b506103476107c4366004612f85565b611338565b3480156107d557600080fd5b506103606202000081565b3480156107ec57600080fd5b506102b86107fb3660046132f0565b611342565b34801561080c57600080fd5b50610360601081565b34801561082157600080fd5b506103a6610830366004613323565b611370565b34801561084157600080fd5b506102b8610850366004612f85565b61139c565b6000610860826113a8565b8061087b57506001600160e01b031982166326e2e61760e01b145b8061089657506001600160e01b03198216630852cd8d60e31b145b92915050565b6060606580546108ab90613356565b80601f01602080910402602001604051908101604052809291908181526020018280546108d790613356565b80156109245780601f106108f957610100808354040283529160200191610924565b820191906000526020600020905b81548152906001019060200180831161090757829003601f168201915b5050505050905090565b6000610939826113cd565b506000908152606960205260409020546001600160a01b031690565b600061096082610f7f565b9050806001600160a01b0316836001600160a01b031614156109d35760405162461bcd60e51b815260206004820152602160248201527f4552433732313a20617070726f76616c20746f2063757272656e74206f776e656044820152603960f91b60648201526084015b60405180910390fd5b336001600160a01b03821614806109ef57506109ef8133611342565b610a615760405162461bcd60e51b815260206004820152603d60248201527f4552433732313a20617070726f76652063616c6c6572206973206e6f7420746f60448201527f6b656e206f776e6572206f7220617070726f76656420666f7220616c6c00000060648201526084016109ca565b610a6b838361142c565b505050565b610a7c6204000061139c565b610a985760405162461bcd60e51b81526004016109ca90613391565b336001600160a01b03167f7989fff0ffb34805e8b3574b890ed6157f85a384c69b9a0c04991b24cabb82598383604051610ad39291906133b8565b60405180910390a2610ae5828261149a565b5050565b610af333826114a4565b610b0f5760405162461bcd60e51b81526004016109ca906133f0565b610a6b838383611503565b610b266208000061139c565b610b425760405162461bcd60e51b81526004016109ca90613391565b610a6b6001600160a01b0384168383611674565b6000610b618361106e565b8210610bc35760405162461bcd60e51b815260206004820152602b60248201527f455243373231456e756d657261626c653a206f776e657220696e646578206f7560448201526a74206f6620626f756e647360a81b60648201526084016109ca565b506001600160a01b03919091166000908152609760209081526040808320938352929052205490565b306001600160a01b037f0000000000000000000000000000000000000000000000000000000000000000161415610c355760405162461bcd60e51b81526004016109ca9061343d565b7f00000000000000000000000000000000000000000000000000000000000000006001600160a01b0316610c676116c6565b6001600160a01b031614610c8d5760405162461bcd60e51b81526004016109ca90613489565b610c96816116e2565b60408051600080825260208201909252610cb29183919061170b565b50565b610ae58282611876565b610a6b838383604051806020016040528060008152506112cf565b610cb2816118e4565b306001600160a01b037f0000000000000000000000000000000000000000000000000000000000000000161415610d2c5760405162461bcd60e51b81526004016109ca9061343d565b7f00000000000000000000000000000000000000000000000000000000000000006001600160a01b0316610d5e6116c6565b6001600160a01b031614610d845760405162461bcd60e51b81526004016109ca90613489565b610d8d826116e2565b610ae58282600161170b565b6000818152606760205260408120546001600160a01b03161515610896565b6000610dc360995490565b8210610e265760405162461bcd60e51b815260206004820152602c60248201527f455243373231456e756d657261626c653a20676c6f62616c20696e646578206f60448201526b7574206f6620626f756e647360a01b60648201526084016109ca565b60998281548110610e3957610e396134d5565b90600052602060002001549050919050565b6000306001600160a01b037f00000000000000000000000000000000000000000000000000000000000000001614610eeb5760405162461bcd60e51b815260206004820152603860248201527f555550535570677261646561626c653a206d757374206e6f742062652063616c60448201527f6c6564207468726f7567682064656c656761746563616c6c000000000000000060648201526084016109ca565b506000805160206137e583398151915290565b610f0a6204000061139c565b610f265760405162461bcd60e51b81526004016109ca90613391565b336001600160a01b03167fac455070f26733cc10c09e4389a74bf73bdb676d730ee31215c31d20daa8800561019183604051610f639291906134eb565b60405180910390a28051610ae590610191906020840190612e18565b6000818152606760205260408120546001600160a01b0316806108965760405162461bcd60e51b8152602060048201526018602482015277115490cdcc8c4e881a5b9d985b1a59081d1bdad95b88125160421b60448201526064016109ca565b6101918054610fed90613356565b80601f016020809104026020016040519081016040528092919081815260200182805461101990613356565b80156110665780601f1061103b57610100808354040283529160200191611066565b820191906000526020600020905b81548152906001019060200180831161104957829003601f168201915b505050505081565b60006001600160a01b0382166110d85760405162461bcd60e51b815260206004820152602960248201527f4552433732313a2061646472657373207a65726f206973206e6f7420612076616044820152683634b21037bbb732b960b91b60648201526084016109ca565b506001600160a01b031660009081526068602052604090205490565b30600090815261015f602052604081205482168214610896565b610a6b838383611a79565b600054610100900460ff16158080156111395750600054600160ff909116105b806111535750303b158015611153575060005460ff166001145b61116f5760405162461bcd60e51b81526004016109ca9061359e565b6000805460ff191660011790558015611192576000805461ff0019166101001790555b61119d838333611aac565b8015610a6b576000805461ff0019169055604051600181527f7f26b83ff96e1f2b6a682f133852f6798a09c465da95921460cefb38474024989060200160405180910390a1505050565b6060606680546108ab90613356565b610ae58282611b93565b610ae5338383611bad565b60006112156116c6565b905090565b611227600160ff1b61139c565b6112435760405162461bcd60e51b81526004016109ca90613391565b6001600160a01b038216600090815261015f602052604090205461126990339083611370565b6001600160a01b038316600081815261015f60205260409081902083905551909133917f5a10526456f5116c0b7b80582c217d666243fd51b6a2d92c8011e601c2462e5f916112c391869190918252602082015260400190565b60405180910390a35050565b6112d933836114a4565b6112f55760405162461bcd60e51b81526004016109ca906133f0565b61130184848484611c7c565b50505050565b6001600160a01b038216600090815261015f6020526040812054821682145b9392505050565b606061089682611caf565b610cb2308261121a565b6001600160a01b039182166000908152606a6020908152604080832093909416825291909152205460ff1690565b6001600160a01b0392909216600090815261015f60205260409020546000198084188216189216171690565b60006108963383611307565b60006001600160e01b0319821663780e9d6360e01b1480610896575061089682611dab565b6000818152606760205260409020546001600160a01b0316610cb25760405162461bcd60e51b8152602060048201526018602482015277115490cdcc8c4e881a5b9d985b1a59081d1bdad95b88125160421b60448201526064016109ca565b600081815260696020526040902080546001600160a01b0319166001600160a01b038416908117909155819061146182610f7f565b6001600160a01b03167f8c5be1e5ebec7d5bd14f71427d1e84f3dd0314c0f7b2291e5b200ac8c7c3b92560405160405180910390a45050565b610ae58282611dfb565b6000806114b083610f7f565b9050806001600160a01b0316846001600160a01b031614806114d757506114d78185611342565b806114fb5750836001600160a01b03166114f08461092e565b6001600160a01b0316145b949350505050565b826001600160a01b031661151682610f7f565b6001600160a01b03161461153c5760405162461bcd60e51b81526004016109ca906135ec565b6001600160a01b03821661159e5760405162461bcd60e51b8152602060048201526024808201527f4552433732313a207472616e7366657220746f20746865207a65726f206164646044820152637265737360e01b60648201526084016109ca565b6115ab8383836001611e95565b826001600160a01b03166115be82610f7f565b6001600160a01b0316146115e45760405162461bcd60e51b81526004016109ca906135ec565b600081815260696020908152604080832080546001600160a01b03199081169091556001600160a01b0387811680865260688552838620805460001901905590871680865283862080546001019055868652606790945282852080549092168417909155905184937fddf252ad1be2c89b69c2b068fc378daa952ba7f163c4a11628f55a4df523b3ef91a4505050565b604080516001600160a01b038416602482015260448082018490528251808303909101815260649091019091526020810180516001600160e01b031663a9059cbb60e01b179052610a6b908490611f9f565b6000805160206137e5833981519152546001600160a01b031690565b6116ef600160fe1b61139c565b610cb25760405162461bcd60e51b81526004016109ca90613391565b7f4910fdfa16fed3260ed0e7147f7cc6da11a60208b5b9406d12a635614ffd91435460ff161561173e57610a6b83612056565b826001600160a01b03166352d1902d6040518163ffffffff1660e01b8152600401602060405180830381865afa925050508015611798575060408051601f3d908101601f1916820190925261179591810190613631565b60015b6117fb5760405162461bcd60e51b815260206004820152602e60248201527f45524331393637557067726164653a206e657720696d706c656d656e7461746960448201526d6f6e206973206e6f74205555505360901b60648201526084016109ca565b6000805160206137e5833981519152811461186a5760405162461bcd60e51b815260206004820152602960248201527f45524331393637557067726164653a20756e737570706f727465642070726f786044820152681a58589b195555525160ba1b60648201526084016109ca565b50610a6b8383836120f2565b6118826201000061139c565b61189e5760405162461bcd60e51b81526004016109ca90613391565b6118a88282612117565b60405181906001600160a01b0384169033907f9d228d69b5fdb8d273a2336f8fb8612d039631024ea9bf09c424a9503aa078f090600090a45050565b60006118ef82610f7f565b90506118fd6202000061139c565b611a34576001600160a01b0381163314801561191e575061191e60086110f4565b8061194257506001600160a01b0381163314801590611942575061194260106110f4565b6001600160a01b038216331461198d576040518060400160405280601c81526020017f6275726e73206f6e20626568616c66206172652064697361626c6564000000008152506119b9565b60405180604001604052806012815260200171189d5c9b9cc8185c9948191a5cd8589b195960721b8152505b906119d75760405162461bcd60e51b81526004016109ca9190612f72565b50336001600160a01b0382161480611a0857506119f38261092e565b6001600160a01b0316336001600160a01b0316145b80611a185750611a188133611342565b611a345760405162461bcd60e51b81526004016109ca90613391565b611a3d826122b0565b60405182906001600160a01b0383169033907fe8a89cc6e5096f9d9f43de82c077c1f4cfe707c0e0c2032176c68813b9ae6a5c90600090a45050565b611a838383611876565b611a9060008484846122f0565b610a6b5760405162461bcd60e51b81526004016109ca9061364a565b600054610100900460ff1615808015611acc5750600054600160ff909116105b80611ae65750303b158015611ae6575060005460ff166001145b611b025760405162461bcd60e51b81526004016109ca9061359e565b6000805460ff191660011790558015611b25576000805461ff0019166101001790555b611b2f84846123ee565b611b3761241f565b611b3f61241f565b611b4882612448565b8015611301576000805461ff0019169055604051600181527f7f26b83ff96e1f2b6a682f133852f6798a09c465da95921460cefb38474024989060200160405180910390a150505050565b610ae5828260405180602001604052806000815250611a79565b816001600160a01b0316836001600160a01b03161415611c0f5760405162461bcd60e51b815260206004820152601960248201527f4552433732313a20617070726f766520746f2063616c6c65720000000000000060448201526064016109ca565b6001600160a01b038381166000818152606a6020908152604080832094871680845294825291829020805460ff191686151590811790915591519182527f17307eab39ab6107e8899845ad3d59bd9653f200f220920489ca2b5937696c31910160405180910390a3505050565b611c87848484611503565b611c93848484846122f0565b6113015760405162461bcd60e51b81526004016109ca9061364a565b6060611cba826113cd565b600082815260c9602052604081208054611cd390613356565b80601f0160208091040260200160405190810160405280929190818152602001828054611cff90613356565b8015611d4c5780601f10611d2157610100808354040283529160200191611d4c565b820191906000526020600020905b815481529060010190602001808311611d2f57829003601f168201915b505050505090506000611d5d6125a5565b9050805160001415611d70575092915050565b815115611da2578082604051602001611d8a92919061369c565b60405160208183030381529060405292505050919050565b6114fb846125b5565b60006001600160e01b031982166380ac58cd60e01b1480611ddc57506001600160e01b03198216635b5e139f60e01b145b8061089657506301ffc9a760e01b6001600160e01b0319831614610896565b6000828152606760205260409020546001600160a01b0316611e765760405162461bcd60e51b815260206004820152602e60248201527f45524337323155524953746f726167653a2055524920736574206f66206e6f6e60448201526d32bc34b9ba32b73a103a37b5b2b760911b60648201526084016109ca565b600082815260c9602090815260409091208251610a6b92840190612e18565b6001600160a01b0384161580611eb257506001600160a01b038316155b80611ed557506001600160a01b03841633148015611ed55750611ed560016110f4565b80611ef957506001600160a01b0384163314801590611ef95750611ef960026110f4565b6001600160a01b0385163314611f44576040518060400160405280602081526020017f7472616e7366657273206f6e20626568616c66206172652064697361626c6564815250611f74565b604051806040016040528060168152602001751d1c985b9cd9995c9cc8185c9948191a5cd8589b195960521b8152505b90611f925760405162461bcd60e51b81526004016109ca9190612f72565b506113018484848461261b565b6000611ff4826040518060400160405280601b81526020017f4552433230206c6f772d6c6576656c2063616c6c206661696c65640000000000815250856001600160a01b031661274f9092919063ffffffff16565b805190915015610a6b578080602001905181019061201291906136cb565b610a6b5760405162461bcd60e51b8152602060048201526015602482015274115490cc8c081d1c985b9cd9995c8819985a5b1959605a1b60448201526064016109ca565b6001600160a01b0381163b6120c35760405162461bcd60e51b815260206004820152602d60248201527f455243313936373a206e657720696d706c656d656e746174696f6e206973206e60448201526c1bdd08184818dbdb9d1c9858dd609a1b60648201526084016109ca565b6000805160206137e583398151915280546001600160a01b0319166001600160a01b0392909216919091179055565b6120fb8361275e565b6000825111806121085750805b15610a6b57611301838361279e565b6001600160a01b03821661216d5760405162461bcd60e51b815260206004820181905260248201527f4552433732313a206d696e7420746f20746865207a65726f206164647265737360448201526064016109ca565b6000818152606760205260409020546001600160a01b0316156121d25760405162461bcd60e51b815260206004820152601c60248201527f4552433732313a20746f6b656e20616c7265616479206d696e7465640000000060448201526064016109ca565b6121e0600083836001611e95565b6000818152606760205260409020546001600160a01b0316156122455760405162461bcd60e51b815260206004820152601c60248201527f4552433732313a20746f6b656e20616c7265616479206d696e7465640000000060448201526064016109ca565b6001600160a01b038216600081815260686020908152604080832080546001019055848352606790915280822080546001600160a01b0319168417905551839291907fddf252ad1be2c89b69c2b068fc378daa952ba7f163c4a11628f55a4df523b3ef908290a45050565b6122b981612892565b600081815260c96020526040902080546122d290613356565b159050610cb257600081815260c960205260408120610cb291612e9c565b60006001600160a01b0384163b156123e357604051630a85bd0160e11b81526001600160a01b0385169063150b7a02906123349033908990889088906004016136e8565b6020604051808303816000875af192505050801561236f575060408051601f3d908101601f1916820190925261236c91810190613725565b60015b6123c9573d80801561239d576040519150601f19603f3d011682016040523d82523d6000602084013e6123a2565b606091505b5080516123c15760405162461bcd60e51b81526004016109ca9061364a565b805181602001fd5b6001600160e01b031916630a85bd0160e11b1490506114fb565b506001949350505050565b600054610100900460ff166124155760405162461bcd60e51b81526004016109ca90613742565b610ae58282612935565b600054610100900460ff166124465760405162461bcd60e51b81526004016109ca90613742565b565b600054610100900460ff16158080156124685750600054600160ff909116105b806124825750303b158015612482575060005460ff166001145b61249e5760405162461bcd60e51b81526004016109ca9061359e565b6000805460ff1916600117905580156124c1576000805461ff0019166101001790555b303b156125025760405162461bcd60e51b815260206004820152600f60248201526e1a5b9d985b1a590818dbdb9d195e1d608a1b60448201526064016109ca565b6001600160a01b038216600081815261015f60209081526040918290206000199081905582518181529182015233917f5a10526456f5116c0b7b80582c217d666243fd51b6a2d92c8011e601c2462e5f910160405180910390a38015610ae5576000805461ff0019169055604051600181527f7f26b83ff96e1f2b6a682f133852f6798a09c465da95921460cefb38474024989060200160405180910390a15050565b606061019180546108ab90613356565b60606125c0826113cd565b60006125ca6125a5565b905060008151116125ea5760405180602001604052806000815250611326565b806125f484612983565b60405160200161260592919061369c565b6040516020818303038152906040529392505050565b600181111561268a5760405162461bcd60e51b815260206004820152603560248201527f455243373231456e756d657261626c653a20636f6e7365637574697665207472604482015274185b9cd9995c9cc81b9bdd081cdd5c1c1bdc9d1959605a1b60648201526084016109ca565b816001600160a01b0385166126e6576126e181609980546000838152609a60205260408120829055600182018355919091527f72a152ddfb8e864297c917af52ea6c1c68aead0fee1a62673fcc7e0c94979d000155565b612709565b836001600160a01b0316856001600160a01b031614612709576127098582612a20565b6001600160a01b0384166127255761272081612abd565b612748565b846001600160a01b0316846001600160a01b031614612748576127488482612b6c565b5050505050565b60606114fb8484600085612bb0565b61276781612056565b6040516001600160a01b038216907fbc7cd75a20ee27fd9adebab32041f755214dbc6bffa90cc0225b39da2e5c2d3b90600090a250565b60606001600160a01b0383163b6128065760405162461bcd60e51b815260206004820152602660248201527f416464726573733a2064656c65676174652063616c6c20746f206e6f6e2d636f6044820152651b9d1c9858dd60d21b60648201526084016109ca565b600080846001600160a01b031684604051612821919061378d565b600060405180830381855af49150503d806000811461285c576040519150601f19603f3d011682016040523d82523d6000602084013e612861565b606091505b5091509150612889828260405180606001604052806027815260200161380560279139612c8b565b95945050505050565b600061289d82610f7f565b90506128ad816000846001611e95565b6128b682610f7f565b600083815260696020908152604080832080546001600160a01b03199081169091556001600160a01b0385168085526068845282852080546000190190558785526067909352818420805490911690555192935084927fddf252ad1be2c89b69c2b068fc378daa952ba7f163c4a11628f55a4df523b3ef908390a45050565b600054610100900460ff1661295c5760405162461bcd60e51b81526004016109ca90613742565b815161296f906065906020850190612e18565b508051610a6b906066906020840190612e18565b6060600061299083612ca4565b600101905060008167ffffffffffffffff8111156129b0576129b0612fe4565b6040519080825280601f01601f1916602001820160405280156129da576020820181803683370190505b5090508181016020015b600019016f181899199a1a9b1b9c1cb0b131b232b360811b600a86061a8153600a8504945084612a1357612a18565b6129e4565b509392505050565b60006001612a2d8461106e565b612a3791906137a9565b600083815260986020526040902054909150808214612a8a576001600160a01b03841660009081526097602090815260408083208584528252808320548484528184208190558352609890915290208190555b5060009182526098602090815260408084208490556001600160a01b039094168352609781528383209183525290812055565b609954600090612acf906001906137a9565b6000838152609a602052604081205460998054939450909284908110612af757612af76134d5565b906000526020600020015490508060998381548110612b1857612b186134d5565b6000918252602080832090910192909255828152609a90915260408082208490558582528120556099805480612b5057612b506137ce565b6001900381819060005260206000200160009055905550505050565b6000612b778361106e565b6001600160a01b039093166000908152609760209081526040808320868452825280832085905593825260989052919091209190915550565b606082471015612c115760405162461bcd60e51b815260206004820152602660248201527f416464726573733a20696e73756666696369656e742062616c616e636520666f6044820152651c8818d85b1b60d21b60648201526084016109ca565b600080866001600160a01b03168587604051612c2d919061378d565b60006040518083038185875af1925050503d8060008114612c6a576040519150601f19603f3d011682016040523d82523d6000602084013e612c6f565b606091505b5091509150612c8087838387612d7c565b979650505050505050565b60608315612c9a575081611326565b6113268383612dee565b60008072184f03e93ff9f4daa797ed6e38ed64bf6a1f0160401b8310612ce35772184f03e93ff9f4daa797ed6e38ed64bf6a1f0160401b830492506040015b6d04ee2d6d415b85acef81000000008310612d0f576d04ee2d6d415b85acef8100000000830492506020015b662386f26fc100008310612d2d57662386f26fc10000830492506010015b6305f5e1008310612d45576305f5e100830492506008015b6127108310612d5957612710830492506004015b60648310612d6b576064830492506002015b600a83106108965760010192915050565b60608315612de8578251612de1576001600160a01b0385163b612de15760405162461bcd60e51b815260206004820152601d60248201527f416464726573733a2063616c6c20746f206e6f6e2d636f6e747261637400000060448201526064016109ca565b50816114fb565b6114fb83835b815115612dfe5781518083602001fd5b8060405162461bcd60e51b81526004016109ca9190612f72565b828054612e2490613356565b90600052602060002090601f016020900481019282612e465760008555612e8c565b82601f10612e5f57805160ff1916838001178555612e8c565b82800160010185558215612e8c579182015b82811115612e8c578251825591602001919060010190612e71565b50612e98929150612ed2565b5090565b508054612ea890613356565b6000825580601f10612eb8575050565b601f016020900490600052602060002090810190610cb291905b5b80821115612e985760008155600101612ed3565b6001600160e01b031981168114610cb257600080fd5b600060208284031215612f0f57600080fd5b813561132681612ee7565b60005b83811015612f35578181015183820152602001612f1d565b838111156113015750506000910152565b60008151808452612f5e816020860160208601612f1a565b601f01601f19169290920160200192915050565b6020815260006113266020830184612f46565b600060208284031215612f9757600080fd5b5035919050565b80356001600160a01b0381168114612fb557600080fd5b919050565b60008060408385031215612fcd57600080fd5b612fd683612f9e565b946020939093013593505050565b634e487b7160e01b600052604160045260246000fd5b600082601f83011261300b57600080fd5b813567ffffffffffffffff8082111561302657613026612fe4565b604051601f8301601f19908116603f0116810190828211818310171561304e5761304e612fe4565b8160405283815286602085880101111561306757600080fd5b836020870160208301376000602085830101528094505050505092915050565b6000806040838503121561309a57600080fd5b82359150602083013567ffffffffffffffff8111156130b857600080fd5b6130c485828601612ffa565b9150509250929050565b6000806000606084860312156130e357600080fd5b6130ec84612f9e565b92506130fa60208501612f9e565b9150604084013590509250925092565b60006020828403121561311c57600080fd5b61132682612f9e565b6000806040838503121561313857600080fd5b61314183612f9e565b9150602083013567ffffffffffffffff8111156130b857600080fd5b60006020828403121561316f57600080fd5b813567ffffffffffffffff81111561318657600080fd5b6114fb84828501612ffa565b6000806000606084860312156131a757600080fd5b6131b084612f9e565b925060208401359150604084013567ffffffffffffffff8111156131d357600080fd5b6131df86828701612ffa565b9150509250925092565b600080604083850312156131fc57600080fd5b823567ffffffffffffffff8082111561321457600080fd5b61322086838701612ffa565b9350602085013591508082111561323657600080fd5b506130c485828601612ffa565b8015158114610cb257600080fd5b6000806040838503121561326457600080fd5b61326d83612f9e565b9150602083013561327d81613243565b809150509250929050565b6000806000806080858703121561329e57600080fd5b6132a785612f9e565b93506132b560208601612f9e565b925060408501359150606085013567ffffffffffffffff8111156132d857600080fd5b6132e487828801612ffa565b91505092959194509250565b6000806040838503121561330357600080fd5b61330c83612f9e565b915061331a60208401612f9e565b90509250929050565b60008060006060848603121561333857600080fd5b61334184612f9e565b95602085013595506040909401359392505050565b600181811c9082168061336a57607f821691505b6020821081141561338b57634e487b7160e01b600052602260045260246000fd5b50919050565b6020808252600d908201526c1858d8d95cdcc819195b9a5959609a1b604082015260600190565b8281526060602082015260086060820152673d32b83832b634b760c11b608082015260a0604082015260006114fb60a0830184612f46565b6020808252602d908201527f4552433732313a2063616c6c6572206973206e6f7420746f6b656e206f776e6560408201526c1c881bdc88185c1c1c9bdd9959609a1b606082015260800190565b6020808252602c908201527f46756e6374696f6e206d7573742062652063616c6c6564207468726f7567682060408201526b19195b1959d85d1958d85b1b60a21b606082015260800190565b6020808252602c908201527f46756e6374696f6e206d7573742062652063616c6c6564207468726f7567682060408201526b6163746976652070726f787960a01b606082015260800190565b634e487b7160e01b600052603260045260246000fd5b60408152600080845481600182811c91508083168061350b57607f831692505b602080841082141561352b57634e487b7160e01b86526022600452602486fd5b604088018490526060880182801561354a576001811461355b57613586565b60ff19871682528282019750613586565b60008c81526020902060005b8781101561358057815484820152908601908401613567565b83019850505b50508786038189015250505050506128898185612f46565b6020808252602e908201527f496e697469616c697a61626c653a20636f6e747261637420697320616c72656160408201526d191e481a5b9a5d1a585b1a5e995960921b606082015260800190565b60208082526025908201527f4552433732313a207472616e736665722066726f6d20696e636f72726563742060408201526437bbb732b960d91b606082015260800190565b60006020828403121561364357600080fd5b5051919050565b60208082526032908201527f4552433732313a207472616e7366657220746f206e6f6e20455243373231526560408201527131b2b4bb32b91034b6b83632b6b2b73a32b960711b606082015260800190565b600083516136ae818460208801612f1a565b8351908301906136c2818360208801612f1a565b01949350505050565b6000602082840312156136dd57600080fd5b815161132681613243565b6001600160a01b038581168252841660208201526040810183905260806060820181905260009061371b90830184612f46565b9695505050505050565b60006020828403121561373757600080fd5b815161132681612ee7565b6020808252602b908201527f496e697469616c697a61626c653a20636f6e7472616374206973206e6f74206960408201526a6e697469616c697a696e6760a81b606082015260800190565b6000825161379f818460208701612f1a565b9190910192915050565b6000828210156137c957634e487b7160e01b600052601160045260246000fd5b500390565b634e487b7160e01b600052603160045260246000fdfe360894a13ba1a3210667c828492db98dca3e2076cc3735a920a3ca505d382bbc416464726573733a206c6f772d6c6576656c2064656c65676174652063616c6c206661696c6564a264697066735822122013e31a9d76289ccccd56eac84cf8bdcf4992c5be4b4538f85b84497fcfa6af7f64736f6c634300080b0033",
  "devdoc": {
    "author": "Basil Gorin",
    "kind": "dev",
    "methods": {
      "approve(address,uint256)": {
        "details": "See {IERC721-approve}."
      },
      "balanceOf(address)": {
        "details": "See {IERC721-balanceOf}."
      },
      "burn(uint256)": {
        "details": "Destroys the token with token ID specifiedRequires executor to have `ROLE_TOKEN_DESTROYER` permission      or FEATURE_OWN_BURNS/FEATURE_BURNS_ON_BEHALF features to be enabledCan be disabled by the contract creator forever by disabling      FEATURE_OWN_BURNS/FEATURE_BURNS_ON_BEHALF features and then revoking      its own roles to burn tokens and to enable burning features",
        "params": {
          "_tokenId": "ID of the token to burn"
        }
      },
      "evaluateBy(address,uint256,uint256)": {
        "details": "Calculated based on:      1) operator's own permission set read from userRoles[operator]      2) target permission set - what is already set on the target      3) desired permission set - what do we want set target toCorner cases:      1) Operator is super admin and its permission set is `FULL_PRIVILEGES_MASK`:        `desired` bitset is returned regardless of the `target` permission set value        (what operator sets is what they get)      2) Operator with no permissions (zero bitset):        `target` bitset is returned regardless of the `desired` value        (operator has no authority and cannot modify anything)Example:      Consider an operator with the permissions bitmask     00001111      is about to modify the target permission set          01010101      Operator wants to set that permission set to          00110011      Based on their role, an operator has the permissions      to update only lowest 4 bits on the target, meaning that      high 4 bits of the target set in this example is left      unchanged and low 4 bits get changed as desired:      01010011",
        "params": {
          "desired": "desired set of permissions operator would like to set",
          "operator": "address of the contract operator which is about to set the permissions",
          "target": "input set of permissions to operator is going to modify"
        },
        "returns": {
          "_0": "resulting set of permissions given operator will set"
        }
      },
      "exists(uint256)": {
        "details": "Returns whether the specified token ID has an ownership      information associated with it",
        "params": {
          "_tokenId": "ID of the token to query existence for"
        },
        "returns": {
          "_0": "whether the token exists (true - exists, false - doesn't exist)"
        }
      },
      "features()": {
        "details": "Effectively reads userRoles role for the contract itself",
        "returns": {
          "_0": "256-bit bitmask of the features enabled"
        }
      },
      "getApproved(uint256)": {
        "details": "See {IERC721-getApproved}."
      },
      "getImplementation()": {
        "returns": {
          "_0": "the current implementation address"
        }
      },
      "isApprovedForAll(address,address)": {
        "details": "See {IERC721-isApprovedForAll}."
      },
      "isFeatureEnabled(uint256)": {
        "params": {
          "required": "set of features to check against"
        },
        "returns": {
          "_0": "true if all the features requested are enabled, false otherwise"
        }
      },
      "isOperatorInRole(address,uint256)": {
        "params": {
          "operator": "address of the user to check role for",
          "required": "set of permissions (role) to check"
        },
        "returns": {
          "_0": "true if all the permissions requested are enabled, false otherwise"
        }
      },
      "isSenderInRole(uint256)": {
        "params": {
          "required": "set of permissions (role) to check against"
        },
        "returns": {
          "_0": "true if all the permissions requested are enabled, false otherwise"
        }
      },
      "mint(address,uint256)": {
        "details": "Creates new token with token ID specified      and assigns an ownership `_to` for this tokenUnsafe: doesn't execute `onERC721Received` on the receiver.      Prefer the use of `saveMint` instead of `mint`.Requires executor to have `ROLE_TOKEN_CREATOR` permission",
        "params": {
          "_to": "an address to mint token to",
          "_tokenId": "ID of the token to mint"
        }
      },
      "name()": {
        "details": "See {IERC721Metadata-name}."
      },
      "ownerOf(uint256)": {
        "details": "See {IERC721-ownerOf}."
      },
      "postConstruct(string,string)": {
        "details": "\"Constructor replacement\" for upgradeable, must be execute immediately after deployment      see https://docs.openzeppelin.com/upgrades-plugins/1.x/writing-upgradeable#initializers",
        "params": {
          "_name": "token name (ERC721Metadata)",
          "_symbol": "token symbol (ERC721Metadata)"
        }
      },
      "proxiableUUID()": {
        "details": "Implementation of the ERC1822 {proxiableUUID} function. This returns the storage slot used by the implementation. It is used to validate the implementation's compatibility when performing an upgrade. IMPORTANT: A proxy pointing at a proxiable contract should not be considered proxiable itself, because this risks bricking a proxy that upgrades to it, by delegating to itself until out of gas. Thus it is critical that this function revert if invoked through a proxy. This is guaranteed by the `notDelegated` modifier."
      },
      "rescueErc20(address,address,uint256)": {
        "details": "Restricted access function to rescue accidentally sent ERC20 tokens,      the tokens are rescued via `transfer` function call on the      contract address specified and with the parameters specified:      `_contract.transfer(_to, _value)`Requires executor to have `ROLE_RESCUE_MANAGER` permission",
        "params": {
          "_contract": "smart contract address to execute `transfer` function on",
          "_to": "to address in `transfer(_to, _value)`",
          "_value": "value to transfer in `transfer(_to, _value)`"
        }
      },
      "safeMint(address,uint256)": {
        "details": "Creates new token with token ID specified      and assigns an ownership `_to` for this tokenChecks if `_to` is a smart contract (code size > 0). If so, it calls      `onERC721Received` on `_to` and throws if the return value is not      `bytes4(keccak256(\"onERC721Received(address,address,uint256,bytes)\"))`.Requires executor to have `ROLE_TOKEN_CREATOR` permission",
        "params": {
          "_to": "an address to mint token to",
          "_tokenId": "ID of the token to mint"
        }
      },
      "safeMint(address,uint256,bytes)": {
        "details": "Creates new token with token ID specified      and assigns an ownership `_to` for this tokenChecks if `_to` is a smart contract (code size > 0). If so, it calls      `onERC721Received` on `_to` and throws if the return value is not      `bytes4(keccak256(\"onERC721Received(address,address,uint256,bytes)\"))`.Requires executor to have `ROLE_TOKEN_CREATOR` permission",
        "params": {
          "_data": "additional data with no specified format, sent in call to `_to`",
          "_to": "an address to mint token to",
          "_tokenId": "ID of the token to mint"
        }
      },
      "safeTransferFrom(address,address,uint256)": {
        "details": "See {IERC721-safeTransferFrom}."
      },
      "safeTransferFrom(address,address,uint256,bytes)": {
        "details": "See {IERC721-safeTransferFrom}."
      },
      "setApprovalForAll(address,bool)": {
        "details": "See {IERC721-setApprovalForAll}."
      },
      "setBaseURI(string)": {
        "details": "Restricted access function which updates base URI used to construct      ERC721Metadata.tokenURIRequires executor to have ROLE_URI_MANAGER permission",
        "params": {
          "__baseURI": "new base URI to set"
        }
      },
      "setTokenURI(uint256,string)": {
        "details": "Sets the token URI for the token defined by its ID",
        "params": {
          "_tokenId": "an ID of the token to set URI for",
          "_tokenURI": "token URI to set"
        }
      },
      "supportsInterface(bytes4)": {
        "details": "Returns true if this contract implements the interface defined by `interfaceId`. See the corresponding https://eips.ethereum.org/EIPS/eip-165#how-interfaces-are-identified[EIP section] to learn more about how these ids are created. This function call must use less than 30 000 gas."
      },
      "symbol()": {
        "details": "See {IERC721Metadata-symbol}."
      },
      "tokenByIndex(uint256)": {
        "details": "See {IERC721Enumerable-tokenByIndex}."
      },
      "tokenOfOwnerByIndex(address,uint256)": {
        "details": "See {IERC721Enumerable-tokenOfOwnerByIndex}."
      },
      "tokenURI(uint256)": {
        "details": "See {IERC721Metadata-tokenURI}."
      },
      "totalSupply()": {
        "details": "See {IERC721Enumerable-totalSupply}."
      },
      "transferFrom(address,address,uint256)": {
        "details": "See {IERC721-transferFrom}."
      },
      "updateFeatures(uint256)": {
        "details": "Requires transaction sender to have `ROLE_ACCESS_MANAGER` permissionFunction is left for backward compatibility with older versions",
        "params": {
          "_mask": "bitmask representing a set of features to enable/disable"
        }
      },
      "updateRole(address,uint256)": {
        "details": "Setting role to zero is equivalent to removing an all permissionsSetting role to `FULL_PRIVILEGES_MASK` is equivalent to      copying senders' permissions (role) to the userRequires transaction sender to have `ROLE_ACCESS_MANAGER` permission",
        "params": {
          "operator": "address of a user to alter permissions for or zero      to alter global features of the smart contract",
          "role": "bitmask representing a set of permissions to      enable/disable for a user specified"
        }
      },
      "upgradeTo(address)": {
        "details": "Upgrade the implementation of the proxy to `newImplementation`. Calls {_authorizeUpgrade}. Emits an {Upgraded} event."
      },
      "upgradeToAndCall(address,bytes)": {
        "details": "Upgrade the implementation of the proxy to `newImplementation`, and subsequently execute the function call encoded in `data`. Calls {_authorizeUpgrade}. Emits an {Upgraded} event."
      }
    },
    "title": "Zeppelin ERC721 Mock",
    "version": 1
  },
  "userdoc": {
    "kind": "user",
    "methods": {
      "FEATURE_BURNS_ON_BEHALF()": {
        "notice": "Enables approved operators to burn tokens on behalf of their owners"
      },
      "FEATURE_OWN_BURNS()": {
        "notice": "Enables token owners to burn their own tokens"
      },
      "FEATURE_TRANSFERS()": {
        "notice": "Enables ERC721 transfers of the tokens      (transfer by the token owner himself)"
      },
      "FEATURE_TRANSFERS_ON_BEHALF()": {
        "notice": "Enables ERC721 transfers on behalf      (transfer by someone else on behalf of token owner)"
      },
      "ROLE_ACCESS_MANAGER()": {
        "notice": "Access manager is responsible for assigning the roles to users,      enabling/disabling global features of the smart contractAccess manager can add, remove and update user roles,      remove and update global features"
      },
      "ROLE_RESCUE_MANAGER()": {
        "notice": "People do mistakes and may send ERC20 tokens by mistake; since      NFT smart contract is not designed to accept and hold any ERC20 tokens,      it allows the rescue manager to \"rescue\" such lost tokensRescue manager is responsible for \"rescuing\" ERC20 tokens accidentally      sent to the smart contract"
      },
      "ROLE_TOKEN_CREATOR()": {
        "notice": "Token creator is responsible for creating (minting)      tokens to an arbitrary address"
      },
      "ROLE_TOKEN_DESTROYER()": {
        "notice": "Token destroyer is responsible for destroying (burning)      tokens owned by an arbitrary address"
      },
      "ROLE_UPGRADE_MANAGER()": {
        "notice": "Upgrade manager is responsible for smart contract upgrades,      see https://docs.openzeppelin.com/contracts/4.x/api/proxy#UUPSUpgradeable      see https://docs.openzeppelin.com/contracts/4.x/upgradeable"
      },
      "ROLE_URI_MANAGER()": {
        "notice": "URI manager is responsible for managing base URI      part of the token URI ERC721Metadata interface"
      },
      "evaluateBy(address,uint256,uint256)": {
        "notice": "Determines the permission bitmask an operator can set on the      target permission setUsed to calculate the permission bitmask to be set when requested     in `updateRole` and `updateFeatures` functions"
      },
      "exists(uint256)": {
        "notice": "Checks if specified token exists"
      },
      "features()": {
        "notice": "Retrieves globally set of features enabled"
      },
      "getImplementation()": {
        "notice": "Returns an address of the implementation smart contract,      see ERC1967Upgrade._getImplementation()"
      },
      "isFeatureEnabled(uint256)": {
        "notice": "Checks if requested set of features is enabled globally on the contract"
      },
      "isOperatorInRole(address,uint256)": {
        "notice": "Checks if operator has all the permissions (role) required"
      },
      "isSenderInRole(uint256)": {
        "notice": "Checks if transaction sender `msg.sender` has all the permissions required"
      },
      "updateFeatures(uint256)": {
        "notice": "Updates set of the globally enabled features (`features`),      taking into account sender's permissions"
      },
      "updateRole(address,uint256)": {
        "notice": "Updates set of permissions (role) for a given user,      taking into account sender's permissions."
      },
      "userRoles(address)": {
        "notice": "Privileged addresses with defined roles/permissionsIn the context of ERC20/ERC721 tokens these can be permissions to      allow minting or burning tokens, transferring on behalf and so on"
      }
    },
    "notice": "Zeppelin ERC721 Mock simulates an NFT token, used for testing purposes;      it still has restricted access to the mint() function",
    "version": 1
  },
  "storageLayout": {
    "storage": [
      {
        "astId": 402,
        "contract": "contracts/mocks/UpgradeableERC721Mocks.sol:UpgradeableERC721Mock",
        "label": "_initialized",
        "offset": 0,
        "slot": "0",
        "type": "t_uint8"
      },
      {
        "astId": 405,
        "contract": "contracts/mocks/UpgradeableERC721Mocks.sol:UpgradeableERC721Mock",
        "label": "_initializing",
        "offset": 1,
        "slot": "0",
        "type": "t_bool"
      },
      {
        "astId": 3403,
        "contract": "contracts/mocks/UpgradeableERC721Mocks.sol:UpgradeableERC721Mock",
        "label": "__gap",
        "offset": 0,
        "slot": "1",
        "type": "t_array(t_uint256)50_storage"
      },
      {
        "astId": 3682,
        "contract": "contracts/mocks/UpgradeableERC721Mocks.sol:UpgradeableERC721Mock",
        "label": "__gap",
        "offset": 0,
        "slot": "51",
        "type": "t_array(t_uint256)50_storage"
      },
      {
        "astId": 1444,
        "contract": "contracts/mocks/UpgradeableERC721Mocks.sol:UpgradeableERC721Mock",
        "label": "_name",
        "offset": 0,
        "slot": "101",
        "type": "t_string_storage"
      },
      {
        "astId": 1446,
        "contract": "contracts/mocks/UpgradeableERC721Mocks.sol:UpgradeableERC721Mock",
        "label": "_symbol",
        "offset": 0,
        "slot": "102",
        "type": "t_string_storage"
      },
      {
        "astId": 1450,
        "contract": "contracts/mocks/UpgradeableERC721Mocks.sol:UpgradeableERC721Mock",
        "label": "_owners",
        "offset": 0,
        "slot": "103",
        "type": "t_mapping(t_uint256,t_address)"
      },
      {
        "astId": 1454,
        "contract": "contracts/mocks/UpgradeableERC721Mocks.sol:UpgradeableERC721Mock",
        "label": "_balances",
        "offset": 0,
        "slot": "104",
        "type": "t_mapping(t_address,t_uint256)"
      },
      {
        "astId": 1458,
        "contract": "contracts/mocks/UpgradeableERC721Mocks.sol:UpgradeableERC721Mock",
        "label": "_tokenApprovals",
        "offset": 0,
        "slot": "105",
        "type": "t_mapping(t_uint256,t_address)"
      },
      {
        "astId": 1464,
        "contract": "contracts/mocks/UpgradeableERC721Mocks.sol:UpgradeableERC721Mock",
        "label": "_operatorApprovals",
        "offset": 0,
        "slot": "106",
        "type": "t_mapping(t_address,t_mapping(t_address,t_bool))"
      },
      {
        "astId": 2366,
        "contract": "contracts/mocks/UpgradeableERC721Mocks.sol:UpgradeableERC721Mock",
        "label": "__gap",
        "offset": 0,
        "slot": "107",
        "type": "t_array(t_uint256)44_storage"
      },
      {
        "astId": 2531,
        "contract": "contracts/mocks/UpgradeableERC721Mocks.sol:UpgradeableERC721Mock",
        "label": "_ownedTokens",
        "offset": 0,
        "slot": "151",
        "type": "t_mapping(t_address,t_mapping(t_uint256,t_uint256))"
      },
      {
        "astId": 2535,
        "contract": "contracts/mocks/UpgradeableERC721Mocks.sol:UpgradeableERC721Mock",
        "label": "_ownedTokensIndex",
        "offset": 0,
        "slot": "152",
        "type": "t_mapping(t_uint256,t_uint256)"
      },
      {
        "astId": 2538,
        "contract": "contracts/mocks/UpgradeableERC721Mocks.sol:UpgradeableERC721Mock",
        "label": "_allTokens",
        "offset": 0,
        "slot": "153",
        "type": "t_array(t_uint256)dyn_storage"
      },
      {
        "astId": 2542,
        "contract": "contracts/mocks/UpgradeableERC721Mocks.sol:UpgradeableERC721Mock",
        "label": "_allTokensIndex",
        "offset": 0,
        "slot": "154",
        "type": "t_mapping(t_uint256,t_uint256)"
      },
      {
        "astId": 2874,
        "contract": "contracts/mocks/UpgradeableERC721Mocks.sol:UpgradeableERC721Mock",
        "label": "__gap",
        "offset": 0,
        "slot": "155",
        "type": "t_array(t_uint256)46_storage"
      },
      {
        "astId": 2903,
        "contract": "contracts/mocks/UpgradeableERC721Mocks.sol:UpgradeableERC721Mock",
        "label": "_tokenURIs",
        "offset": 0,
        "slot": "201",
        "type": "t_mapping(t_uint256,t_string_storage)"
      },
      {
        "astId": 3019,
        "contract": "contracts/mocks/UpgradeableERC721Mocks.sol:UpgradeableERC721Mock",
        "label": "__gap",
        "offset": 0,
        "slot": "202",
        "type": "t_array(t_uint256)49_storage"
      },
      {
        "astId": 384,
        "contract": "contracts/mocks/UpgradeableERC721Mocks.sol:UpgradeableERC721Mock",
        "label": "__gap",
        "offset": 0,
        "slot": "251",
        "type": "t_array(t_uint256)50_storage"
      },
      {
        "astId": 699,
        "contract": "contracts/mocks/UpgradeableERC721Mocks.sol:UpgradeableERC721Mock",
        "label": "__gap",
        "offset": 0,
        "slot": "301",
        "type": "t_array(t_uint256)50_storage"
      },
      {
        "astId": 11598,
        "contract": "contracts/mocks/UpgradeableERC721Mocks.sol:UpgradeableERC721Mock",
        "label": "userRoles",
        "offset": 0,
        "slot": "351",
        "type": "t_mapping(t_address,t_uint256)"
      },
      {
        "astId": 11603,
        "contract": "contracts/mocks/UpgradeableERC721Mocks.sol:UpgradeableERC721Mock",
        "label": "__gap",
        "offset": 0,
        "slot": "352",
        "type": "t_array(t_uint256)49_storage"
      },
      {
        "astId": 10847,
        "contract": "contracts/mocks/UpgradeableERC721Mocks.sol:UpgradeableERC721Mock",
        "label": "baseURI",
        "offset": 0,
        "slot": "401",
        "type": "t_string_storage"
      },
      {
        "astId": 10852,
        "contract": "contracts/mocks/UpgradeableERC721Mocks.sol:UpgradeableERC721Mock",
        "label": "__gap",
        "offset": 0,
        "slot": "402",
        "type": "t_array(t_uint256)49_storage"
      }
    ],
    "types": {
      "t_address": {
        "encoding": "inplace",
        "label": "address",
        "numberOfBytes": "20"
      },
      "t_array(t_uint256)44_storage": {
        "base": "t_uint256",
        "encoding": "inplace",
        "label": "uint256[44]",
        "numberOfBytes": "1408"
      },
      "t_array(t_uint256)46_storage": {
        "base": "t_uint256",
        "encoding": "inplace",
        "label": "uint256[46]",
        "numberOfBytes": "1472"
      },
      "t_array(t_uint256)49_storage": {
        "base": "t_uint256",
        "encoding": "inplace",
        "label": "uint256[49]",
        "numberOfBytes": "1568"
      },
      "t_array(t_uint256)50_storage": {
        "base": "t_uint256",
        "encoding": "inplace",
        "label": "uint256[50]",
        "numberOfBytes": "1600"
      },
      "t_array(t_uint256)dyn_storage": {
        "base": "t_uint256",
        "encoding": "dynamic_array",
        "label": "uint256[]",
        "numberOfBytes": "32"
      },
      "t_bool": {
        "encoding": "inplace",
        "label": "bool",
        "numberOfBytes": "1"
      },
      "t_mapping(t_address,t_bool)": {
        "encoding": "mapping",
        "key": "t_address",
        "label": "mapping(address => bool)",
        "numberOfBytes": "32",
        "value": "t_bool"
      },
      "t_mapping(t_address,t_mapping(t_address,t_bool))": {
        "encoding": "mapping",
        "key": "t_address",
        "label": "mapping(address => mapping(address => bool))",
        "numberOfBytes": "32",
        "value": "t_mapping(t_address,t_bool)"
      },
      "t_mapping(t_address,t_mapping(t_uint256,t_uint256))": {
        "encoding": "mapping",
        "key": "t_address",
        "label": "mapping(address => mapping(uint256 => uint256))",
        "numberOfBytes": "32",
        "value": "t_mapping(t_uint256,t_uint256)"
      },
      "t_mapping(t_address,t_uint256)": {
        "encoding": "mapping",
        "key": "t_address",
        "label": "mapping(address => uint256)",
        "numberOfBytes": "32",
        "value": "t_uint256"
      },
      "t_mapping(t_uint256,t_address)": {
        "encoding": "mapping",
        "key": "t_uint256",
        "label": "mapping(uint256 => address)",
        "numberOfBytes": "32",
        "value": "t_address"
      },
      "t_mapping(t_uint256,t_string_storage)": {
        "encoding": "mapping",
        "key": "t_uint256",
        "label": "mapping(uint256 => string)",
        "numberOfBytes": "32",
        "value": "t_string_storage"
      },
      "t_mapping(t_uint256,t_uint256)": {
        "encoding": "mapping",
        "key": "t_uint256",
        "label": "mapping(uint256 => uint256)",
        "numberOfBytes": "32",
        "value": "t_uint256"
      },
      "t_string_storage": {
        "encoding": "bytes",
        "label": "string",
        "numberOfBytes": "32"
      },
      "t_uint256": {
        "encoding": "inplace",
        "label": "uint256",
        "numberOfBytes": "32"
      },
      "t_uint8": {
        "encoding": "inplace",
        "label": "uint8",
        "numberOfBytes": "1"
      }
    }
  }
}