{
  "address": "0xAbc60F4BD5C5D23082365E415003ebDE1fB5EB61",
  "abi": [
    {
      "inputs": [
        {
          "internalType": "string",
          "name": "_name",
          "type": "string"
        },
        {
          "internalType": "string",
          "name": "_symbol",
          "type": "string"
        }
      ],
      "stateMutability": "nonpayable",
      "type": "constructor"
    },
    {
      "anonymous": false,
      "inputs": [
        {
          "indexed": true,
          "internalType": "address",
          "name": "owner",
          "type": "address"
        },
        {
          "indexed": true,
          "internalType": "address",
          "name": "approved",
          "type": "address"
        },
        {
          "indexed": true,
          "internalType": "uint256",
          "name": "tokenId",
          "type": "uint256"
        }
      ],
      "name": "Approval",
      "type": "event"
    },
    {
      "anonymous": false,
      "inputs": [
        {
          "indexed": true,
          "internalType": "address",
          "name": "owner",
          "type": "address"
        },
        {
          "indexed": true,
          "internalType": "address",
          "name": "operator",
          "type": "address"
        },
        {
          "indexed": false,
          "internalType": "bool",
          "name": "approved",
          "type": "bool"
        }
      ],
      "name": "ApprovalForAll",
      "type": "event"
    },
    {
      "anonymous": false,
      "inputs": [
        {
          "indexed": true,
          "internalType": "address",
          "name": "_by",
          "type": "address"
        },
        {
          "indexed": false,
          "internalType": "string",
          "name": "oldVal",
          "type": "string"
        },
        {
          "indexed": false,
          "internalType": "string",
          "name": "newVal",
          "type": "string"
        }
      ],
      "name": "BaseURIUpdated",
      "type": "event"
    },
    {
      "anonymous": false,
      "inputs": [
        {
          "indexed": true,
          "internalType": "address",
          "name": "_by",
          "type": "address"
        },
        {
          "indexed": true,
          "internalType": "address",
          "name": "_from",
          "type": "address"
        },
        {
          "indexed": true,
          "internalType": "uint256",
          "name": "_tokenId",
          "type": "uint256"
        }
      ],
      "name": "Burnt",
      "type": "event"
    },
    {
      "anonymous": false,
      "inputs": [
        {
          "indexed": true,
          "internalType": "address",
          "name": "_by",
          "type": "address"
        },
        {
          "indexed": true,
          "internalType": "address",
          "name": "_to",
          "type": "address"
        },
        {
          "indexed": true,
          "internalType": "uint256",
          "name": "_tokenId",
          "type": "uint256"
        }
      ],
      "name": "Minted",
      "type": "event"
    },
    {
      "anonymous": false,
      "inputs": [
        {
          "indexed": true,
          "internalType": "address",
          "name": "_by",
          "type": "address"
        },
        {
          "indexed": true,
          "internalType": "address",
          "name": "_to",
          "type": "address"
        },
        {
          "indexed": false,
          "internalType": "uint256",
          "name": "_requested",
          "type": "uint256"
        },
        {
          "indexed": false,
          "internalType": "uint256",
          "name": "_actual",
          "type": "uint256"
        }
      ],
      "name": "RoleUpdated",
      "type": "event"
    },
    {
      "anonymous": false,
      "inputs": [
        {
          "indexed": true,
          "internalType": "address",
          "name": "_by",
          "type": "address"
        },
        {
          "indexed": false,
          "internalType": "uint256",
          "name": "tokenId",
          "type": "uint256"
        },
        {
          "indexed": false,
          "internalType": "string",
          "name": "oldVal",
          "type": "string"
        },
        {
          "indexed": false,
          "internalType": "string",
          "name": "newVal",
          "type": "string"
        }
      ],
      "name": "TokenURIUpdated",
      "type": "event"
    },
    {
      "anonymous": false,
      "inputs": [
        {
          "indexed": true,
          "internalType": "address",
          "name": "from",
          "type": "address"
        },
        {
          "indexed": true,
          "internalType": "address",
          "name": "to",
          "type": "address"
        },
        {
          "indexed": true,
          "internalType": "uint256",
          "name": "tokenId",
          "type": "uint256"
        }
      ],
      "name": "Transfer",
      "type": "event"
    },
    {
      "inputs": [],
      "name": "FEATURE_BURNS_ON_BEHALF",
      "outputs": [
        {
          "internalType": "uint32",
          "name": "",
          "type": "uint32"
        }
      ],
      "stateMutability": "view",
      "type": "function"
    },
    {
      "inputs": [],
      "name": "FEATURE_OWN_BURNS",
      "outputs": [
        {
          "internalType": "uint32",
          "name": "",
          "type": "uint32"
        }
      ],
      "stateMutability": "view",
      "type": "function"
    },
    {
      "inputs": [],
      "name": "FEATURE_TRANSFERS",
      "outputs": [
        {
          "internalType": "uint32",
          "name": "",
          "type": "uint32"
        }
      ],
      "stateMutability": "view",
      "type": "function"
    },
    {
      "inputs": [],
      "name": "FEATURE_TRANSFERS_ON_BEHALF",
      "outputs": [
        {
          "internalType": "uint32",
          "name": "",
          "type": "uint32"
        }
      ],
      "stateMutability": "view",
      "type": "function"
    },
    {
      "inputs": [],
      "name": "ROLE_ACCESS_MANAGER",
      "outputs": [
        {
          "internalType": "uint256",
          "name": "",
          "type": "uint256"
        }
      ],
      "stateMutability": "view",
      "type": "function"
    },
    {
      "inputs": [],
      "name": "ROLE_RESCUE_MANAGER",
      "outputs": [
        {
          "internalType": "uint32",
          "name": "",
          "type": "uint32"
        }
      ],
      "stateMutability": "view",
      "type": "function"
    },
    {
      "inputs": [],
      "name": "ROLE_TOKEN_CREATOR",
      "outputs": [
        {
          "internalType": "uint32",
          "name": "",
          "type": "uint32"
        }
      ],
      "stateMutability": "view",
      "type": "function"
    },
    {
      "inputs": [],
      "name": "ROLE_TOKEN_DESTROYER",
      "outputs": [
        {
          "internalType": "uint32",
          "name": "",
          "type": "uint32"
        }
      ],
      "stateMutability": "view",
      "type": "function"
    },
    {
      "inputs": [],
      "name": "ROLE_URI_MANAGER",
      "outputs": [
        {
          "internalType": "uint32",
          "name": "",
          "type": "uint32"
        }
      ],
      "stateMutability": "view",
      "type": "function"
    },
    {
      "inputs": [
        {
          "internalType": "address",
          "name": "to",
          "type": "address"
        },
        {
          "internalType": "uint256",
          "name": "tokenId",
          "type": "uint256"
        }
      ],
      "name": "approve",
      "outputs": [],
      "stateMutability": "nonpayable",
      "type": "function"
    },
    {
      "inputs": [
        {
          "internalType": "address",
          "name": "owner",
          "type": "address"
        }
      ],
      "name": "balanceOf",
      "outputs": [
        {
          "internalType": "uint256",
          "name": "",
          "type": "uint256"
        }
      ],
      "stateMutability": "view",
      "type": "function"
    },
    {
      "inputs": [],
      "name": "baseURI",
      "outputs": [
        {
          "internalType": "string",
          "name": "",
          "type": "string"
        }
      ],
      "stateMutability": "view",
      "type": "function"
    },
    {
      "inputs": [
        {
          "internalType": "uint256",
          "name": "_tokenId",
          "type": "uint256"
        }
      ],
      "name": "burn",
      "outputs": [],
      "stateMutability": "nonpayable",
      "type": "function"
    },
    {
      "inputs": [
        {
          "internalType": "address",
          "name": "operator",
          "type": "address"
        },
        {
          "internalType": "uint256",
          "name": "target",
          "type": "uint256"
        },
        {
          "internalType": "uint256",
          "name": "desired",
          "type": "uint256"
        }
      ],
      "name": "evaluateBy",
      "outputs": [
        {
          "internalType": "uint256",
          "name": "",
          "type": "uint256"
        }
      ],
      "stateMutability": "view",
      "type": "function"
    },
    {
      "inputs": [
        {
          "internalType": "uint256",
          "name": "_tokenId",
          "type": "uint256"
        }
      ],
      "name": "exists",
      "outputs": [
        {
          "internalType": "bool",
          "name": "",
          "type": "bool"
        }
      ],
      "stateMutability": "view",
      "type": "function"
    },
    {
      "inputs": [],
      "name": "features",
      "outputs": [
        {
          "internalType": "uint256",
          "name": "",
          "type": "uint256"
        }
      ],
      "stateMutability": "view",
      "type": "function"
    },
    {
      "inputs": [
        {
          "internalType": "uint256",
          "name": "tokenId",
          "type": "uint256"
        }
      ],
      "name": "getApproved",
      "outputs": [
        {
          "internalType": "address",
          "name": "",
          "type": "address"
        }
      ],
      "stateMutability": "view",
      "type": "function"
    },
    {
      "inputs": [
        {
          "internalType": "address",
          "name": "owner",
          "type": "address"
        },
        {
          "internalType": "address",
          "name": "operator",
          "type": "address"
        }
      ],
      "name": "isApprovedForAll",
      "outputs": [
        {
          "internalType": "bool",
          "name": "",
          "type": "bool"
        }
      ],
      "stateMutability": "view",
      "type": "function"
    },
    {
      "inputs": [
        {
          "internalType": "uint256",
          "name": "required",
          "type": "uint256"
        }
      ],
      "name": "isFeatureEnabled",
      "outputs": [
        {
          "internalType": "bool",
          "name": "",
          "type": "bool"
        }
      ],
      "stateMutability": "view",
      "type": "function"
    },
    {
      "inputs": [
        {
          "internalType": "address",
          "name": "operator",
          "type": "address"
        },
        {
          "internalType": "uint256",
          "name": "required",
          "type": "uint256"
        }
      ],
      "name": "isOperatorInRole",
      "outputs": [
        {
          "internalType": "bool",
          "name": "",
          "type": "bool"
        }
      ],
      "stateMutability": "view",
      "type": "function"
    },
    {
      "inputs": [
        {
          "internalType": "uint256",
          "name": "required",
          "type": "uint256"
        }
      ],
      "name": "isSenderInRole",
      "outputs": [
        {
          "internalType": "bool",
          "name": "",
          "type": "bool"
        }
      ],
      "stateMutability": "view",
      "type": "function"
    },
    {
      "inputs": [
        {
          "internalType": "address",
          "name": "_to",
          "type": "address"
        },
        {
          "internalType": "uint256",
          "name": "_tokenId",
          "type": "uint256"
        }
      ],
      "name": "mint",
      "outputs": [],
      "stateMutability": "nonpayable",
      "type": "function"
    },
    {
      "inputs": [],
      "name": "name",
      "outputs": [
        {
          "internalType": "string",
          "name": "",
          "type": "string"
        }
      ],
      "stateMutability": "view",
      "type": "function"
    },
    {
      "inputs": [
        {
          "internalType": "uint256",
          "name": "tokenId",
          "type": "uint256"
        }
      ],
      "name": "ownerOf",
      "outputs": [
        {
          "internalType": "address",
          "name": "",
          "type": "address"
        }
      ],
      "stateMutability": "view",
      "type": "function"
    },
    {
      "inputs": [
        {
          "internalType": "address",
          "name": "_contract",
          "type": "address"
        },
        {
          "internalType": "address",
          "name": "_to",
          "type": "address"
        },
        {
          "internalType": "uint256",
          "name": "_value",
          "type": "uint256"
        }
      ],
      "name": "rescueErc20",
      "outputs": [],
      "stateMutability": "nonpayable",
      "type": "function"
    },
    {
      "inputs": [
        {
          "internalType": "address",
          "name": "_to",
          "type": "address"
        },
        {
          "internalType": "uint256",
          "name": "_tokenId",
          "type": "uint256"
        },
        {
          "internalType": "bytes",
          "name": "_data",
          "type": "bytes"
        }
      ],
      "name": "safeMint",
      "outputs": [],
      "stateMutability": "nonpayable",
      "type": "function"
    },
    {
      "inputs": [
        {
          "internalType": "address",
          "name": "_to",
          "type": "address"
        },
        {
          "internalType": "uint256",
          "name": "_tokenId",
          "type": "uint256"
        }
      ],
      "name": "safeMint",
      "outputs": [],
      "stateMutability": "nonpayable",
      "type": "function"
    },
    {
      "inputs": [
        {
          "internalType": "address",
          "name": "from",
          "type": "address"
        },
        {
          "internalType": "address",
          "name": "to",
          "type": "address"
        },
        {
          "internalType": "uint256",
          "name": "tokenId",
          "type": "uint256"
        }
      ],
      "name": "safeTransferFrom",
      "outputs": [],
      "stateMutability": "nonpayable",
      "type": "function"
    },
    {
      "inputs": [
        {
          "internalType": "address",
          "name": "from",
          "type": "address"
        },
        {
          "internalType": "address",
          "name": "to",
          "type": "address"
        },
        {
          "internalType": "uint256",
          "name": "tokenId",
          "type": "uint256"
        },
        {
          "internalType": "bytes",
          "name": "data",
          "type": "bytes"
        }
      ],
      "name": "safeTransferFrom",
      "outputs": [],
      "stateMutability": "nonpayable",
      "type": "function"
    },
    {
      "inputs": [
        {
          "internalType": "address",
          "name": "operator",
          "type": "address"
        },
        {
          "internalType": "bool",
          "name": "approved",
          "type": "bool"
        }
      ],
      "name": "setApprovalForAll",
      "outputs": [],
      "stateMutability": "nonpayable",
      "type": "function"
    },
    {
      "inputs": [
        {
          "internalType": "string",
          "name": "__baseURI",
          "type": "string"
        }
      ],
      "name": "setBaseURI",
      "outputs": [],
      "stateMutability": "nonpayable",
      "type": "function"
    },
    {
      "inputs": [
        {
          "internalType": "uint256",
          "name": "_tokenId",
          "type": "uint256"
        },
        {
          "internalType": "string",
          "name": "_tokenURI",
          "type": "string"
        }
      ],
      "name": "setTokenURI",
      "outputs": [],
      "stateMutability": "nonpayable",
      "type": "function"
    },
    {
      "inputs": [
        {
          "internalType": "bytes4",
          "name": "interfaceId",
          "type": "bytes4"
        }
      ],
      "name": "supportsInterface",
      "outputs": [
        {
          "internalType": "bool",
          "name": "",
          "type": "bool"
        }
      ],
      "stateMutability": "view",
      "type": "function"
    },
    {
      "inputs": [],
      "name": "symbol",
      "outputs": [
        {
          "internalType": "string",
          "name": "",
          "type": "string"
        }
      ],
      "stateMutability": "view",
      "type": "function"
    },
    {
      "inputs": [
        {
          "internalType": "uint256",
          "name": "index",
          "type": "uint256"
        }
      ],
      "name": "tokenByIndex",
      "outputs": [
        {
          "internalType": "uint256",
          "name": "",
          "type": "uint256"
        }
      ],
      "stateMutability": "view",
      "type": "function"
    },
    {
      "inputs": [
        {
          "internalType": "address",
          "name": "owner",
          "type": "address"
        },
        {
          "internalType": "uint256",
          "name": "index",
          "type": "uint256"
        }
      ],
      "name": "tokenOfOwnerByIndex",
      "outputs": [
        {
          "internalType": "uint256",
          "name": "",
          "type": "uint256"
        }
      ],
      "stateMutability": "view",
      "type": "function"
    },
    {
      "inputs": [
        {
          "internalType": "uint256",
          "name": "_tokenId",
          "type": "uint256"
        }
      ],
      "name": "tokenURI",
      "outputs": [
        {
          "internalType": "string",
          "name": "",
          "type": "string"
        }
      ],
      "stateMutability": "view",
      "type": "function"
    },
    {
      "inputs": [],
      "name": "totalSupply",
      "outputs": [
        {
          "internalType": "uint256",
          "name": "",
          "type": "uint256"
        }
      ],
      "stateMutability": "view",
      "type": "function"
    },
    {
      "inputs": [
        {
          "internalType": "address",
          "name": "from",
          "type": "address"
        },
        {
          "internalType": "address",
          "name": "to",
          "type": "address"
        },
        {
          "internalType": "uint256",
          "name": "tokenId",
          "type": "uint256"
        }
      ],
      "name": "transferFrom",
      "outputs": [],
      "stateMutability": "nonpayable",
      "type": "function"
    },
    {
      "inputs": [
        {
          "internalType": "uint256",
          "name": "_mask",
          "type": "uint256"
        }
      ],
      "name": "updateFeatures",
      "outputs": [],
      "stateMutability": "nonpayable",
      "type": "function"
    },
    {
      "inputs": [
        {
          "internalType": "address",
          "name": "operator",
          "type": "address"
        },
        {
          "internalType": "uint256",
          "name": "role",
          "type": "uint256"
        }
      ],
      "name": "updateRole",
      "outputs": [],
      "stateMutability": "nonpayable",
      "type": "function"
    },
    {
      "inputs": [
        {
          "internalType": "address",
          "name": "",
          "type": "address"
        }
      ],
      "name": "userRoles",
      "outputs": [
        {
          "internalType": "uint256",
          "name": "",
          "type": "uint256"
        }
      ],
      "stateMutability": "view",
      "type": "function"
    }
  ],
  "transactionHash": "0xbc2c4250ea0ec5cee5bc36874fdbdf320f6642b3286da0a06e166ad9ff5d89c8",
  "args": [
    "Awesome Token",
    "AWS"
  ],
  "numDeployments": 1,
  "solcInputHash": "0415ebc162aa405cd0ee2d3f38a1aec2",
  "bytecode": "0x60a06040819052600060808190526200001b91600c91620000e6565b503480156200002957600080fd5b5060405162002ca938038062002ca98339810160408190526200004c9162000259565b8181338282816000908051906020019062000069929190620000e6565b5080516200007f906001906020840190620000e6565b5050506001600160a01b0381166000818152600b60209081526040918290206000199081905582518181529182015233917f5a10526456f5116c0b7b80582c217d666243fd51b6a2d92c8011e601c2462e5f910160405180910390a3505050505062000300565b828054620000f490620002c3565b90600052602060002090601f01602090048101928262000118576000855562000163565b82601f106200013357805160ff191683800117855562000163565b8280016001018555821562000163579182015b828111156200016357825182559160200191906001019062000146565b506200017192915062000175565b5090565b5b8082111562000171576000815560010162000176565b634e487b7160e01b600052604160045260246000fd5b600082601f830112620001b457600080fd5b81516001600160401b0380821115620001d157620001d16200018c565b604051601f8301601f19908116603f01168101908282118183101715620001fc57620001fc6200018c565b816040528381526020925086838588010111156200021957600080fd5b600091505b838210156200023d57858201830151818301840152908201906200021e565b838211156200024f5760008385830101525b9695505050505050565b600080604083850312156200026d57600080fd5b82516001600160401b03808211156200028557600080fd5b6200029386838701620001a2565b93506020850151915080821115620002aa57600080fd5b50620002b985828601620001a2565b9150509250929050565b600181811c90821680620002d857607f821691505b60208210811415620002fa57634e487b7160e01b600052602260045260246000fd5b50919050565b61299980620003106000396000f3fe608060405234801561001057600080fd5b506004361061025e5760003560e01c806370a0823111610146578063ae682e2e116100c3578063d5bb7f6711610087578063d5bb7f6714610509578063e62cac761461051c578063e985e9c514610526578063f63c2f8214610539578063f822d5aa14610541578063fcc2c0781461055457600080fd5b8063ae682e2e146104bd578063b88d4fde146104c8578063c0d6568d146104db578063c688d693146104e3578063c87b56dd146104f657600080fd5b80638f6fba8c1161010a5780638f6fba8c1461047457806395d89b411461047c578063a144819414610484578063a22cb46514610497578063ae5b102e146104aa57600080fd5b806370a0823114610411578063725f36261461042457806374d5e100146104375780638832e6e3146104575780638d4e57e61461046a57600080fd5b80632b521416116101df57806342966c68116101a357806342966c68146103aa5780634f558e79146103bd5780634f6ccce7146103d057806355f804b3146103e35780636352211e146103f65780636c0360eb1461040957600080fd5b80632b521416146103525780632d17f8bc146103675780632f745c591461037157806340c10f191461038457806342842e0e1461039757600080fd5b8063162094c411610226578063162094c4146102ff57806318160ddd146103125780631a0b04ea1461032457806323b872dd1461032c578063243feb991461033f57600080fd5b806301ffc9a71461026357806306fdde031461028b578063081812fc146102a0578063095ea7b3146102cb57806314b7b4e1146102e0575b600080fd5b61027661027136600461224f565b610567565b60405190151581526020015b60405180910390f35b6102936105ae565b60405161028291906122c4565b6102b36102ae3660046122d7565b610640565b6040516001600160a01b039091168152602001610282565b6102de6102d936600461230c565b610667565b005b6102ea6204000081565b60405163ffffffff9091168152602001610282565b6102de61030d3660046123d9565b610782565b6008545b604051908152602001610282565b6102ea600881565b6102de61033a366004612420565b6107fb565b6102de61034d366004612420565b61082c565b306000908152600b6020526040902054610316565b6102ea6208000081565b61031661037f36600461230c565b610868565b6102de61039236600461230c565b6108fe565b6102de6103a5366004612420565b610908565b6102de6103b83660046122d7565b610923565b6102766103cb3660046122d7565b61092f565b6103166103de3660046122d7565b61094e565b6102de6103f136600461245c565b6109e1565b6102b36104043660046122d7565b610a60565b610293610ac0565b61031661041f366004612491565b610b4e565b6102766104323660046122d7565b610bd4565b610316610445366004612491565b600b6020526000908152604090205481565b6102de6104653660046124ac565b610bed565b6102ea6201000081565b6102ea600281565b610293610bf8565b6102de61049236600461230c565b610c07565b6102de6104a5366004612511565b610c11565b6102de6104b836600461230c565b610c1c565b610316600160ff1b81565b6102de6104d6366004612548565b610ccf565b6102ea600181565b6102766104f136600461230c565b610d07565b6102936105043660046122d7565b610d2c565b6102de6105173660046122d7565b610d37565b6102ea6202000081565b6102766105343660046125b0565b610d41565b6102ea601081565b61031661054f3660046125e3565b610d6f565b6102766105623660046122d7565b610d9a565b600061057282610da6565b8061058d57506001600160e01b031982166326e2e61760e01b145b806105a857506001600160e01b03198216630852cd8d60e31b145b92915050565b6060600080546105bd90612616565b80601f01602080910402602001604051908101604052809291908181526020018280546105e990612616565b80156106365780601f1061060b57610100808354040283529160200191610636565b820191906000526020600020905b81548152906001019060200180831161061957829003601f168201915b5050505050905090565b600061064b82610dcb565b506000908152600460205260409020546001600160a01b031690565b600061067282610a60565b9050806001600160a01b0316836001600160a01b031614156106e55760405162461bcd60e51b815260206004820152602160248201527f4552433732313a20617070726f76616c20746f2063757272656e74206f776e656044820152603960f91b60648201526084015b60405180910390fd5b336001600160a01b038216148061070157506107018133610d41565b6107735760405162461bcd60e51b815260206004820152603d60248201527f4552433732313a20617070726f76652063616c6c6572206973206e6f7420746f60448201527f6b656e206f776e6572206f7220617070726f76656420666f7220616c6c00000060648201526084016106dc565b61077d8383610e2a565b505050565b61078e62040000610d9a565b6107aa5760405162461bcd60e51b81526004016106dc90612651565b336001600160a01b03167f7989fff0ffb34805e8b3574b890ed6157f85a384c69b9a0c04991b24cabb825983836040516107e5929190612678565b60405180910390a26107f78282610e98565b5050565b6108053382610ea2565b6108215760405162461bcd60e51b81526004016106dc906126b0565b61077d838383610f01565b61083862080000610d9a565b6108545760405162461bcd60e51b81526004016106dc90612651565b61077d6001600160a01b0384168383611072565b600061087383610b4e565b82106108d55760405162461bcd60e51b815260206004820152602b60248201527f455243373231456e756d657261626c653a206f776e657220696e646578206f7560448201526a74206f6620626f756e647360a81b60648201526084016106dc565b506001600160a01b03919091166000908152600660209081526040808320938352929052205490565b6107f782826110c4565b61077d83838360405180602001604052806000815250610ccf565b61092c81611132565b50565b6000818152600260205260408120546001600160a01b031615156105a8565b600061095960085490565b82106109bc5760405162461bcd60e51b815260206004820152602c60248201527f455243373231456e756d657261626c653a20676c6f62616c20696e646578206f60448201526b7574206f6620626f756e647360a01b60648201526084016106dc565b600882815481106109cf576109cf6126fd565b90600052602060002001549050919050565b6109ed62040000610d9a565b610a095760405162461bcd60e51b81526004016106dc90612651565b336001600160a01b03167fac455070f26733cc10c09e4389a74bf73bdb676d730ee31215c31d20daa88005600c83604051610a45929190612713565b60405180910390a280516107f790600c90602084019061216a565b6000818152600260205260408120546001600160a01b0316806105a85760405162461bcd60e51b8152602060048201526018602482015277115490cdcc8c4e881a5b9d985b1a59081d1bdad95b88125160421b60448201526064016106dc565b600c8054610acd90612616565b80601f0160208091040260200160405190810160405280929190818152602001828054610af990612616565b8015610b465780601f10610b1b57610100808354040283529160200191610b46565b820191906000526020600020905b815481529060010190602001808311610b2957829003601f168201915b505050505081565b60006001600160a01b038216610bb85760405162461bcd60e51b815260206004820152602960248201527f4552433732313a2061646472657373207a65726f206973206e6f7420612076616044820152683634b21037bbb732b960b91b60648201526084016106dc565b506001600160a01b031660009081526003602052604090205490565b306000908152600b6020526040812054821682146105a8565b61077d8383836112c7565b6060600180546105bd90612616565b6107f782826112fa565b6107f7338383611314565b610c29600160ff1b610d9a565b610c455760405162461bcd60e51b81526004016106dc90612651565b6001600160a01b0382166000908152600b6020526040902054610c6a90339083610d6f565b6001600160a01b0383166000818152600b60205260409081902083905551909133917f5a10526456f5116c0b7b80582c217d666243fd51b6a2d92c8011e601c2462e5f91610cc391869190918252602082015260400190565b60405180910390a35050565b610cd93383610ea2565b610cf55760405162461bcd60e51b81526004016106dc906126b0565b610d01848484846113e3565b50505050565b6001600160a01b0382166000908152600b6020526040812054821682145b9392505050565b60606105a882611416565b61092c3082610c1c565b6001600160a01b03918216600090815260056020908152604080832093909416825291909152205460ff1690565b6001600160a01b03929092166000908152600b60205260409020546000198084188216189216171690565b60006105a83383610d07565b60006001600160e01b0319821663780e9d6360e01b14806105a857506105a882611512565b6000818152600260205260409020546001600160a01b031661092c5760405162461bcd60e51b8152602060048201526018602482015277115490cdcc8c4e881a5b9d985b1a59081d1bdad95b88125160421b60448201526064016106dc565b600081815260046020526040902080546001600160a01b0319166001600160a01b0384169081179091558190610e5f82610a60565b6001600160a01b03167f8c5be1e5ebec7d5bd14f71427d1e84f3dd0314c0f7b2291e5b200ac8c7c3b92560405160405180910390a45050565b6107f78282611562565b600080610eae83610a60565b9050806001600160a01b0316846001600160a01b03161480610ed55750610ed58185610d41565b80610ef95750836001600160a01b0316610eee84610640565b6001600160a01b0316145b949350505050565b826001600160a01b0316610f1482610a60565b6001600160a01b031614610f3a5760405162461bcd60e51b81526004016106dc906127cf565b6001600160a01b038216610f9c5760405162461bcd60e51b8152602060048201526024808201527f4552433732313a207472616e7366657220746f20746865207a65726f206164646044820152637265737360e01b60648201526084016106dc565b610fa983838360016115fc565b826001600160a01b0316610fbc82610a60565b6001600160a01b031614610fe25760405162461bcd60e51b81526004016106dc906127cf565b600081815260046020908152604080832080546001600160a01b03199081169091556001600160a01b0387811680865260038552838620805460001901905590871680865283862080546001019055868652600290945282852080549092168417909155905184937fddf252ad1be2c89b69c2b068fc378daa952ba7f163c4a11628f55a4df523b3ef91a4505050565b604080516001600160a01b038416602482015260448082018490528251808303909101815260649091019091526020810180516001600160e01b031663a9059cbb60e01b17905261077d908490611706565b6110d062010000610d9a565b6110ec5760405162461bcd60e51b81526004016106dc90612651565b6110f682826117bd565b60405181906001600160a01b0384169033907f9d228d69b5fdb8d273a2336f8fb8612d039631024ea9bf09c424a9503aa078f090600090a45050565b600061113d82610a60565b905061114b62020000610d9a565b611282576001600160a01b0381163314801561116c575061116c6008610bd4565b8061119057506001600160a01b038116331480159061119057506111906010610bd4565b6001600160a01b03821633146111db576040518060400160405280601c81526020017f6275726e73206f6e20626568616c66206172652064697361626c656400000000815250611207565b60405180604001604052806012815260200171189d5c9b9cc8185c9948191a5cd8589b195960721b8152505b906112255760405162461bcd60e51b81526004016106dc91906122c4565b50336001600160a01b0382161480611256575061124182610640565b6001600160a01b0316336001600160a01b0316145b8061126657506112668133610d41565b6112825760405162461bcd60e51b81526004016106dc90612651565b61128b82611956565b60405182906001600160a01b0383169033907fe8a89cc6e5096f9d9f43de82c077c1f4cfe707c0e0c2032176c68813b9ae6a5c90600090a45050565b6112d183836110c4565b6112de6000848484611996565b61077d5760405162461bcd60e51b81526004016106dc90612814565b6107f78282604051806020016040528060008152506112c7565b816001600160a01b0316836001600160a01b031614156113765760405162461bcd60e51b815260206004820152601960248201527f4552433732313a20617070726f766520746f2063616c6c65720000000000000060448201526064016106dc565b6001600160a01b03838116600081815260056020908152604080832094871680845294825291829020805460ff191686151590811790915591519182527f17307eab39ab6107e8899845ad3d59bd9653f200f220920489ca2b5937696c31910160405180910390a3505050565b6113ee848484610f01565b6113fa84848484611996565b610d015760405162461bcd60e51b81526004016106dc90612814565b606061142182610dcb565b6000828152600a60205260408120805461143a90612616565b80601f016020809104026020016040519081016040528092919081815260200182805461146690612616565b80156114b35780601f10611488576101008083540402835291602001916114b3565b820191906000526020600020905b81548152906001019060200180831161149657829003601f168201915b5050505050905060006114c4611a94565b90508051600014156114d7575092915050565b8151156115095780826040516020016114f1929190612866565b60405160208183030381529060405292505050919050565b610ef984611aa3565b60006001600160e01b031982166380ac58cd60e01b148061154357506001600160e01b03198216635b5e139f60e01b145b806105a857506301ffc9a760e01b6001600160e01b03198316146105a8565b6000828152600260205260409020546001600160a01b03166115dd5760405162461bcd60e51b815260206004820152602e60248201527f45524337323155524953746f726167653a2055524920736574206f66206e6f6e60448201526d32bc34b9ba32b73a103a37b5b2b760911b60648201526084016106dc565b6000828152600a60209081526040909120825161077d9284019061216a565b6001600160a01b038416158061161957506001600160a01b038316155b8061163c57506001600160a01b0384163314801561163c575061163c6001610bd4565b8061166057506001600160a01b038416331480159061166057506116606002610bd4565b6001600160a01b03851633146116ab576040518060400160405280602081526020017f7472616e7366657273206f6e20626568616c66206172652064697361626c65648152506116db565b604051806040016040528060168152602001751d1c985b9cd9995c9cc8185c9948191a5cd8589b195960521b8152505b906116f95760405162461bcd60e51b81526004016106dc91906122c4565b50610d0184848484611b09565b600061175b826040518060400160405280601b81526020017f4552433230206c6f772d6c6576656c2063616c6c206661696c65640000000000815250856001600160a01b0316611c3d9092919063ffffffff16565b80519091501561077d57808060200190518101906117799190612895565b61077d5760405162461bcd60e51b8152602060048201526015602482015274115490cc8c081d1c985b9cd9995c8819985a5b1959605a1b60448201526064016106dc565b6001600160a01b0382166118135760405162461bcd60e51b815260206004820181905260248201527f4552433732313a206d696e7420746f20746865207a65726f206164647265737360448201526064016106dc565b6000818152600260205260409020546001600160a01b0316156118785760405162461bcd60e51b815260206004820152601c60248201527f4552433732313a20746f6b656e20616c7265616479206d696e7465640000000060448201526064016106dc565b6118866000838360016115fc565b6000818152600260205260409020546001600160a01b0316156118eb5760405162461bcd60e51b815260206004820152601c60248201527f4552433732313a20746f6b656e20616c7265616479206d696e7465640000000060448201526064016106dc565b6001600160a01b038216600081815260036020908152604080832080546001019055848352600290915280822080546001600160a01b0319168417905551839291907fddf252ad1be2c89b69c2b068fc378daa952ba7f163c4a11628f55a4df523b3ef908290a45050565b61195f81611c4c565b6000818152600a60205260409020805461197890612616565b15905061092c576000818152600a6020526040812061092c916121ee565b60006001600160a01b0384163b15611a8957604051630a85bd0160e11b81526001600160a01b0385169063150b7a02906119da9033908990889088906004016128b2565b6020604051808303816000875af1925050508015611a15575060408051601f3d908101601f19168201909252611a12918101906128ef565b60015b611a6f573d808015611a43576040519150601f19603f3d011682016040523d82523d6000602084013e611a48565b606091505b508051611a675760405162461bcd60e51b81526004016106dc90612814565b805181602001fd5b6001600160e01b031916630a85bd0160e11b149050610ef9565b506001949350505050565b6060600c80546105bd90612616565b6060611aae82610dcb565b6000611ab8611a94565b90506000815111611ad85760405180602001604052806000815250610d25565b80611ae284611cef565b604051602001611af3929190612866565b6040516020818303038152906040529392505050565b6001811115611b785760405162461bcd60e51b815260206004820152603560248201527f455243373231456e756d657261626c653a20636f6e7365637574697665207472604482015274185b9cd9995c9cc81b9bdd081cdd5c1c1bdc9d1959605a1b60648201526084016106dc565b816001600160a01b038516611bd457611bcf81600880546000838152600960205260408120829055600182018355919091527ff3f7a9fe364faab93b216da50a3214154f22a0a2b415b23a84c8169e8b636ee30155565b611bf7565b836001600160a01b0316856001600160a01b031614611bf757611bf78582611d8c565b6001600160a01b038416611c1357611c0e81611e29565b611c36565b846001600160a01b0316846001600160a01b031614611c3657611c368482611ed8565b5050505050565b6060610ef98484600085611f1c565b6000611c5782610a60565b9050611c678160008460016115fc565b611c7082610a60565b600083815260046020908152604080832080546001600160a01b03199081169091556001600160a01b0385168085526003845282852080546000190190558785526002909352818420805490911690555192935084927fddf252ad1be2c89b69c2b068fc378daa952ba7f163c4a11628f55a4df523b3ef908390a45050565b60606000611cfc83611ff7565b600101905060008167ffffffffffffffff811115611d1c57611d1c612336565b6040519080825280601f01601f191660200182016040528015611d46576020820181803683370190505b5090508181016020015b600019016f181899199a1a9b1b9c1cb0b131b232b360811b600a86061a8153600a8504945084611d7f57611d84565b611d50565b509392505050565b60006001611d9984610b4e565b611da3919061290c565b600083815260076020526040902054909150808214611df6576001600160a01b03841660009081526006602090815260408083208584528252808320548484528184208190558352600790915290208190555b5060009182526007602090815260408084208490556001600160a01b039094168352600681528383209183525290812055565b600854600090611e3b9060019061290c565b60008381526009602052604081205460088054939450909284908110611e6357611e636126fd565b906000526020600020015490508060088381548110611e8457611e846126fd565b6000918252602080832090910192909255828152600990915260408082208490558582528120556008805480611ebc57611ebc612931565b6001900381819060005260206000200160009055905550505050565b6000611ee383610b4e565b6001600160a01b039093166000908152600660209081526040808320868452825280832085905593825260079052919091209190915550565b606082471015611f7d5760405162461bcd60e51b815260206004820152602660248201527f416464726573733a20696e73756666696369656e742062616c616e636520666f6044820152651c8818d85b1b60d21b60648201526084016106dc565b600080866001600160a01b03168587604051611f999190612947565b60006040518083038185875af1925050503d8060008114611fd6576040519150601f19603f3d011682016040523d82523d6000602084013e611fdb565b606091505b5091509150611fec878383876120cf565b979650505050505050565b60008072184f03e93ff9f4daa797ed6e38ed64bf6a1f0160401b83106120365772184f03e93ff9f4daa797ed6e38ed64bf6a1f0160401b830492506040015b6d04ee2d6d415b85acef81000000008310612062576d04ee2d6d415b85acef8100000000830492506020015b662386f26fc10000831061208057662386f26fc10000830492506010015b6305f5e1008310612098576305f5e100830492506008015b61271083106120ac57612710830492506004015b606483106120be576064830492506002015b600a83106105a85760010192915050565b6060831561213b578251612134576001600160a01b0385163b6121345760405162461bcd60e51b815260206004820152601d60248201527f416464726573733a2063616c6c20746f206e6f6e2d636f6e747261637400000060448201526064016106dc565b5081610ef9565b610ef983838151156121505781518083602001fd5b8060405162461bcd60e51b81526004016106dc91906122c4565b82805461217690612616565b90600052602060002090601f01602090048101928261219857600085556121de565b82601f106121b157805160ff19168380011785556121de565b828001600101855582156121de579182015b828111156121de5782518255916020019190600101906121c3565b506121ea929150612224565b5090565b5080546121fa90612616565b6000825580601f1061220a575050565b601f01602090049060005260206000209081019061092c91905b5b808211156121ea5760008155600101612225565b6001600160e01b03198116811461092c57600080fd5b60006020828403121561226157600080fd5b8135610d2581612239565b60005b8381101561228757818101518382015260200161226f565b83811115610d015750506000910152565b600081518084526122b081602086016020860161226c565b601f01601f19169290920160200192915050565b602081526000610d256020830184612298565b6000602082840312156122e957600080fd5b5035919050565b80356001600160a01b038116811461230757600080fd5b919050565b6000806040838503121561231f57600080fd5b612328836122f0565b946020939093013593505050565b634e487b7160e01b600052604160045260246000fd5b600082601f83011261235d57600080fd5b813567ffffffffffffffff8082111561237857612378612336565b604051601f8301601f19908116603f011681019082821181831017156123a0576123a0612336565b816040528381528660208588010111156123b957600080fd5b836020870160208301376000602085830101528094505050505092915050565b600080604083850312156123ec57600080fd5b82359150602083013567ffffffffffffffff81111561240a57600080fd5b6124168582860161234c565b9150509250929050565b60008060006060848603121561243557600080fd5b61243e846122f0565b925061244c602085016122f0565b9150604084013590509250925092565b60006020828403121561246e57600080fd5b813567ffffffffffffffff81111561248557600080fd5b610ef98482850161234c565b6000602082840312156124a357600080fd5b610d25826122f0565b6000806000606084860312156124c157600080fd5b6124ca846122f0565b925060208401359150604084013567ffffffffffffffff8111156124ed57600080fd5b6124f98682870161234c565b9150509250925092565b801515811461092c57600080fd5b6000806040838503121561252457600080fd5b61252d836122f0565b9150602083013561253d81612503565b809150509250929050565b6000806000806080858703121561255e57600080fd5b612567856122f0565b9350612575602086016122f0565b925060408501359150606085013567ffffffffffffffff81111561259857600080fd5b6125a48782880161234c565b91505092959194509250565b600080604083850312156125c357600080fd5b6125cc836122f0565b91506125da602084016122f0565b90509250929050565b6000806000606084860312156125f857600080fd5b612601846122f0565b95602085013595506040909401359392505050565b600181811c9082168061262a57607f821691505b6020821081141561264b57634e487b7160e01b600052602260045260246000fd5b50919050565b6020808252600d908201526c1858d8d95cdcc819195b9a5959609a1b604082015260600190565b8281526060602082015260086060820152673d32b83832b634b760c11b608082015260a060408201526000610ef960a0830184612298565b6020808252602d908201527f4552433732313a2063616c6c6572206973206e6f7420746f6b656e206f776e6560408201526c1c881bdc88185c1c1c9bdd9959609a1b606082015260800190565b634e487b7160e01b600052603260045260246000fd5b60408152600080845481600182811c91508083168061273357607f831692505b602080841082141561275357634e487b7160e01b86526022600452602486fd5b60408801849052606088018280156127725760018114612783576127ae565b60ff198716825282820197506127ae565b60008c81526020902060005b878110156127a85781548482015290860190840161278f565b83019850505b50508786038189015250505050506127c68185612298565b95945050505050565b60208082526025908201527f4552433732313a207472616e736665722066726f6d20696e636f72726563742060408201526437bbb732b960d91b606082015260800190565b60208082526032908201527f4552433732313a207472616e7366657220746f206e6f6e20455243373231526560408201527131b2b4bb32b91034b6b83632b6b2b73a32b960711b606082015260800190565b6000835161287881846020880161226c565b83519083019061288c81836020880161226c565b01949350505050565b6000602082840312156128a757600080fd5b8151610d2581612503565b6001600160a01b03858116825284166020820152604081018390526080606082018190526000906128e590830184612298565b9695505050505050565b60006020828403121561290157600080fd5b8151610d2581612239565b60008282101561292c57634e487b7160e01b600052601160045260246000fd5b500390565b634e487b7160e01b600052603160045260246000fd5b6000825161295981846020870161226c565b919091019291505056fea2646970667358221220c6b73104b9ce0630243e0f59ca1d4d66cfa917b74505584a362fa036a1483aeb64736f6c634300080b0033",
  "devdoc": {
    "author": "Basil Gorin",
    "kind": "dev",
    "methods": {
      "approve(address,uint256)": {
        "details": "See {IERC721-approve}."
      },
      "balanceOf(address)": {
        "details": "See {IERC721-balanceOf}."
      },
      "burn(uint256)": {
        "details": "Destroys the token with token ID specifiedRequires executor to have `ROLE_TOKEN_DESTROYER` permission      or FEATURE_OWN_BURNS/FEATURE_BURNS_ON_BEHALF features to be enabledCan be disabled by the contract creator forever by disabling      FEATURE_OWN_BURNS/FEATURE_BURNS_ON_BEHALF features and then revoking      its own roles to burn tokens and to enable burning features",
        "params": {
          "_tokenId": "ID of the token to burn"
        }
      },
      "constructor": {
        "details": "Creates/deploys an NFT Mock instance",
        "params": {
          "_name": "token name (ERC721Metadata)",
          "_symbol": "token symbol (ERC721Metadata)"
        }
      },
      "evaluateBy(address,uint256,uint256)": {
        "details": "Calculated based on:      1) operator's own permission set read from userRoles[operator]      2) target permission set - what is already set on the target      3) desired permission set - what do we want set target toCorner cases:      1) Operator is super admin and its permission set is `FULL_PRIVILEGES_MASK`:        `desired` bitset is returned regardless of the `target` permission set value        (what operator sets is what they get)      2) Operator with no permissions (zero bitset):        `target` bitset is returned regardless of the `desired` value        (operator has no authority and cannot modify anything)Example:      Consider an operator with the permissions bitmask     00001111      is about to modify the target permission set          01010101      Operator wants to set that permission set to          00110011      Based on their role, an operator has the permissions      to update only lowest 4 bits on the target, meaning that      high 4 bits of the target set in this example is left      unchanged and low 4 bits get changed as desired:      01010011",
        "params": {
          "desired": "desired set of permissions operator would like to set",
          "operator": "address of the contract operator which is about to set the permissions",
          "target": "input set of permissions to operator is going to modify"
        },
        "returns": {
          "_0": "resulting set of permissions given operator will set"
        }
      },
      "exists(uint256)": {
        "details": "Returns whether the specified token ID has an ownership      information associated with it",
        "params": {
          "_tokenId": "ID of the token to query existence for"
        },
        "returns": {
          "_0": "whether the token exists (true - exists, false - doesn't exist)"
        }
      },
      "features()": {
        "details": "Effectively reads userRoles role for the contract itself",
        "returns": {
          "_0": "256-bit bitmask of the features enabled"
        }
      },
      "getApproved(uint256)": {
        "details": "See {IERC721-getApproved}."
      },
      "isApprovedForAll(address,address)": {
        "details": "See {IERC721-isApprovedForAll}."
      },
      "isFeatureEnabled(uint256)": {
        "params": {
          "required": "set of features to check against"
        },
        "returns": {
          "_0": "true if all the features requested are enabled, false otherwise"
        }
      },
      "isOperatorInRole(address,uint256)": {
        "params": {
          "operator": "address of the user to check role for",
          "required": "set of permissions (role) to check"
        },
        "returns": {
          "_0": "true if all the permissions requested are enabled, false otherwise"
        }
      },
      "isSenderInRole(uint256)": {
        "params": {
          "required": "set of permissions (role) to check against"
        },
        "returns": {
          "_0": "true if all the permissions requested are enabled, false otherwise"
        }
      },
      "mint(address,uint256)": {
        "details": "Creates new token with token ID specified      and assigns an ownership `_to` for this tokenUnsafe: doesn't execute `onERC721Received` on the receiver.      Prefer the use of `saveMint` instead of `mint`.Requires executor to have `ROLE_TOKEN_CREATOR` permission",
        "params": {
          "_to": "an address to mint token to",
          "_tokenId": "ID of the token to mint"
        }
      },
      "name()": {
        "details": "See {IERC721Metadata-name}."
      },
      "ownerOf(uint256)": {
        "details": "See {IERC721-ownerOf}."
      },
      "rescueErc20(address,address,uint256)": {
        "details": "Restricted access function to rescue accidentally sent ERC20 tokens,      the tokens are rescued via `transfer` function call on the      contract address specified and with the parameters specified:      `_contract.transfer(_to, _value)`Requires executor to have `ROLE_RESCUE_MANAGER` permission",
        "params": {
          "_contract": "smart contract address to execute `transfer` function on",
          "_to": "to address in `transfer(_to, _value)`",
          "_value": "value to transfer in `transfer(_to, _value)`"
        }
      },
      "safeMint(address,uint256)": {
        "details": "Creates new token with token ID specified      and assigns an ownership `_to` for this tokenChecks if `_to` is a smart contract (code size > 0). If so, it calls      `onERC721Received` on `_to` and throws if the return value is not      `bytes4(keccak256(\"onERC721Received(address,address,uint256,bytes)\"))`.Requires executor to have `ROLE_TOKEN_CREATOR` permission",
        "params": {
          "_to": "an address to mint token to",
          "_tokenId": "ID of the token to mint"
        }
      },
      "safeMint(address,uint256,bytes)": {
        "details": "Creates new token with token ID specified      and assigns an ownership `_to` for this tokenChecks if `_to` is a smart contract (code size > 0). If so, it calls      `onERC721Received` on `_to` and throws if the return value is not      `bytes4(keccak256(\"onERC721Received(address,address,uint256,bytes)\"))`.Requires executor to have `ROLE_TOKEN_CREATOR` permission",
        "params": {
          "_data": "additional data with no specified format, sent in call to `_to`",
          "_to": "an address to mint token to",
          "_tokenId": "ID of the token to mint"
        }
      },
      "safeTransferFrom(address,address,uint256)": {
        "details": "See {IERC721-safeTransferFrom}."
      },
      "safeTransferFrom(address,address,uint256,bytes)": {
        "details": "See {IERC721-safeTransferFrom}."
      },
      "setApprovalForAll(address,bool)": {
        "details": "See {IERC721-setApprovalForAll}."
      },
      "setBaseURI(string)": {
        "details": "Restricted access function which updates base URI used to construct      ERC721Metadata.tokenURIRequires executor to have ROLE_URI_MANAGER permission",
        "params": {
          "__baseURI": "new base URI to set"
        }
      },
      "setTokenURI(uint256,string)": {
        "details": "Sets the token URI for the token defined by its ID",
        "params": {
          "_tokenId": "an ID of the token to set URI for",
          "_tokenURI": "token URI to set"
        }
      },
      "supportsInterface(bytes4)": {
        "details": "Returns true if this contract implements the interface defined by `interfaceId`. See the corresponding https://eips.ethereum.org/EIPS/eip-165#how-interfaces-are-identified[EIP section] to learn more about how these ids are created. This function call must use less than 30 000 gas."
      },
      "symbol()": {
        "details": "See {IERC721Metadata-symbol}."
      },
      "tokenByIndex(uint256)": {
        "details": "See {IERC721Enumerable-tokenByIndex}."
      },
      "tokenOfOwnerByIndex(address,uint256)": {
        "details": "See {IERC721Enumerable-tokenOfOwnerByIndex}."
      },
      "tokenURI(uint256)": {
        "details": "See {IERC721Metadata-tokenURI}."
      },
      "totalSupply()": {
        "details": "See {IERC721Enumerable-totalSupply}."
      },
      "transferFrom(address,address,uint256)": {
        "details": "See {IERC721-transferFrom}."
      },
      "updateFeatures(uint256)": {
        "details": "Requires transaction sender to have `ROLE_ACCESS_MANAGER` permissionFunction is left for backward compatibility with older versions",
        "params": {
          "_mask": "bitmask representing a set of features to enable/disable"
        }
      },
      "updateRole(address,uint256)": {
        "details": "Setting role to zero is equivalent to removing an all permissionsSetting role to `FULL_PRIVILEGES_MASK` is equivalent to      copying senders' permissions (role) to the userRequires transaction sender to have `ROLE_ACCESS_MANAGER` permission",
        "params": {
          "operator": "address of a user to alter permissions for or zero      to alter global features of the smart contract",
          "role": "bitmask representing a set of permissions to      enable/disable for a user specified"
        }
      }
    },
    "title": "Zeppelin ERC721 Mock",
    "version": 1
  },
  "userdoc": {
    "kind": "user",
    "methods": {
      "FEATURE_BURNS_ON_BEHALF()": {
        "notice": "Enables approved operators to burn tokens on behalf of their owners"
      },
      "FEATURE_OWN_BURNS()": {
        "notice": "Enables token owners to burn their own tokens"
      },
      "FEATURE_TRANSFERS()": {
        "notice": "Enables ERC721 transfers of the tokens      (transfer by the token owner himself)"
      },
      "FEATURE_TRANSFERS_ON_BEHALF()": {
        "notice": "Enables ERC721 transfers on behalf      (transfer by someone else on behalf of token owner)"
      },
      "ROLE_ACCESS_MANAGER()": {
        "notice": "Access manager is responsible for assigning the roles to users,      enabling/disabling global features of the smart contractAccess manager can add, remove and update user roles,      remove and update global features"
      },
      "ROLE_RESCUE_MANAGER()": {
        "notice": "People do mistakes and may send ERC20 tokens by mistake; since      NFT smart contract is not designed to accept and hold any ERC20 tokens,      it allows the rescue manager to \"rescue\" such lost tokensRescue manager is responsible for \"rescuing\" ERC20 tokens accidentally      sent to the smart contract"
      },
      "ROLE_TOKEN_CREATOR()": {
        "notice": "Token creator is responsible for creating (minting)      tokens to an arbitrary address"
      },
      "ROLE_TOKEN_DESTROYER()": {
        "notice": "Token destroyer is responsible for destroying (burning)      tokens owned by an arbitrary address"
      },
      "ROLE_URI_MANAGER()": {
        "notice": "URI manager is responsible for managing base URI      part of the token URI ERC721Metadata interface"
      },
      "evaluateBy(address,uint256,uint256)": {
        "notice": "Determines the permission bitmask an operator can set on the      target permission setUsed to calculate the permission bitmask to be set when requested     in `updateRole` and `updateFeatures` functions"
      },
      "exists(uint256)": {
        "notice": "Checks if specified token exists"
      },
      "features()": {
        "notice": "Retrieves globally set of features enabled"
      },
      "isFeatureEnabled(uint256)": {
        "notice": "Checks if requested set of features is enabled globally on the contract"
      },
      "isOperatorInRole(address,uint256)": {
        "notice": "Checks if operator has all the permissions (role) required"
      },
      "isSenderInRole(uint256)": {
        "notice": "Checks if transaction sender `msg.sender` has all the permissions required"
      },
      "updateFeatures(uint256)": {
        "notice": "Updates set of the globally enabled features (`features`),      taking into account sender's permissions"
      },
      "updateRole(address,uint256)": {
        "notice": "Updates set of permissions (role) for a given user,      taking into account sender's permissions."
      },
      "userRoles(address)": {
        "notice": "Privileged addresses with defined roles/permissionsIn the context of ERC20/ERC721 tokens these can be permissions to      allow minting or burning tokens, transferring on behalf and so on"
      }
    },
    "notice": "Zeppelin ERC721 Mock simulates an NFT token, used for testing purposes;      it still has restricted access to the mint() function",
    "version": 1
  },
  "storageLayout": {
    "storage": [
      {
        "astId": 715,
        "contract": "contracts/mocks/ERC721Mock.sol:ERC721Mock",
        "label": "_name",
        "offset": 0,
        "slot": "0",
        "type": "t_string_storage"
      },
      {
        "astId": 717,
        "contract": "contracts/mocks/ERC721Mock.sol:ERC721Mock",
        "label": "_symbol",
        "offset": 0,
        "slot": "1",
        "type": "t_string_storage"
      },
      {
        "astId": 721,
        "contract": "contracts/mocks/ERC721Mock.sol:ERC721Mock",
        "label": "_owners",
        "offset": 0,
        "slot": "2",
        "type": "t_mapping(t_uint256,t_address)"
      },
      {
        "astId": 725,
        "contract": "contracts/mocks/ERC721Mock.sol:ERC721Mock",
        "label": "_balances",
        "offset": 0,
        "slot": "3",
        "type": "t_mapping(t_address,t_uint256)"
      },
      {
        "astId": 729,
        "contract": "contracts/mocks/ERC721Mock.sol:ERC721Mock",
        "label": "_tokenApprovals",
        "offset": 0,
        "slot": "4",
        "type": "t_mapping(t_uint256,t_address)"
      },
      {
        "astId": 735,
        "contract": "contracts/mocks/ERC721Mock.sol:ERC721Mock",
        "label": "_operatorApprovals",
        "offset": 0,
        "slot": "5",
        "type": "t_mapping(t_address,t_mapping(t_address,t_bool))"
      },
      {
        "astId": 1765,
        "contract": "contracts/mocks/ERC721Mock.sol:ERC721Mock",
        "label": "_ownedTokens",
        "offset": 0,
        "slot": "6",
        "type": "t_mapping(t_address,t_mapping(t_uint256,t_uint256))"
      },
      {
        "astId": 1769,
        "contract": "contracts/mocks/ERC721Mock.sol:ERC721Mock",
        "label": "_ownedTokensIndex",
        "offset": 0,
        "slot": "7",
        "type": "t_mapping(t_uint256,t_uint256)"
      },
      {
        "astId": 1772,
        "contract": "contracts/mocks/ERC721Mock.sol:ERC721Mock",
        "label": "_allTokens",
        "offset": 0,
        "slot": "8",
        "type": "t_array(t_uint256)dyn_storage"
      },
      {
        "astId": 1776,
        "contract": "contracts/mocks/ERC721Mock.sol:ERC721Mock",
        "label": "_allTokensIndex",
        "offset": 0,
        "slot": "9",
        "type": "t_mapping(t_uint256,t_uint256)"
      },
      {
        "astId": 2117,
        "contract": "contracts/mocks/ERC721Mock.sol:ERC721Mock",
        "label": "_tokenURIs",
        "offset": 0,
        "slot": "10",
        "type": "t_mapping(t_uint256,t_string_storage)"
      },
      {
        "astId": 5308,
        "contract": "contracts/mocks/ERC721Mock.sol:ERC721Mock",
        "label": "userRoles",
        "offset": 0,
        "slot": "11",
        "type": "t_mapping(t_address,t_uint256)"
      },
      {
        "astId": 4804,
        "contract": "contracts/mocks/ERC721Mock.sol:ERC721Mock",
        "label": "baseURI",
        "offset": 0,
        "slot": "12",
        "type": "t_string_storage"
      }
    ],
    "types": {
      "t_address": {
        "encoding": "inplace",
        "label": "address",
        "numberOfBytes": "20"
      },
      "t_array(t_uint256)dyn_storage": {
        "base": "t_uint256",
        "encoding": "dynamic_array",
        "label": "uint256[]",
        "numberOfBytes": "32"
      },
      "t_bool": {
        "encoding": "inplace",
        "label": "bool",
        "numberOfBytes": "1"
      },
      "t_mapping(t_address,t_bool)": {
        "encoding": "mapping",
        "key": "t_address",
        "label": "mapping(address => bool)",
        "numberOfBytes": "32",
        "value": "t_bool"
      },
      "t_mapping(t_address,t_mapping(t_address,t_bool))": {
        "encoding": "mapping",
        "key": "t_address",
        "label": "mapping(address => mapping(address => bool))",
        "numberOfBytes": "32",
        "value": "t_mapping(t_address,t_bool)"
      },
      "t_mapping(t_address,t_mapping(t_uint256,t_uint256))": {
        "encoding": "mapping",
        "key": "t_address",
        "label": "mapping(address => mapping(uint256 => uint256))",
        "numberOfBytes": "32",
        "value": "t_mapping(t_uint256,t_uint256)"
      },
      "t_mapping(t_address,t_uint256)": {
        "encoding": "mapping",
        "key": "t_address",
        "label": "mapping(address => uint256)",
        "numberOfBytes": "32",
        "value": "t_uint256"
      },
      "t_mapping(t_uint256,t_address)": {
        "encoding": "mapping",
        "key": "t_uint256",
        "label": "mapping(uint256 => address)",
        "numberOfBytes": "32",
        "value": "t_address"
      },
      "t_mapping(t_uint256,t_string_storage)": {
        "encoding": "mapping",
        "key": "t_uint256",
        "label": "mapping(uint256 => string)",
        "numberOfBytes": "32",
        "value": "t_string_storage"
      },
      "t_mapping(t_uint256,t_uint256)": {
        "encoding": "mapping",
        "key": "t_uint256",
        "label": "mapping(uint256 => uint256)",
        "numberOfBytes": "32",
        "value": "t_uint256"
      },
      "t_string_storage": {
        "encoding": "bytes",
        "label": "string",
        "numberOfBytes": "32"
      },
      "t_uint256": {
        "encoding": "inplace",
        "label": "uint256",
        "numberOfBytes": "32"
      }
    }
  }
}